{
  "address": "0x852FfA30dBdd64a4893D1cAB9DbA14148Ed3690D",
  "abi": [
    {
      "inputs": [
        {
          "internalType": "address",
          "name": "_implementation",
          "type": "address"
        }
      ],
      "stateMutability": "nonpayable",
      "type": "constructor"
    },
    {
      "inputs": [
        {
          "internalType": "address",
          "name": "target",
          "type": "address"
        }
      ],
      "name": "AddressEmptyCode",
      "type": "error"
    },
    {
      "inputs": [
        {
          "internalType": "address",
          "name": "account",
          "type": "address"
        }
      ],
      "name": "AddressInsufficientBalance",
      "type": "error"
    },
    {
      "inputs": [],
      "name": "ArrayLengthMismatch",
      "type": "error"
    },
    {
      "inputs": [],
      "name": "ERC1167FailedCreateClone",
      "type": "error"
    },
    {
      "inputs": [],
      "name": "FailedInnerCall",
      "type": "error"
    },
    {
      "inputs": [],
      "name": "InsufficientAllowance",
      "type": "error"
    },
    {
      "inputs": [],
      "name": "InsufficientBalance",
      "type": "error"
    },
    {
      "inputs": [
        {
          "internalType": "address",
          "name": "token",
          "type": "address"
        }
      ],
      "name": "InvalidAsset",
      "type": "error"
    },
    {
      "inputs": [
        {
          "internalType": "uint256",
          "name": "max",
          "type": "uint256"
        }
      ],
      "name": "MaxAssetsExceeded",
      "type": "error"
    },
    {
      "inputs": [
        {
          "internalType": "address",
          "name": "owner",
          "type": "address"
        }
      ],
      "name": "OwnableInvalidOwner",
      "type": "error"
    },
    {
      "inputs": [
        {
          "internalType": "address",
          "name": "account",
          "type": "address"
        }
      ],
      "name": "OwnableUnauthorizedAccount",
      "type": "error"
    },
    {
      "inputs": [],
      "name": "PermitInsufficientValue",
      "type": "error"
    },
    {
      "inputs": [],
      "name": "PermitOrderMismatch",
      "type": "error"
    },
    {
      "inputs": [],
      "name": "ReentrancyGuardReentrantCall",
      "type": "error"
    },
    {
      "inputs": [
        {
          "internalType": "address",
          "name": "token",
          "type": "address"
        }
      ],
      "name": "SafeERC20FailedOperation",
      "type": "error"
    },
    {
      "anonymous": false,
      "inputs": [
        {
          "indexed": true,
          "internalType": "address",
          "name": "owner",
          "type": "address"
        },
        {
          "indexed": false,
          "internalType": "address",
          "name": "balancer",
          "type": "address"
        },
        {
          "indexed": false,
          "internalType": "uint256",
          "name": "assetsLength",
          "type": "uint256"
        }
      ],
      "name": "BalancerCreated",
      "type": "event"
    },
    {
      "anonymous": false,
      "inputs": [
        {
          "indexed": true,
          "internalType": "address",
          "name": "previousOwner",
          "type": "address"
        },
        {
          "indexed": true,
          "internalType": "address",
          "name": "newOwner",
          "type": "address"
        }
      ],
      "name": "OwnershipTransferred",
      "type": "event"
    },
    {
      "inputs": [],
      "name": "MAX_ASSETS",
      "outputs": [
        {
          "internalType": "uint256",
          "name": "",
          "type": "uint256"
        }
      ],
      "stateMutability": "view",
      "type": "function"
    },
    {
      "inputs": [
        {
          "internalType": "uint256",
          "name": "",
          "type": "uint256"
        }
      ],
      "name": "allBalancers",
      "outputs": [
        {
          "internalType": "address",
          "name": "",
          "type": "address"
        }
      ],
      "stateMutability": "view",
      "type": "function"
    },
    {
      "inputs": [],
      "name": "balancerCount",
      "outputs": [
        {
          "internalType": "uint256",
          "name": "",
          "type": "uint256"
        }
      ],
      "stateMutability": "view",
      "type": "function"
    },
    {
      "inputs": [
        {
          "internalType": "address[]",
          "name": "assets",
          "type": "address[]"
        },
        {
          "internalType": "uint256[]",
          "name": "targetPercBps",
          "type": "uint256[]"
        },
        {
          "internalType": "uint256[]",
          "name": "initialDepositAmounts",
          "type": "uint256[]"
        },
        {
          "components": [
            {
              "internalType": "address",
              "name": "token",
              "type": "address"
            },
            {
              "internalType": "uint256",
              "name": "value",
              "type": "uint256"
            },
            {
              "internalType": "uint256",
              "name": "deadline",
              "type": "uint256"
            },
            {
              "internalType": "uint8",
              "name": "v",
              "type": "uint8"
            },
            {
              "internalType": "bytes32",
              "name": "r",
              "type": "bytes32"
            },
            {
              "internalType": "bytes32",
              "name": "s",
              "type": "bytes32"
            }
          ],
          "internalType": "struct BalancerFactory.PermitInput[]",
          "name": "permits",
          "type": "tuple[]"
        }
      ],
      "name": "createBalancer",
      "outputs": [
        {
          "internalType": "address",
          "name": "balancerAddr",
          "type": "address"
        }
      ],
      "stateMutability": "nonpayable",
      "type": "function"
    },
    {
      "inputs": [
        {
          "internalType": "address",
          "name": "user",
          "type": "address"
        }
      ],
      "name": "getUserBalancers",
      "outputs": [
        {
          "internalType": "address[]",
          "name": "",
          "type": "address[]"
        }
      ],
      "stateMutability": "view",
      "type": "function"
    },
    {
      "inputs": [],
      "name": "implementation",
      "outputs": [
        {
          "internalType": "address",
          "name": "",
          "type": "address"
        }
      ],
      "stateMutability": "view",
      "type": "function"
    },
    {
      "inputs": [],
      "name": "owner",
      "outputs": [
        {
          "internalType": "address",
          "name": "",
          "type": "address"
        }
      ],
      "stateMutability": "view",
      "type": "function"
    },
    {
      "inputs": [],
      "name": "renounceOwnership",
      "outputs": [],
      "stateMutability": "nonpayable",
      "type": "function"
    },
    {
      "inputs": [
        {
          "internalType": "address",
          "name": "newOwner",
          "type": "address"
        }
      ],
      "name": "transferOwnership",
      "outputs": [],
      "stateMutability": "nonpayable",
      "type": "function"
    },
    {
      "inputs": [
        {
          "internalType": "address",
          "name": "",
          "type": "address"
        },
        {
          "internalType": "uint256",
          "name": "",
          "type": "uint256"
        }
      ],
      "name": "userBalancers",
      "outputs": [
        {
          "internalType": "address",
          "name": "",
          "type": "address"
        }
      ],
      "stateMutability": "view",
      "type": "function"
    }
  ],
  "transactionHash": "0x7bbb11d6a51f5b0d1d72ab00d7e3fa265218d9210074a46800377480a5b442a6",
  "args": [
    "0xb9C155122BcB683EB7d39E980daf811C62203292"
  ],
  "numDeployments": 1,
  "solcInputHash": "dd4d042c84473f10bc0507669b57717e",
  "bytecode": "0x60a03461010557601f610ee638819003918201601f19168301916001600160401b0383118484101761010a5780849260209460405283398101031261010557516001600160a01b038082168083036101055733156100ec576000543360018060a01b0319821617600055604051923391167f8be0079c531659141344cd1fd0a4f28419497f9722a3daafe3b4186f6b6457e0600080a360018055156100c15750608052604051610dc5908161012182396080518181816102bb0152610b400152f35b62461bcd60e51b81526020600482015260066024820152650696d706c3d360d41b6044820152606490fd5b604051631e4fbdf760e01b815260006004820152602490fd5b600080fd5b634e487b7160e01b600052604160045260246000fdfe608080604052600436101561001357600080fd5b60003560e01c90816332bb00fb14610b6f575080635c60da1b14610b2a578063715018a614610ad1578063735d993014610a7657806376b1d08f14610a5b5780638da5cb5b14610a3257806399368bce14610197578063cf6bf1491461013e578063f2fde38b146100b05763f923d3601461008d57600080fd5b346100ab5760003660031901126100ab576020600254604051908152f35b600080fd5b346100ab5760203660031901126100ab576100c9610c1f565b6100d1610d00565b6001600160a01b0390811690811561012557600054826bffffffffffffffffffffffff60a01b821617600055167f8be0079c531659141344cd1fd0a4f28419497f9722a3daafe3b4186f6b6457e0600080a3005b604051631e4fbdf760e01b815260006004820152602490fd5b346100ab5760403660031901126100ab57610157610c1f565b6024359060018060a01b038091166000526003602052604060002080548310156100ab5760209261018791610c35565b90549060031b1c16604051908152f35b346100ab5760803660031901126100ab5760043567ffffffffffffffff81116100ab576101c8903690600401610c4d565b60243567ffffffffffffffff81116100ab576101e8903690600401610c4d565b9260443567ffffffffffffffff81116100ab57610209903690600401610c4d565b909467ffffffffffffffff606435116100ab573660236064350112156100ab5767ffffffffffffffff60643560040135116100ab5736602460c060643560040135026064350101116100ab57600260015414610a20576002600155808514801590610a16575b610a0457846064356004013503610a0457602085116109eb5760005b858110610922575060005b8581106108a2575060005b8581106106b657506e5af43d82803e903d91602b57fd5bf37f0000000000000000000000000000000000000000000000000000000000000000763d602d80600a3d3981f3363d3d373d3d3d363d7300000062ffffff8260881c161760005260781b1760205260018060a01b03603760096000f0169384156106a45761032586610ce8565b906103336040519283610c92565b86825261033f87610ce8565b601f1901366020840137853b156100ab5760405163a7d1195d60e01b815233600482015260806024820152608481018890529260a48401908660005b8a81106106725750508482036003190160448601528082526001600160fb1b0381116100ab57908493929160051b80926020830137016020604081830192601c86820301606487015284518094520192019060005b818110610659575050509080600092038183885af1801561064d5761063e575b5060005b84811061050957505050600254916801000000000000000092838110156104dd5760018101806002558110156104f3577f405787fa12a823e0f2b7631cc41b3ba8828b3321ca811111fa75cd3aa3bb5ace01826bffffffffffffffffffffffff60a01b82541617905533600052600360205260406000208054938410156104dd5783610487916001602096018155610c35565b81549060031b9084821b9160018060a01b03901b191617905560405190828252838201527ff12e8bf1858a6ebfd93bbf97428cfea92f01699f92a63bfb6270e598deda3ba160403392a260018055604051908152f35b634e487b7160e01b600052604160045260246000fd5b634e487b7160e01b600052603260045260246000fd5b610514818388610cb4565b358015610635576001600160a01b03610536610531848988610cb4565b610cc4565b1690604051906323b872dd60e01b60208301523360248301528660448301526064820152606481528060a081011067ffffffffffffffff60a0830111176104dd5760008160a082930160405260208151910182855af13d15610629573d67ffffffffffffffff81116104dd576105cf91604051916105be6020601f19601f8401160184610c92565b82523d6000602084013e5b83610d2c565b8051908115159182610605575b50506105ed57506001905b016103f4565b60249060405190635274afe760e01b82526004820152fd5b81925090602091810103126100ab57602001518015908115036100ab5788806105dc565b6105cf906060906105c9565b506001906105e7565b61064790610c7e565b856103f0565b6040513d6000823e3d90fd5b82518452859450602093840193909201916001016103d0565b90928335906001600160a01b03821682036100ab576001600160a01b039091168152602090810193019060010161037b565b6040516330be1a3d60e21b8152600490fd5b6106c1818489610cb4565b358015610899576106d6610531838988610cb4565b6106ec8360643560040135602460643501610cd8565b60608101359060ff821682036100ab576001600160a01b0383163b156100ab576040805163d505accf60e01b81523360048201523060248201526020830135604482015290820135606482015260ff929092166084830152608081013560a483015260a0013560c482015260008160e481836001600160a01b0387165af1801561064d5761088a575b50604051636eb1769f60e11b81523360048201523060248201526020816044816001600160a01b0386165afa801561064d578391600091610855575b5010610843576040516370a0823160e01b815233600482015290602090829060249082906001600160a01b03165afa90811561064d57600091610811575b50106107ff576001905b016102a1565b604051631e9acf1760e31b8152600490fd5b90506020813d60201161083b575b8161082c60209383610c92565b810103126100ab5751896107ef565b3d915061081f565b60405163505eeee960e11b8152600490fd5b9150506020813d602011610882575b8161087160209383610c92565b810103126100ab578290518b6107b1565b3d9150610864565b61089390610c7e565b89610775565b506001906107f9565b6108ad818489610cb4565b358015610919576108c2610531838988610cb4565b6108d88360643560040135602460643501610cd8565b906108e282610cc4565b6001600160a01b03918216911603610907576020013510610843576001905b01610296565b6040516358215db360e01b8152600490fd5b50600190610901565b6001600160a01b03610938610531838988610cb4565b161580156109d5575b6109c55760005b818110610958575060010161028b565b610966610531828988610cb4565b6001600160a01b0361097c610531858b8a610cb4565b6001600160a01b0390921691161461099657600101610948565b60246109a6610531848a89610cb4565b6040516337bce3c560e11b81526001600160a01b039091166004820152fd5b6109a66105316024928887610cb4565b506109e4610531828887610cb4565b3b15610941565b60405163aed3fa0d60e01b815260206004820152602490fd5b60405163512509d360e11b8152600490fd5b508185141561026f565b604051633ee5aeb560e01b8152600490fd5b346100ab5760003660031901126100ab576000546040516001600160a01b039091168152602090f35b346100ab5760003660031901126100ab576020604051818152f35b346100ab5760203660031901126100ab576004356002548110156100ab5760026000527f405787fa12a823e0f2b7631cc41b3ba8828b3321ca811111fa75cd3aa3bb5ace01546040516001600160a01b039091168152602090f35b346100ab5760003660031901126100ab57610aea610d00565b600080546001600160a01b0319811682556001600160a01b03167f8be0079c531659141344cd1fd0a4f28419497f9722a3daafe3b4186f6b6457e08280a3005b346100ab5760003660031901126100ab576040517f00000000000000000000000000000000000000000000000000000000000000006001600160a01b03168152602090f35b346100ab576020806003193601126100ab576001600160a01b03919082610b94610c1f565b16600052600381526040600020908154808452818401908193600052826000209060005b818110610c095750505083610bce910384610c92565b60405192818401908285525180915260408401929160005b828110610bf35785850386f35b8351871685529381019392810192600101610be6565b8254881684529284019260019283019201610bb8565b600435906001600160a01b03821682036100ab57565b80548210156104f35760005260206000200190600090565b9181601f840112156100ab5782359167ffffffffffffffff83116100ab576020808501948460051b0101116100ab57565b67ffffffffffffffff81116104dd57604052565b90601f8019910116810190811067ffffffffffffffff8211176104dd57604052565b91908110156104f35760051b0190565b356001600160a01b03811681036100ab5790565b91908110156104f35760c0020190565b67ffffffffffffffff81116104dd5760051b60200190565b6000546001600160a01b03163303610d1457565b60405163118cdaa760e01b8152336004820152602490fd5b90610d535750805115610d4157805190602001fd5b604051630a12f52160e11b8152600490fd5b81511580610d86575b610d64575090565b604051639996b31560e01b81526001600160a01b039091166004820152602490fd5b50803b15610d5c56fea26469706673582212209e28fd4136ab20957ebf78b37037521d454fcde80a558ff309e02b6b55a732d664736f6c63430008170033"
}