{
  "address": "0xb9C155122BcB683EB7d39E980daf811C62203292",
  "abi": [
    {
      "inputs": [
        {
          "internalType": "address",
          "name": "target",
          "type": "address"
        }
      ],
      "name": "AddressEmptyCode",
      "type": "error"
    },
    {
      "inputs": [
        {
          "internalType": "address",
          "name": "account",
          "type": "address"
        }
      ],
      "name": "AddressInsufficientBalance",
      "type": "error"
    },
    {
      "inputs": [],
      "name": "AlreadyInitialized",
      "type": "error"
    },
    {
      "inputs": [],
      "name": "ArrayLengthMismatch",
      "type": "error"
    },
    {
      "inputs": [],
      "name": "BadSignature",
      "type": "error"
    },
    {
      "inputs": [
        {
          "internalType": "address",
          "name": "token",
          "type": "address"
        }
      ],
      "name": "DuplicateAsset",
      "type": "error"
    },
    {
      "inputs": [],
      "name": "EnforcedPause",
      "type": "error"
    },
    {
      "inputs": [],
      "name": "ExpectedPause",
      "type": "error"
    },
    {
      "inputs": [],
      "name": "Expired",
      "type": "error"
    },
    {
      "inputs": [],
      "name": "FailedInnerCall",
      "type": "error"
    },
    {
      "inputs": [],
      "name": "InvalidAsset",
      "type": "error"
    },
    {
      "inputs": [
        {
          "internalType": "uint256",
          "name": "sum",
          "type": "uint256"
        }
      ],
      "name": "InvalidTargetsSum",
      "type": "error"
    },
    {
      "inputs": [
        {
          "internalType": "uint256",
          "name": "max",
          "type": "uint256"
        }
      ],
      "name": "MaxAssetsExceeded",
      "type": "error"
    },
    {
      "inputs": [
        {
          "internalType": "uint256",
          "name": "max",
          "type": "uint256"
        }
      ],
      "name": "MaxDeltasExceeded",
      "type": "error"
    },
    {
      "inputs": [],
      "name": "ReentrancyGuardReentrantCall",
      "type": "error"
    },
    {
      "inputs": [
        {
          "internalType": "address",
          "name": "token",
          "type": "address"
        }
      ],
      "name": "SafeERC20FailedOperation",
      "type": "error"
    },
    {
      "inputs": [],
      "name": "ZeroAddress",
      "type": "error"
    },
    {
      "anonymous": false,
      "inputs": [
        {
          "indexed": false,
          "internalType": "bool",
          "name": "allowed",
          "type": "bool"
        }
      ],
      "name": "Allow1271Updated",
      "type": "event"
    },
    {
      "anonymous": false,
      "inputs": [
        {
          "indexed": false,
          "internalType": "address[]",
          "name": "assets",
          "type": "address[]"
        },
        {
          "indexed": false,
          "internalType": "uint256[]",
          "name": "targetPercBps",
          "type": "uint256[]"
        },
        {
          "indexed": false,
          "internalType": "uint256[]",
          "name": "deposits",
          "type": "uint256[]"
        }
      ],
      "name": "AssetsInitialized",
      "type": "event"
    },
    {
      "anonymous": false,
      "inputs": [
        {
          "indexed": true,
          "internalType": "address",
          "name": "previousOwner",
          "type": "address"
        },
        {
          "indexed": true,
          "internalType": "address",
          "name": "newOwner",
          "type": "address"
        }
      ],
      "name": "OwnershipTransferred",
      "type": "event"
    },
    {
      "anonymous": false,
      "inputs": [
        {
          "indexed": false,
          "internalType": "address",
          "name": "account",
          "type": "address"
        }
      ],
      "name": "Paused",
      "type": "event"
    },
    {
      "anonymous": false,
      "inputs": [
        {
          "indexed": true,
          "internalType": "uint256",
          "name": "nonce",
          "type": "uint256"
        },
        {
          "indexed": false,
          "internalType": "address",
          "name": "executor",
          "type": "address"
        },
        {
          "components": [
            {
              "internalType": "address",
              "name": "token",
              "type": "address"
            },
            {
              "internalType": "int256",
              "name": "percentageDelta",
              "type": "int256"
            },
            {
              "internalType": "uint256",
              "name": "newPercentage",
              "type": "uint256"
            },
            {
              "internalType": "uint256",
              "name": "amount",
              "type": "uint256"
            },
            {
              "internalType": "bool",
              "name": "isDeposit",
              "type": "bool"
            }
          ],
          "indexed": false,
          "internalType": "struct Balancer.OrderDelta[]",
          "name": "deltas",
          "type": "tuple[]"
        }
      ],
      "name": "ProposalExecuted",
      "type": "event"
    },
    {
      "anonymous": false,
      "inputs": [
        {
          "indexed": true,
          "internalType": "address",
          "name": "previousSigner",
          "type": "address"
        },
        {
          "indexed": true,
          "internalType": "address",
          "name": "newSigner",
          "type": "address"
        }
      ],
      "name": "SignerUpdated",
      "type": "event"
    },
    {
      "anonymous": false,
      "inputs": [
        {
          "indexed": false,
          "internalType": "uint256",
          "name": "sum",
          "type": "uint256"
        }
      ],
      "name": "TargetsSumOutOfRange",
      "type": "event"
    },
    {
      "anonymous": false,
      "inputs": [
        {
          "indexed": false,
          "internalType": "address",
          "name": "account",
          "type": "address"
        }
      ],
      "name": "Unpaused",
      "type": "event"
    },
    {
      "inputs": [],
      "name": "DOMAIN_SEPARATOR",
      "outputs": [
        {
          "internalType": "bytes32",
          "name": "",
          "type": "bytes32"
        }
      ],
      "stateMutability": "view",
      "type": "function"
    },
    {
      "inputs": [],
      "name": "EIP712_NAME",
      "outputs": [
        {
          "internalType": "string",
          "name": "",
          "type": "string"
        }
      ],
      "stateMutability": "view",
      "type": "function"
    },
    {
      "inputs": [],
      "name": "EIP712_VERSION",
      "outputs": [
        {
          "internalType": "string",
          "name": "",
          "type": "string"
        }
      ],
      "stateMutability": "view",
      "type": "function"
    },
    {
      "inputs": [],
      "name": "MAX_ASSETS",
      "outputs": [
        {
          "internalType": "uint256",
          "name": "",
          "type": "uint256"
        }
      ],
      "stateMutability": "view",
      "type": "function"
    },
    {
      "inputs": [],
      "name": "MAX_DELTAS",
      "outputs": [
        {
          "internalType": "uint256",
          "name": "",
          "type": "uint256"
        }
      ],
      "stateMutability": "view",
      "type": "function"
    },
    {
      "inputs": [],
      "name": "allow1271",
      "outputs": [
        {
          "internalType": "bool",
          "name": "",
          "type": "bool"
        }
      ],
      "stateMutability": "view",
      "type": "function"
    },
    {
      "inputs": [],
      "name": "assetCount",
      "outputs": [
        {
          "internalType": "uint256",
          "name": "",
          "type": "uint256"
        }
      ],
      "stateMutability": "view",
      "type": "function"
    },
    {
      "inputs": [
        {
          "internalType": "uint256",
          "name": "",
          "type": "uint256"
        }
      ],
      "name": "assets",
      "outputs": [
        {
          "internalType": "address",
          "name": "",
          "type": "address"
        }
      ],
      "stateMutability": "view",
      "type": "function"
    },
    {
      "inputs": [],
      "name": "authorizedSigner",
      "outputs": [
        {
          "internalType": "address",
          "name": "",
          "type": "address"
        }
      ],
      "stateMutability": "view",
      "type": "function"
    },
    {
      "inputs": [],
      "name": "domainSeparator",
      "outputs": [
        {
          "internalType": "bytes32",
          "name": "",
          "type": "bytes32"
        }
      ],
      "stateMutability": "view",
      "type": "function"
    },
    {
      "inputs": [],
      "name": "enforceTargetSum",
      "outputs": [
        {
          "internalType": "bool",
          "name": "",
          "type": "bool"
        }
      ],
      "stateMutability": "view",
      "type": "function"
    },
    {
      "inputs": [
        {
          "components": [
            {
              "internalType": "address",
              "name": "token",
              "type": "address"
            },
            {
              "internalType": "int256",
              "name": "percentageDelta",
              "type": "int256"
            },
            {
              "internalType": "uint256",
              "name": "newPercentage",
              "type": "uint256"
            },
            {
              "internalType": "uint256",
              "name": "amount",
              "type": "uint256"
            },
            {
              "internalType": "bool",
              "name": "isDeposit",
              "type": "bool"
            }
          ],
          "internalType": "struct Balancer.OrderDelta[]",
          "name": "deltas",
          "type": "tuple[]"
        },
        {
          "internalType": "uint256",
          "name": "deadline",
          "type": "uint256"
        },
        {
          "internalType": "bytes",
          "name": "signature",
          "type": "bytes"
        }
      ],
      "name": "executeSignedRebalance",
      "outputs": [],
      "stateMutability": "nonpayable",
      "type": "function"
    },
    {
      "inputs": [],
      "name": "getPortfolio",
      "outputs": [
        {
          "internalType": "address[]",
          "name": "tokens",
          "type": "address[]"
        },
        {
          "internalType": "uint256[]",
          "name": "targetBps",
          "type": "uint256[]"
        }
      ],
      "stateMutability": "view",
      "type": "function"
    },
    {
      "inputs": [
        {
          "components": [
            {
              "internalType": "address",
              "name": "token",
              "type": "address"
            },
            {
              "internalType": "int256",
              "name": "percentageDelta",
              "type": "int256"
            },
            {
              "internalType": "uint256",
              "name": "newPercentage",
              "type": "uint256"
            },
            {
              "internalType": "uint256",
              "name": "amount",
              "type": "uint256"
            },
            {
              "internalType": "bool",
              "name": "isDeposit",
              "type": "bool"
            }
          ],
          "internalType": "struct Balancer.OrderDelta",
          "name": "d",
          "type": "tuple"
        }
      ],
      "name": "hashOrderDelta",
      "outputs": [
        {
          "internalType": "bytes32",
          "name": "",
          "type": "bytes32"
        }
      ],
      "stateMutability": "pure",
      "type": "function"
    },
    {
      "inputs": [
        {
          "components": [
            {
              "internalType": "address",
              "name": "token",
              "type": "address"
            },
            {
              "internalType": "int256",
              "name": "percentageDelta",
              "type": "int256"
            },
            {
              "internalType": "uint256",
              "name": "newPercentage",
              "type": "uint256"
            },
            {
              "internalType": "uint256",
              "name": "amount",
              "type": "uint256"
            },
            {
              "internalType": "bool",
              "name": "isDeposit",
              "type": "bool"
            }
          ],
          "internalType": "struct Balancer.OrderDelta[]",
          "name": "deltas",
          "type": "tuple[]"
        },
        {
          "internalType": "uint256",
          "name": "_nonce",
          "type": "uint256"
        },
        {
          "internalType": "uint256",
          "name": "deadline",
          "type": "uint256"
        }
      ],
      "name": "hashProposal",
      "outputs": [
        {
          "internalType": "bytes32",
          "name": "",
          "type": "bytes32"
        }
      ],
      "stateMutability": "pure",
      "type": "function"
    },
    {
      "inputs": [
        {
          "internalType": "address",
          "name": "newOwner",
          "type": "address"
        },
        {
          "internalType": "address[]",
          "name": "_assets",
          "type": "address[]"
        },
        {
          "internalType": "uint256[]",
          "name": "_targetPercentageBps",
          "type": "uint256[]"
        },
        {
          "internalType": "uint256[]",
          "name": "_initialDepositAmounts",
          "type": "uint256[]"
        }
      ],
      "name": "initialize",
      "outputs": [],
      "stateMutability": "nonpayable",
      "type": "function"
    },
    {
      "inputs": [
        {
          "internalType": "address",
          "name": "",
          "type": "address"
        }
      ],
      "name": "isAsset",
      "outputs": [
        {
          "internalType": "bool",
          "name": "",
          "type": "bool"
        }
      ],
      "stateMutability": "view",
      "type": "function"
    },
    {
      "inputs": [
        {
          "internalType": "bytes32",
          "name": "_hash",
          "type": "bytes32"
        },
        {
          "internalType": "bytes",
          "name": "_signature",
          "type": "bytes"
        }
      ],
      "name": "isValidSignature",
      "outputs": [
        {
          "internalType": "bytes4",
          "name": "",
          "type": "bytes4"
        }
      ],
      "stateMutability": "view",
      "type": "function"
    },
    {
      "inputs": [],
      "name": "lastRebalanceTimestamp",
      "outputs": [
        {
          "internalType": "uint256",
          "name": "",
          "type": "uint256"
        }
      ],
      "stateMutability": "view",
      "type": "function"
    },
    {
      "inputs": [],
      "name": "nonce",
      "outputs": [
        {
          "internalType": "uint256",
          "name": "",
          "type": "uint256"
        }
      ],
      "stateMutability": "view",
      "type": "function"
    },
    {
      "inputs": [],
      "name": "owner",
      "outputs": [
        {
          "internalType": "address",
          "name": "",
          "type": "address"
        }
      ],
      "stateMutability": "view",
      "type": "function"
    },
    {
      "inputs": [],
      "name": "pause",
      "outputs": [],
      "stateMutability": "nonpayable",
      "type": "function"
    },
    {
      "inputs": [],
      "name": "paused",
      "outputs": [
        {
          "internalType": "bool",
          "name": "",
          "type": "bool"
        }
      ],
      "stateMutability": "view",
      "type": "function"
    },
    {
      "inputs": [
        {
          "internalType": "bool",
          "name": "allowed",
          "type": "bool"
        }
      ],
      "name": "setAllow1271",
      "outputs": [],
      "stateMutability": "nonpayable",
      "type": "function"
    },
    {
      "inputs": [
        {
          "internalType": "bool",
          "name": "enforce",
          "type": "bool"
        }
      ],
      "name": "setEnforceTargetSum",
      "outputs": [],
      "stateMutability": "nonpayable",
      "type": "function"
    },
    {
      "inputs": [
        {
          "internalType": "address",
          "name": "",
          "type": "address"
        }
      ],
      "name": "targetPercentageBps",
      "outputs": [
        {
          "internalType": "uint256",
          "name": "",
          "type": "uint256"
        }
      ],
      "stateMutability": "view",
      "type": "function"
    },
    {
      "inputs": [
        {
          "internalType": "address",
          "name": "newOwner",
          "type": "address"
        }
      ],
      "name": "transferOwnership",
      "outputs": [],
      "stateMutability": "nonpayable",
      "type": "function"
    },
    {
      "inputs": [],
      "name": "unpause",
      "outputs": [],
      "stateMutability": "nonpayable",
      "type": "function"
    },
    {
      "inputs": [
        {
          "internalType": "address",
          "name": "newSigner",
          "type": "address"
        }
      ],
      "name": "updateAuthorizedSigner",
      "outputs": [],
      "stateMutability": "nonpayable",
      "type": "function"
    }
  ],
  "transactionHash": "0xf46bf415aa669a112631a4b8f9cdd36294cc43c06d764c551e8c61f5f62588a4",
  "args": [],
  "numDeployments": 1,
  "solcInputHash": "3794c1e188b43c54f067b4c2a67e3690",
  "bytecode": "0x60806040526009805460ff60b01b1916600160b01b17905534801561002357600080fd5b5060016000819055805460ff191690556124db806100426000396000f3fe608060405234801561001057600080fd5b50600436106101cf5760003560e01c8063a7d1195d11610104578063cf35bdd0116100a2578063eccec5a811610071578063eccec5a8146103e5578063f27431e714610405578063f2fde38b14610418578063f698da251461042b57600080fd5b8063cf35bdd0146103a1578063d1b56227146103b4578063d3d03458146103c7578063eafe7a74146103dd57600080fd5b8063b83d8157116100de578063b83d81571461034f578063be50016814610358578063c771909c1461036b578063c87fa42a1461037e57600080fd5b8063a7d1195d1461031f578063affed0e014610332578063b42407ce1461033b57600080fd5b8063669ed93511610171578063837554781161014b57806383755478146102ba5780638456cb59146102da5780638da5cb5b146102e25780639dac56dd1461030c57600080fd5b8063669ed935146102975780637278cf59146102aa57806376b1d08f146102b257600080fd5b80633f4ba83a116101ad5780633f4ba83a1461024f5780635c975abb146102595780635eb9ab4f1461027057806361a3b9f01461028457600080fd5b80631626ba7e146101d45780633644e515146102055780633b2fb7a81461021b575b600080fd5b6101e76101e2366004611d7f565b610433565b6040516001600160e01b031990911681526020015b60405180910390f35b61020d6106a9565b6040519081526020016101fc565b610242604051806040016040528060088152602001672130b630b731b2b960c11b81525081565b6040516101fc9190611def565b6102576106b8565b005b60015460ff165b60405190151581526020016101fc565b60095461026090600160b01b900460ff1681565b610257610292366004611e30565b6106fa565b6102576102a5366004611e69565b610747565b61020d604081565b61020d602081565b61020d6102c8366004611e69565b60056020526000908152604090205481565b6102576107ef565b60015461010090046001600160a01b03165b6040516001600160a01b0390911681526020016101fc565b61025761031a366004611e30565b610826565b61025761032d366004611f5e565b6108ad565b61020d60085481565b60095461026090600160a81b900460ff1681565b61020d60075481565b61020d610366366004612055565b610ceb565b6009546102f4906001600160a01b031681565b61026061038c366004611e69565b60066020526000908152604090205460ff1681565b6102f46103af36600461206d565b610d91565b61020d6103c23660046120cb565b610dbb565b6103cf610dd2565b6040516101fc929190612192565b60045461020d565b610242604051806040016040528060018152602001603160f81b81525081565b6102576104133660046121b7565b610ef0565b610257610426366004611e69565b61153e565b61020d611579565b60008060006104788686868080601f01602080910402602001604051908101604052809392919081815260200183838082843760009201919091525061165b92505050565b509092509050600081600381111561049257610492612231565b1480156104c857506001546001600160a01b038381166101009092041614806104c857506009546001600160a01b038381169116145b156104df5750630b135d3f60e11b91506106a29050565b600954600160b01b900460ff16801561051857506001546105189061010090046001600160a01b03165b6001600160a01b03163b151590565b156105bf5760015461010090046001600160a01b03166001600160a01b0316631626ba7e8787876040518463ffffffff1660e01b815260040161055d93929190612247565b602060405180830381865afa925050508015610596575060408051601f3d908101601f191682019092526105939181019061227d565b60015b156105bf576374eca2c160e11b6001600160e01b03198216016105bd5792506106a2915050565b505b600954600160b01b900460ff1680156105e257506009546001600160a01b031615155b80156105f957506009546001600160a01b03163b15155b1561069457600954604051630b135d3f60e11b81526001600160a01b0390911690631626ba7e9061063290899089908990600401612247565b602060405180830381865afa92505050801561066b575060408051601f3d908101601f191682019092526106689181019061227d565b60015b15610694576374eca2c160e11b6001600160e01b03198216016106925792506106a2915050565b505b506001600160e01b03199150505b9392505050565b60006106b3611579565b905090565b60015461010090046001600160a01b031633146106f05760405162461bcd60e51b81526004016106e7906122a7565b60405180910390fd5b6106f86116a8565b565b60015461010090046001600160a01b031633146107295760405162461bcd60e51b81526004016106e7906122a7565b60098054911515600160a81b0260ff60a81b19909216919091179055565b60015461010090046001600160a01b031633146107765760405162461bcd60e51b81526004016106e7906122a7565b6001600160a01b03811661079d5760405163d92e233d60e01b815260040160405180910390fd5b600980546001600160a01b038381166001600160a01b0319831681179093556040519116919082907f2d025324f0a785e8c12d0a0d91a9caa49df4ef20ff87e0df7213a1d4f3157beb90600090a35050565b60015461010090046001600160a01b0316331461081e5760405162461bcd60e51b81526004016106e7906122a7565b6106f86116fa565b60015461010090046001600160a01b031633146108555760405162461bcd60e51b81526004016106e7906122a7565b60098054821515600160b01b0260ff60b01b199091161790556040517f42ff292db0e49addeabfbadb5817d9673f7a875d1d006822583544c5d036a621906108a290831515815260200190565b60405180910390a150565b600954600160a01b900460ff16156108d75760405162dc149f60e41b815260040160405180910390fd5b6009805460ff60a01b1916600160a01b1790556108f384611735565b8151835114158061090657508051835114155b156109245760405163512509d360e11b815260040160405180910390fd5b60208351111561094a5760405163aed3fa0d60e01b8152602060048201526024016106e7565b6000805b8451811015610b7057600085828151811061096b5761096b6122dc565b6020026020010151905060006001600160a01b0316816001600160a01b0316036109a85760405163d92e233d60e01b815260040160405180910390fd5b806001600160a01b03163b6000036109d357604051636448d6e960e11b815260040160405180910390fd5b60005b82811015610a3c57816001600160a01b03168782815181106109fa576109fa6122dc565b60200260200101516001600160a01b031603610a345760405163437a40b160e01b81526001600160a01b03831660048201526024016106e7565b6001016109d6565b506004805460018082019092557f8a35acfbc15ff81a39ae7d344fd709f28e8600b4aa8c65c6b64bfe7fe36bd19b0180546001600160a01b0319166001600160a01b0384169081179091556000908152600660205260409020805460ff191690911790558451859083908110610ab457610ab46122dc565b602002602001015160056000836001600160a01b03166001600160a01b0316815260200190815260200160002081905550848281518110610af757610af76122dc565b602002602001015183610b0a9190612308565b92506000848381518110610b2057610b206122dc565b60200260200101511115610b6757610b678730868581518110610b4557610b456122dc565b6020026020010151846001600160a01b03166117f4909392919063ffffffff16565b5060010161094e565b5042600755600980546001600160a01b0319166001600160a01b03871617905546600381905560408051808201825260088152672130b630b731b2b960c11b6020918201528151808301835260018152603160f81b9082015281517f8b73c3c69bb8fe3d512ecc4cf759cc79239f7b179b0ffacaa9a75d522b39400f918101919091527f080ac0997b950d52c0dbe3d09be6b60bd4073597dcc1116238cadeaeddd6293f918101919091527fc89efdaa54c0f20c7adf612882df0950f5a951637e0307cdcb4c672f298b8bc6606082015260808101919091523060a082015260c00160408051601f198184030181529082905280516020909101206002557f4f53ac031d4fe7e2706b2eb17a7c80a7863819c0fb6c71d807d9176f3b6fa14790610c9f9086908690869061231b565b60405180910390a18061271014610ce4576040518181527f8e745e244e51c16ba9d7227d94261d4932f1d670beccb4619ac308a71266ecaa9060200160405180910390a15b5050505050565b60007f507944c4a2331482d8a308351f4ac04a5f96237b108e686c1d7e33075ad48df3610d1b6020840184611e69565b602084013560408501356060860135610d3a60a0880160808901611e30565b6040805160208101979097526001600160a01b03909516948601949094526060850192909252608084015260a0830152151560c082015260e001604051602081830303815290604052805190602001209050919050565b60048181548110610da157600080fd5b6000918252602090912001546001600160a01b0316905081565b6000610dc985858585611861565b95945050505050565b6060806004805480602002602001604051908101604052809291908181526020018280548015610e2b57602002820191906000526020600020905b81546001600160a01b03168152600190910190602001808311610e0d575b5050600454939550505067ffffffffffffffff8211159050610e4f57610e4f611e84565b604051908082528060200260200182016040528015610e78578160200160208202803683370190505b50905060005b600454811015610eeb576005600060048381548110610e9f57610e9f6122dc565b60009182526020808320909101546001600160a01b031683528201929092526040019020548251839083908110610ed857610ed86122dc565b6020908102919091010152600101610e7e565b509091565b610ef8611a24565b610f00611a4e565b82421115610f2157604051630407b05b60e31b815260040160405180910390fd5b6040841115610f4757604080516357bfb3fb60e01b81526004016106e791815260200190565b6000610f57868660085487611861565b90506000610f63611579565b60405161190160f01b6020820152602281019190915260428101839052606201604051602081830303815290604052805190602001209050600080600080610fe18589898080601f01602080910402602001604051908101604052809392919081815260200183838082843760009201919091525061165b92505050565b5090945084925090506000816003811115610ffe57610ffe612231565b14801561103457506001546001600160a01b0383811661010090920416148061103457506009546001600160a01b038381169116145b1561103e57600192505b5050806111ef57600954600160b01b900460ff16801561107357506001546110739061010090046001600160a01b0316610509565b156111155760015461010090046001600160a01b03166001600160a01b0316631626ba7e8488886040518463ffffffff1660e01b81526004016110b893929190612247565b602060405180830381865afa9250505080156110f1575060408051601f3d908101601f191682019092526110ee9181019061227d565b60015b15611115576374eca2c160e11b6001600160e01b031982160161111357600191505b505b8015801561112c5750600954600160b01b900460ff165b801561114257506009546001600160a01b031615155b801561115957506009546001600160a01b03163b15155b156111ef57600954604051630b135d3f60e11b81526001600160a01b0390911690631626ba7e906111929086908a908a90600401612247565b602060405180830381865afa9250505080156111cb575060408051601f3d908101601f191682019092526111c89181019061227d565b60015b156111ef576374eca2c160e11b6001600160e01b03198216016111ed57600191505b505b8061120d57604051635cd5d23360e01b815260040160405180910390fd5b6008805490600061121d83612354565b90915550504260075560005b888110156113f457368a8a83818110611244576112446122dc565b60a0029190910191506006905060006112606020840184611e69565b6001600160a01b0316815260208101919091526040016000205460ff1661129a57604051636448d6e960e11b815260040160405180910390fd5b6040810135156112d9576040810135600560006112ba6020850185611e69565b6001600160a01b03168152602081019190915260400160002055611368565b6020810135156113685760006005816112f56020850185611e69565b6001600160a01b03166001600160a01b03168152602001908152602001600020549050600082602001358261132a919061236d565b90506000811215611339575060005b806005600061134b6020870187611e69565b6001600160a01b0316815260208101919091526040016000205550505b6060810135156113eb5761138260a0820160808301611e30565b156113b4576113af8430606084013561139e6020860186611e69565b6001600160a01b03169291906117f4565b6113eb565b6001546113eb9061010090046001600160a01b031660608301356113db6020850185611e69565b6001600160a01b03169190611a72565b50600101611229565b506000805b60045481101561145357600560006004838154811061141a5761141a6122dc565b60009182526020808320909101546001600160a01b031683528201929092526040019020546114499083612308565b91506001016113f9565b50600954600160a81b900460ff16801561146f57508061271014155b1561149057604051632034d5ad60e01b8152600481018290526024016106e7565b600954600160a81b900460ff161580156114ac57508061271014155b156114e5576040518181527f8e745e244e51c16ba9d7227d94261d4932f1d670beccb4619ac308a71266ecaa9060200160405180910390a15b60016008546114f49190612395565b7fc7da47883a0e724423bc819cb5237c240de1657791ca64962c54f9c1d55799af338c8c604051611527939291906123a8565b60405180910390a25050505050610ce46001600055565b60015461010090046001600160a01b0316331461156d5760405162461bcd60e51b81526004016106e7906122a7565b61157681611735565b50565b6000600354460361158b575060025490565b5060408051808201825260088152672130b630b731b2b960c11b6020918201528151808301835260018152603160f81b9082015281517f8b73c3c69bb8fe3d512ecc4cf759cc79239f7b179b0ffacaa9a75d522b39400f818301527f080ac0997b950d52c0dbe3d09be6b60bd4073597dcc1116238cadeaeddd6293f818401527fc89efdaa54c0f20c7adf612882df0950f5a951637e0307cdcb4c672f298b8bc660608201524660808201523060a0808301919091528351808303909101815260c0909101909252815191012090565b600080600083516041036116955760208401516040850151606086015160001a61168788828585611aa8565b9550955095505050506116a1565b50508151600091506002905b9250925092565b6116b0611b77565b6001805460ff191690557f5db9ee0a495bf2e6ff9c91a7834c1ba4fdd244a5e8aa4e537bd38aeae4b073aa335b6040516001600160a01b03909116815260200160405180910390a1565b611702611a4e565b6001805460ff1916811790557f62e78cea01bee320cd4e420270b5ea74000d11b0c9f74754ebdbfc544b05a258336116dd565b6001600160a01b03811661179a5760405162461bcd60e51b815260206004820152602660248201527f4f776e61626c653a206e6577206f776e657220697320746865207a65726f206160448201526564647265737360d01b60648201526084016106e7565b600180546001600160a01b03838116610100818102610100600160a81b031985161790945560405193909204169182907f8be0079c531659141344cd1fd0a4f28419497f9722a3daafe3b4186f6b6457e090600090a35050565b6040516001600160a01b03848116602483015283811660448301526064820183905261185b9186918216906323b872dd906084015b604051602081830303815290604052915060e01b6020820180516001600160e01b038381831617835250505050611b9a565b50505050565b6000808467ffffffffffffffff81111561187d5761187d611e84565b6040519080825280602002602001820160405280156118a6578160200160208202803683370190505b50905060005b8581101561199557368787838181106118c7576118c76122dc565b60a0029190910191507f507944c4a2331482d8a308351f4ac04a5f96237b108e686c1d7e33075ad48df390506119006020830183611e69565b60208301356040840135606085013561191f60a0870160808801611e30565b6040805160208101979097526001600160a01b03909516948601949094526060850192909252608084015260a0830152151560c082015260e00160405160208183030381529060405280519060200120838381518110611981576119816122dc565b6020908102919091010152506001016118ac565b506000816040516020016119a99190612436565b60408051601f1981840301815282825280516020918201207f3e4e05ca93cbfca12befd1933c0f022d0fb04689f83cf61366f1874fc44d810a918401919091529082018790526060820186905260808201819052915060a0016040516020818303038152906040528051906020012092505050949350505050565b600260005403611a4757604051633ee5aeb560e01b815260040160405180910390fd5b6002600055565b60015460ff16156106f85760405163d93c066560e01b815260040160405180910390fd5b6040516001600160a01b03838116602483015260448201839052611aa391859182169063a9059cbb90606401611829565b505050565b600080807f7fffffffffffffffffffffffffffffff5d576e7357a4501ddfe92f46681b20a0841115611ae35750600091506003905082611b6d565b604080516000808252602082018084528a905260ff891692820192909252606081018790526080810186905260019060a0016020604051602081039080840390855afa158015611b37573d6000803e3d6000fd5b5050604051601f1901519150506001600160a01b038116611b6357506000925060019150829050611b6d565b9250600091508190505b9450945094915050565b60015460ff166106f857604051638dfc202b60e01b815260040160405180910390fd5b6000611baf6001600160a01b03841683611bfd565b90508051600014158015611bd4575080806020019051810190611bd2919061246c565b155b15611aa357604051635274afe760e01b81526001600160a01b03841660048201526024016106e7565b6060611c0b83836000611c14565b90505b92915050565b606081471015611c395760405163cd78605960e01b81523060048201526024016106e7565b600080856001600160a01b03168486604051611c559190612489565b60006040518083038185875af1925050503d8060008114611c92576040519150601f19603f3d011682016040523d82523d6000602084013e611c97565b606091505b5091509150611ca7868383611cb1565b9695505050505050565b606082611cc657611cc182611d0d565b6106a2565b8151158015611cdd57506001600160a01b0384163b155b15611d0657604051639996b31560e01b81526001600160a01b03851660048201526024016106e7565b50806106a2565b805115611d1d5780518082602001fd5b604051630a12f52160e11b815260040160405180910390fd5b60008083601f840112611d4857600080fd5b50813567ffffffffffffffff811115611d6057600080fd5b602083019150836020828501011115611d7857600080fd5b9250929050565b600080600060408486031215611d9457600080fd5b83359250602084013567ffffffffffffffff811115611db257600080fd5b611dbe86828701611d36565b9497909650939450505050565b60005b83811015611de6578181015183820152602001611dce565b50506000910152565b6020815260008251806020840152611e0e816040850160208701611dcb565b601f01601f19169190910160400192915050565b801515811461157657600080fd5b600060208284031215611e4257600080fd5b81356106a281611e22565b80356001600160a01b0381168114611e6457600080fd5b919050565b600060208284031215611e7b57600080fd5b611c0b82611e4d565b634e487b7160e01b600052604160045260246000fd5b604051601f8201601f1916810167ffffffffffffffff81118282101715611ec357611ec3611e84565b604052919050565b600067ffffffffffffffff821115611ee557611ee5611e84565b5060051b60200190565b600082601f830112611f0057600080fd5b81356020611f15611f1083611ecb565b611e9a565b8083825260208201915060208460051b870101935086841115611f3757600080fd5b602086015b84811015611f535780358352918301918301611f3c565b509695505050505050565b60008060008060808587031215611f7457600080fd5b611f7d85611e4d565b935060208086013567ffffffffffffffff80821115611f9b57600080fd5b818801915088601f830112611faf57600080fd5b8135611fbd611f1082611ecb565b81815260059190911b8301840190848101908b831115611fdc57600080fd5b938501935b8285101561200157611ff285611e4d565b82529385019390850190611fe1565b97505050604088013592508083111561201957600080fd5b61202589848a01611eef565b9450606088013592508083111561203b57600080fd5b505061204987828801611eef565b91505092959194509250565b600060a0828403121561206757600080fd5b50919050565b60006020828403121561207f57600080fd5b5035919050565b60008083601f84011261209857600080fd5b50813567ffffffffffffffff8111156120b057600080fd5b60208301915083602060a083028501011115611d7857600080fd5b600080600080606085870312156120e157600080fd5b843567ffffffffffffffff8111156120f857600080fd5b61210487828801612086565b90989097506020870135966040013595509350505050565b60008151808452602080850194506020840160005b838110156121565781516001600160a01b031687529582019590820190600101612131565b509495945050505050565b60008151808452602080850194506020840160005b8381101561215657815187529582019590820190600101612176565b6040815260006121a5604083018561211c565b8281036020840152610dc98185612161565b6000806000806000606086880312156121cf57600080fd5b853567ffffffffffffffff808211156121e757600080fd5b6121f389838a01612086565b909750955060208801359450604088013591508082111561221357600080fd5b5061222088828901611d36565b969995985093965092949392505050565b634e487b7160e01b600052602160045260246000fd5b83815260406020820152816040820152818360608301376000818301606090810191909152601f909201601f1916010192915050565b60006020828403121561228f57600080fd5b81516001600160e01b0319811681146106a257600080fd5b6020808252818101527f4f776e61626c653a2063616c6c6572206973206e6f7420746865206f776e6572604082015260600190565b634e487b7160e01b600052603260045260246000fd5b634e487b7160e01b600052601160045260246000fd5b80820180821115611c0e57611c0e6122f2565b60608152600061232e606083018661211c565b82810360208401526123408186612161565b90508281036040840152611ca78185612161565b600060018201612366576123666122f2565b5060010190565b808201828112600083128015821682158216171561238d5761238d6122f2565b505092915050565b81810381811115611c0e57611c0e6122f2565b6001600160a01b0384811682526040602080840182905283820185905260009260609182860188865b8981101561242657846123e383611e4d565b16835283820135848401528682013587840152858201358684015260808083013561240d81611e22565b15159084015260a09283019291909101906001016123d1565b50909a9950505050505050505050565b815160009082906020808601845b8381101561246057815185529382019390820190600101612444565b50929695505050505050565b60006020828403121561247e57600080fd5b81516106a281611e22565b6000825161249b818460208701611dcb565b919091019291505056fea2646970667358221220250bfb654de3063ae031d07e4c49fb2f6f3a779b135593c1a0f6b6415ff4fa5e64736f6c63430008170033"
}