{
  "address": "0x4ed7c70F96B99c776995fB64377f0d4aB3B0e1C1",
  "abi": [
    {
      "inputs": [
        {
          "internalType": "address",
          "name": "_priceFeed",
          "type": "address"
        },
        {
          "internalType": "address[]",
          "name": "_stablecoins",
          "type": "address[]"
        },
        {
          "internalType": "address",
          "name": "_limitOrderProtocol",
          "type": "address"
        }
      ],
      "stateMutability": "nonpayable",
      "type": "constructor"
    },
    {
      "inputs": [],
      "name": "NoStablecoin",
      "type": "error"
    },
    {
      "inputs": [
        {
          "internalType": "address",
          "name": "owner",
          "type": "address"
        }
      ],
      "name": "OwnableInvalidOwner",
      "type": "error"
    },
    {
      "inputs": [
        {
          "internalType": "address",
          "name": "account",
          "type": "address"
        }
      ],
      "name": "OwnableUnauthorizedAccount",
      "type": "error"
    },
    {
      "anonymous": false,
      "inputs": [
        {
          "indexed": false,
          "internalType": "address",
          "name": "linkToken",
          "type": "address"
        },
        {
          "indexed": false,
          "internalType": "address",
          "name": "registrar",
          "type": "address"
        },
        {
          "indexed": false,
          "internalType": "address",
          "name": "registry",
          "type": "address"
        }
      ],
      "name": "AutomationAddressesSet",
      "type": "event"
    },
    {
      "anonymous": false,
      "inputs": [
        {
          "indexed": true,
          "internalType": "address",
          "name": "owner",
          "type": "address"
        },
        {
          "indexed": true,
          "internalType": "address",
          "name": "balancer",
          "type": "address"
        },
        {
          "indexed": false,
          "internalType": "bool",
          "name": "isTimeBased",
          "type": "bool"
        }
      ],
      "name": "BalancerCreated",
      "type": "event"
    },
    {
      "anonymous": false,
      "inputs": [
        {
          "indexed": true,
          "internalType": "address",
          "name": "logger",
          "type": "address"
        },
        {
          "indexed": true,
          "internalType": "address",
          "name": "targetBalancer",
          "type": "address"
        }
      ],
      "name": "DriftLoggerDeployed",
      "type": "event"
    },
    {
      "anonymous": false,
      "inputs": [
        {
          "indexed": false,
          "internalType": "address",
          "name": "limitOrderProtocol",
          "type": "address"
        }
      ],
      "name": "LimitOrderProtocolUpdated",
      "type": "event"
    },
    {
      "anonymous": false,
      "inputs": [
        {
          "indexed": true,
          "internalType": "address",
          "name": "previousOwner",
          "type": "address"
        },
        {
          "indexed": true,
          "internalType": "address",
          "name": "newOwner",
          "type": "address"
        }
      ],
      "name": "OwnershipTransferred",
      "type": "event"
    },
    {
      "anonymous": false,
      "inputs": [
        {
          "indexed": false,
          "internalType": "address",
          "name": "priceFeed",
          "type": "address"
        }
      ],
      "name": "PriceFeedUpdated",
      "type": "event"
    },
    {
      "anonymous": false,
      "inputs": [
        {
          "indexed": false,
          "internalType": "address[]",
          "name": "stablecoins",
          "type": "address[]"
        }
      ],
      "name": "StablecoinsSet",
      "type": "event"
    },
    {
      "anonymous": false,
      "inputs": [
        {
          "indexed": true,
          "internalType": "address",
          "name": "balancer",
          "type": "address"
        },
        {
          "indexed": true,
          "internalType": "uint256",
          "name": "upkeepId",
          "type": "uint256"
        },
        {
          "indexed": false,
          "internalType": "address",
          "name": "forwarder",
          "type": "address"
        }
      ],
      "name": "UpkeepRegistered",
      "type": "event"
    },
    {
      "inputs": [],
      "name": "automationRegistrar",
      "outputs": [
        {
          "internalType": "address",
          "name": "",
          "type": "address"
        }
      ],
      "stateMutability": "view",
      "type": "function"
    },
    {
      "inputs": [],
      "name": "automationRegistry",
      "outputs": [
        {
          "internalType": "address",
          "name": "",
          "type": "address"
        }
      ],
      "stateMutability": "view",
      "type": "function"
    },
    {
      "inputs": [
        {
          "internalType": "address",
          "name": "",
          "type": "address"
        }
      ],
      "name": "balancerToUpkeepId",
      "outputs": [
        {
          "internalType": "uint256",
          "name": "",
          "type": "uint256"
        }
      ],
      "stateMutability": "view",
      "type": "function"
    },
    {
      "inputs": [
        {
          "internalType": "address",
          "name": "diaPushOracle",
          "type": "address"
        },
        {
          "internalType": "address",
          "name": "targetBalancer",
          "type": "address"
        },
        {
          "internalType": "string[]",
          "name": "keys",
          "type": "string[]"
        },
        {
          "internalType": "uint256[]",
          "name": "thresholdsBps",
          "type": "uint256[]"
        },
        {
          "internalType": "uint32",
          "name": "gasLimit",
          "type": "uint32"
        },
        {
          "internalType": "uint96",
          "name": "amountLinkWei",
          "type": "uint96"
        },
        {
          "internalType": "address",
          "name": "emittingContract",
          "type": "address"
        },
        {
          "internalType": "bytes32",
          "name": "topic0",
          "type": "bytes32"
        },
        {
          "internalType": "uint8",
          "name": "filterSelector",
          "type": "uint8"
        },
        {
          "internalType": "bytes32",
          "name": "topic1",
          "type": "bytes32"
        },
        {
          "internalType": "bytes32",
          "name": "topic2",
          "type": "bytes32"
        },
        {
          "internalType": "bytes32",
          "name": "topic3",
          "type": "bytes32"
        }
      ],
      "name": "createAndRegisterDriftBalancerLogger",
      "outputs": [
        {
          "internalType": "address",
          "name": "logger",
          "type": "address"
        },
        {
          "internalType": "uint256",
          "name": "upkeepId",
          "type": "uint256"
        }
      ],
      "stateMutability": "nonpayable",
      "type": "function"
    },
    {
      "inputs": [
        {
          "internalType": "address[]",
          "name": "_assetAddresses",
          "type": "address[]"
        },
        {
          "internalType": "uint256[]",
          "name": "_percentages",
          "type": "uint256[]"
        },
        {
          "internalType": "uint256[]",
          "name": "_amounts",
          "type": "uint256[]"
        },
        {
          "internalType": "uint256",
          "name": "_driftPercentage",
          "type": "uint256"
        },
        {
          "internalType": "string",
          "name": "_name",
          "type": "string"
        },
        {
          "internalType": "string",
          "name": "_description",
          "type": "string"
        }
      ],
      "name": "createDriftBalancer",
      "outputs": [
        {
          "internalType": "address",
          "name": "balancer",
          "type": "address"
        }
      ],
      "stateMutability": "nonpayable",
      "type": "function"
    },
    {
      "inputs": [
        {
          "internalType": "address",
          "name": "diaPushOracle",
          "type": "address"
        },
        {
          "internalType": "address",
          "name": "targetBalancer",
          "type": "address"
        },
        {
          "internalType": "string[]",
          "name": "keys",
          "type": "string[]"
        },
        {
          "internalType": "uint256[]",
          "name": "thresholdsBps",
          "type": "uint256[]"
        }
      ],
      "name": "createDriftBalancerLogger",
      "outputs": [
        {
          "internalType": "address",
          "name": "logger",
          "type": "address"
        }
      ],
      "stateMutability": "nonpayable",
      "type": "function"
    },
    {
      "inputs": [
        {
          "internalType": "address[]",
          "name": "_assetAddresses",
          "type": "address[]"
        },
        {
          "internalType": "uint256[]",
          "name": "_percentages",
          "type": "uint256[]"
        },
        {
          "internalType": "uint256[]",
          "name": "_amounts",
          "type": "uint256[]"
        },
        {
          "internalType": "uint256",
          "name": "interval",
          "type": "uint256"
        },
        {
          "internalType": "string",
          "name": "_name",
          "type": "string"
        },
        {
          "internalType": "string",
          "name": "_description",
          "type": "string"
        }
      ],
      "name": "createTimeBalancer",
      "outputs": [
        {
          "internalType": "address",
          "name": "balancer",
          "type": "address"
        }
      ],
      "stateMutability": "nonpayable",
      "type": "function"
    },
    {
      "inputs": [],
      "name": "limitOrderProtocol",
      "outputs": [
        {
          "internalType": "contract ILimitOrderProtocol",
          "name": "",
          "type": "address"
        }
      ],
      "stateMutability": "view",
      "type": "function"
    },
    {
      "inputs": [],
      "name": "linkToken",
      "outputs": [
        {
          "internalType": "contract LinkTokenInterface",
          "name": "",
          "type": "address"
        }
      ],
      "stateMutability": "view",
      "type": "function"
    },
    {
      "inputs": [],
      "name": "owner",
      "outputs": [
        {
          "internalType": "address",
          "name": "",
          "type": "address"
        }
      ],
      "stateMutability": "view",
      "type": "function"
    },
    {
      "inputs": [],
      "name": "priceFeed",
      "outputs": [
        {
          "internalType": "address",
          "name": "",
          "type": "address"
        }
      ],
      "stateMutability": "view",
      "type": "function"
    },
    {
      "inputs": [
        {
          "internalType": "address",
          "name": "balancer",
          "type": "address"
        }
      ],
      "name": "refreshBalancerForwarder",
      "outputs": [],
      "stateMutability": "nonpayable",
      "type": "function"
    },
    {
      "inputs": [
        {
          "internalType": "address",
          "name": "balancer",
          "type": "address"
        },
        {
          "internalType": "uint32",
          "name": "gasLimit",
          "type": "uint32"
        },
        {
          "internalType": "uint96",
          "name": "amountLinkWei",
          "type": "uint96"
        },
        {
          "internalType": "bytes",
          "name": "checkData",
          "type": "bytes"
        }
      ],
      "name": "registerBalancerUpkeep",
      "outputs": [
        {
          "internalType": "uint256",
          "name": "upkeepId",
          "type": "uint256"
        }
      ],
      "stateMutability": "nonpayable",
      "type": "function"
    },
    {
      "inputs": [
        {
          "internalType": "address",
          "name": "balancer",
          "type": "address"
        },
        {
          "internalType": "uint32",
          "name": "gasLimit",
          "type": "uint32"
        },
        {
          "internalType": "uint96",
          "name": "amountLinkWei",
          "type": "uint96"
        },
        {
          "internalType": "address",
          "name": "emittingContract",
          "type": "address"
        },
        {
          "internalType": "bytes32",
          "name": "topic0",
          "type": "bytes32"
        },
        {
          "internalType": "uint8",
          "name": "filterSelector",
          "type": "uint8"
        },
        {
          "internalType": "bytes32",
          "name": "topic1",
          "type": "bytes32"
        },
        {
          "internalType": "bytes32",
          "name": "topic2",
          "type": "bytes32"
        },
        {
          "internalType": "bytes32",
          "name": "topic3",
          "type": "bytes32"
        }
      ],
      "name": "registerLogTriggerUpkeep",
      "outputs": [
        {
          "internalType": "uint256",
          "name": "upkeepId",
          "type": "uint256"
        }
      ],
      "stateMutability": "nonpayable",
      "type": "function"
    },
    {
      "inputs": [],
      "name": "renounceOwnership",
      "outputs": [],
      "stateMutability": "nonpayable",
      "type": "function"
    },
    {
      "inputs": [
        {
          "internalType": "address",
          "name": "_linkToken",
          "type": "address"
        },
        {
          "internalType": "address",
          "name": "_registrar",
          "type": "address"
        },
        {
          "internalType": "address",
          "name": "_registry",
          "type": "address"
        }
      ],
      "name": "setAutomationAddresses",
      "outputs": [],
      "stateMutability": "nonpayable",
      "type": "function"
    },
    {
      "inputs": [
        {
          "internalType": "address",
          "name": "_limitOrderProtocol",
          "type": "address"
        }
      ],
      "name": "setLimitOrderProtocol",
      "outputs": [],
      "stateMutability": "nonpayable",
      "type": "function"
    },
    {
      "inputs": [
        {
          "internalType": "address",
          "name": "_priceFeed",
          "type": "address"
        }
      ],
      "name": "setPriceFeed",
      "outputs": [],
      "stateMutability": "nonpayable",
      "type": "function"
    },
    {
      "inputs": [
        {
          "internalType": "address[]",
          "name": "_stablecoins",
          "type": "address[]"
        }
      ],
      "name": "setStablecoins",
      "outputs": [],
      "stateMutability": "nonpayable",
      "type": "function"
    },
    {
      "inputs": [
        {
          "internalType": "uint256",
          "name": "",
          "type": "uint256"
        }
      ],
      "name": "stablecoins",
      "outputs": [
        {
          "internalType": "address",
          "name": "",
          "type": "address"
        }
      ],
      "stateMutability": "view",
      "type": "function"
    },
    {
      "inputs": [
        {
          "internalType": "address",
          "name": "newOwner",
          "type": "address"
        }
      ],
      "name": "transferOwnership",
      "outputs": [],
      "stateMutability": "nonpayable",
      "type": "function"
    },
    {
      "inputs": [
        {
          "internalType": "address",
          "name": "",
          "type": "address"
        },
        {
          "internalType": "uint256",
          "name": "",
          "type": "uint256"
        }
      ],
      "name": "userDriftBalancers",
      "outputs": [
        {
          "internalType": "address",
          "name": "",
          "type": "address"
        }
      ],
      "stateMutability": "view",
      "type": "function"
    },
    {
      "inputs": [
        {
          "internalType": "address",
          "name": "",
          "type": "address"
        },
        {
          "internalType": "uint256",
          "name": "",
          "type": "uint256"
        }
      ],
      "name": "userTimeBalancers",
      "outputs": [
        {
          "internalType": "address",
          "name": "",
          "type": "address"
        }
      ],
      "stateMutability": "view",
      "type": "function"
    }
  ],
  "transactionHash": "0xcf60aedf43150d9daef3a116f2713a8ed1f570954074dfd875c095138818a98c",
  "args": [
    "0x8A791620dd6260079BF849Dc5567aDC3F2FdC318",
    [
      "0xCf7Ed3AccA5a467e9e704C703E8D87F634fB0Fc9",
      "0xDc64a140Aa3E981100a9becA4E685f962f0cF6C9",
      "0x5FC8d32690cc91D4c39d9d3abcBD16989F875707"
    ],
    "0x610178dA211FEF7D417bC0e6FeD39F05609AD788"
  ],
  "numDeployments": 1,
  "solcInputHash": "ee199fbb4e16220d23bcab15c82ca455",
  "bytecode": "0x608060405234620001f9576200edc3803803806200001d8162000214565b9283398101606082820312620001f95762000038826200023a565b6020808401519093916001600160401b0391828111620001f95783019284601f85011215620001f957835194838611620001fe578560051b94876200007f81880162000214565b8098815201888197830101928311620001f95788809201905b838210620001df57505050506040620000b291016200023a565b913315620001c657600080546001600160a01b03198082163390811784556040519991986001600160a01b039892949390919089167f8be0079c531659141344cd1fd0a4f28419497f9722a3daafe3b4186f6b6457e08580a3876001961689600154161760015551938411620001b257680100000000000000008411620001b2576002548460025580851062000187575b509160028252808220915b84811062000173575050505050501690600354161760035561eb739081620002508239f35b83518816838201559281019285016200014e565b60028352858585852092830192015b828110620001a657505062000143565b84815501869062000196565b634e487b7160e01b82526041600452602482fd5b604051631e4fbdf760e01b815260006004820152602490fd5b828091620001ed846200023a565b81520191019062000098565b600080fd5b634e487b7160e01b600052604160045260246000fd5b6040519190601f01601f191682016001600160401b03811183821017620001fe57604052565b51906001600160a01b0382168203620001f95756fe60808060405260043610156200001457600080fd5b600090813560e01c9081630c3818731462001c0457508063213718091462001ba1578063477233731462001aee57806357970e931462001a9a5780635dc228a01462001a46578063715018a614620019a6578063724e78da14620018f3578063741bef1a146200189f5780637f819f6314620018225780637f94dd3314620017ce5780638da5cb5b146200177b5780638f4eec1414620012de5780638f7e85c414620011ec57806391702b1d1462000fee578063a0c67b5d1462000f00578063a4902ed01462000db9578063aee4b17f1462000ba4578063b3739c1e1462000b3d578063c0403b9c1462000a16578063c95f87d31462000776578063d95e5ed114620002b0578063edf5b0a514620002235763f2fde38b146200013657600080fd5b34620002205760207ffffffffffffffffffffffffffffffffffffffffffffffffffffffffffffffffc36011262000220576200017162001cd6565b6200017b62002603565b73ffffffffffffffffffffffffffffffffffffffff809116908115620001ef57600054827fffffffffffffffffffffffff0000000000000000000000000000000000000000821617600055167f8be0079c531659141344cd1fd0a4f28419497f9722a3daafe3b4186f6b6457e0600080a380f35b602483604051907f1e4fbdf70000000000000000000000000000000000000000000000000000000082526004820152fd5b80fd5b5034620002205760407ffffffffffffffffffffffffffffffffffffffffffffffffffffffffffffffffc36011262000220576200025f62001cd6565b6024359173ffffffffffffffffffffffffffffffffffffffff8092168152600960205260408120908154841015620002205750602092620002a09162001cbd565b9190546040519260031b1c168152f35b503462000220576101207ffffffffffffffffffffffffffffffffffffffffffffffffffffffffffffffffc3601126200022057620002ed62001cd6565b90620002f862001d40565b916200030362001d54565b906064359173ffffffffffffffffffffffffffffffffffffffff948584168403620006df5760a43560ff81168103620006df576200034062002603565b6200034f8785161515620020b7565b620003dc60208489600454168015158062000768575b62000370906200211d565b8a600554168a6040518096819582947f095ea7b3000000000000000000000000000000000000000000000000000000008452600484019092916bffffffffffffffffffffffff60209173ffffffffffffffffffffffffffffffffffffffff604085019616845216910152565b03925af180156200075d579060ff929162000727575b508760405196166020870152166040850152608435606085015260c435608085015260e43560a08501526101043560c085015260c0845260e084019084821067ffffffffffffffff831117620006f8576bffffffffffffffffffffffff6020938780976200057f95604052620004688862002655565b94620004be602e60405180987f3142616c616e6365722d4c6f672d0000000000000000000000000000000000008c830152620004ad815180928e86860191016200219d565b810103600e81018952018762001dc0565b8b63ffffffff60405192620004d38462001da3565b858452828654169260405194620004ea8662001da3565b87865260405197620004fc8962001da3565b88526040519a6200050d8c62001d70565b8b528c8b01528c1660408a01521660608801526080870152600160a087015260c086015260e0850152610100840152166101208201528660055416906040519687809481937f3f678e110000000000000000000000000000000000000000000000000000000083526004830162002207565b03925af1928315620006ed578293620006a9575b50906020938392620005a784151562002314565b81811683526007865283604084205582826006541680620005fc575b50508186917f86f2eeef196289d6fdb8ba85834217f6e704296945dc922ed309e51f21f1d7a093604051951685521692a3604051908152f35b9087602492604051938480927f79ea99430000000000000000000000000000000000000000000000000000000082528a60048301525afa90918162000673575b506200064a575b80620005c3565b92507f86f2eeef196289d6fdb8ba85834217f6e704296945dc922ed309e51f21f1d7a062000643565b62000699919250883d8a11620006a1575b62000690818362001dc0565b8101906200237a565b90386200063c565b503d62000684565b939250906020843d602011620006e4575b81620006c96020938362001dc0565b81010312620006df579251919290602062000593565b600080fd5b3d9150620006ba565b6040513d84823e3d90fd5b7f4e487b7100000000000000000000000000000000000000000000000000000000600052604160045260246000fd5b6200074d9060203d60201162000755575b62000744818362001dc0565b81019062002183565b5038620003f2565b503d62000738565b6040513d89823e3d90fd5b506005548b16151562000365565b503462000220576101807ffffffffffffffffffffffffffffffffffffffffffffffffffffffffffffffffc3601126200022057620007b362001cd6565b620007bd62001cfa565b9167ffffffffffffffff9160443583811162000a1257620007e39036906004016200202c565b9060643584811162000a0e57620007ff90369060040162001e1b565b6084359463ffffffff86168603620006df5760a435906bffffffffffffffffffffffff82168203620006df5760c4359273ffffffffffffffffffffffffffffffffffffffff84168403620006df576101049586359560ff87168703620006df576200086962002603565b6040519384610a1881011090610a1886011117620009e157916200089e918b8594610a1862002a958739610a18860162002547565b039086f08015620009d657916bffffffffffffffffffffffff73ffffffffffffffffffffffffffffffffffffffff9263ffffffff8460ff97961699856040519c168b7f13963e06e1e451ef97ce72c6948479fbb5fb555949b165d542920203b8d92d6c8c80a37fd95e5ed1000000000000000000000000000000000000000000000000000000008c528a60048d01521660248b015216604489015216606487015260e43560848701521660a48501526101243560c48501526101443560e485015261016435908401526020836101248184305af1908115620009ca579062000991575b6040809350519182526020820152f35b506020823d602011620009c1575b81620009ae6020938362001dc0565b81010312620006df576040915162000981565b3d91506200099f565b604051903d90823e3d90fd5b6040513d87823e3d90fd5b6024897f4e487b710000000000000000000000000000000000000000000000000000000081526041600452fd5b8380fd5b8280fd5b5034620002205762000a283662001f0d565b9062000a38869593949662002708565b62000a44868662002832565b73ffffffffffffffffffffffffffffffffffffffff93846003541690604051946158688087019087821067ffffffffffffffff83111762000b1057918962000a9c96949289989694620092d68a3930903390620023de565b039085f0801562000b055760209462000ac262000ad094936040931695869485620029a7565b3381526009865220620024f6565b80604051600181527f17d323808e3c939a366f88d51e4c846abb19dcc52719a5dbe040b608bd776b66843392a3604051908152f35b6040513d86823e3d90fd5b60248c7f4e487b710000000000000000000000000000000000000000000000000000000081526041600452fd5b5034620002205760207ffffffffffffffffffffffffffffffffffffffffffffffffffffffffffffffffc3601126200022057604060209173ffffffffffffffffffffffffffffffffffffffff62000b9362001cd6565b168152600783522054604051908152f35b503462000220576020807ffffffffffffffffffffffffffffffffffffffffffffffffffffffffffffffffc36011262000db55773ffffffffffffffffffffffffffffffffffffffff908162000bf862001cd6565b1690818452600781526040842054928315158062000da7575b1562000d4957808260249260065416604051938480927f79ea99430000000000000000000000000000000000000000000000000000000082528960048301525afa91821562000d1657869262000d25575b50833b1562000d2157604051917fd777cc6d0000000000000000000000000000000000000000000000000000000083521690816004820152858160248183885af1801562000d165762000cde575b50907f86f2eeef196289d6fdb8ba85834217f6e704296945dc922ed309e51f21f1d7a091604051908152a380f35b9462000d0d7f86f2eeef196289d6fdb8ba85834217f6e704296945dc922ed309e51f21f1d7a093929662001d8e565b94909162000cb0565b6040513d88823e3d90fd5b8580fd5b62000d41919250833d8511620006a15762000690818362001dc0565b903862000c62565b606482604051907f08c379a00000000000000000000000000000000000000000000000000000000082526004820152601560248201527f4e6f2075706b656570206f7220726567697374727900000000000000000000006044820152fd5b508060065416151562000c11565b5080fd5b5034620002205760807ffffffffffffffffffffffffffffffffffffffffffffffffffffffffffffffffc360112620002205762000df562001cd6565b62000dff62001cfa565b9067ffffffffffffffff9060443582811162000efc5762000e259036906004016200202c565b60643583811162000d215762000e4090369060040162001e1b565b9162000e4b62002603565b60405193610a188086019182118683101762000ecf5785949262000e789492889262002a95883962002547565b039083f08015620006ed576020927f13963e06e1e451ef97ce72c6948479fbb5fb555949b165d542920203b8d92d6c9173ffffffffffffffffffffffffffffffffffffffff80911692839160405195169280a38152f35b6024887f4e487b710000000000000000000000000000000000000000000000000000000081526041600452fd5b8480fd5b5034620002205762000f123662001f0d565b9062000f22869593949662002708565b62000f2e868662002832565b73ffffffffffffffffffffffffffffffffffffffff9384600354169060405194615e298087019087821067ffffffffffffffff83111762000b1057918962000f8696949289989694620034ad8a3930903390620023de565b039085f0801562000b05576020949162000fa5911693849384620029a7565b3381526008845262000fbb8260408320620024f6565b6040519081527f17d323808e3c939a366f88d51e4c846abb19dcc52719a5dbe040b608bd776b66843392a3604051908152f35b503462000220576020807ffffffffffffffffffffffffffffffffffffffffffffffffffffffffffffffffc36011262000db55760043567ffffffffffffffff80821162000a0e573660238301121562000a0e57816004013590811162000a0e576024820191602436918360051b01011162000a0e576200106d62002603565b680100000000000000008111620011bf57600254816002558082106200117c575b50600284529183825b8482106200111f575050604051928082850183865252604084019291855b828110620010e657867ec103029fc56cc982cc0ef8d80cf4caf1a7f76554bdc476ee2c4b400883520887870388a180f35b90919293828060019273ffffffffffffffffffffffffffffffffffffffff6200110f8962001d1e565b16815201950193929101620010b5565b80949294359173ffffffffffffffffffffffffffffffffffffffff831683036200117857856001920192817f405787fa12a823e0f2b7631cc41b3ba8828b3321ca811111fa75cd3aa3bb5ace0155019093919362001097565b8680fd5b817f405787fa12a823e0f2b7631cc41b3ba8828b3321ca811111fa75cd3aa3bb5ace91820191015b818110620011b357506200108e565b858155600101620011a4565b6024847f4e487b710000000000000000000000000000000000000000000000000000000081526041600452fd5b5034620002205760607ffffffffffffffffffffffffffffffffffffffffffffffffffffffffffffffffc36011262000220576200122862001cd6565b6200123262001cfa565b9060443573ffffffffffffffffffffffffffffffffffffffff9081811680910362000efc577f1e5f4aa24c149f1af84f81831e0140efe8b7911cc85bfeda5195dc64e68f0fe39381836060956200128862002603565b16937fffffffffffffffffffffffff00000000000000000000000000000000000000009285846004541617600455169182816005541617600555600654161760065560405192835260208301526040820152a180f35b5034620002205760807ffffffffffffffffffffffffffffffffffffffffffffffffffffffffffffffffc3601126200022057806200131b62001cd6565b6200132562001d40565b906200133062001d54565b67ffffffffffffffff806064351162000efc5736602360643501121562000efc57606435600401351162001776573660246064356004013560643501011162001776576200137d62002603565b6200142f73ffffffffffffffffffffffffffffffffffffffff93620013a68585161515620020b7565b60208386600454168015158062001768575b620013c3906200211d565b8760055416896040518097819582947f095ea7b3000000000000000000000000000000000000000000000000000000008452600484019092916bffffffffffffffffffffffff60209173ffffffffffffffffffffffffffffffffffffffff604085019616845216910152565b03925af1801562000d165760209362001590936bffffffffffffffffffffffff9262001746575b50620014628662002655565b92620014b8602a60405180967f3142616c616e6365722d000000000000000000000000000000000000000000008a830152620014a7815180928c86860191016200219d565b810103600a81018752018562001dc0565b60405190620014c78262001da3565b898252888a541663ffffffff60405192620014e28462001da3565b8c845260405194620014f48662001da3565b8d865260405198620015068a62001d70565b89528a8901528b8b16604089015216606087015260808601528960a08601526200153d366064356004013560246064350162001e83565b60c086015260e0850152610100840152166101208201528460055416906040519687809481937f3f678e110000000000000000000000000000000000000000000000000000000083526004830162002207565b03925af192831562000b055784936200170c575b50620015b283151562002314565b81811684526007602052826040852055838260065416806200160b575b60208580887f86f2eeef196289d6fdb8ba85834217f6e704296945dc922ed309e51f21f1d7a084898981604051951685521692a3604051908152f35b6020602491604051928380927f79ea99430000000000000000000000000000000000000000000000000000000082528960048301525afa829181620016e6575b5015620015cf57945084908284163b15620002205783602096937f86f2eeef196289d6fdb8ba85834217f6e704296945dc922ed309e51f21f1d7a09388938897604051927fd777cc6d00000000000000000000000000000000000000000000000000000000845216600483015281602481838787165af1620016d4575b509396509350620015cf565b620016df9062001d8e565b38620016c8565b6200170491925060203d602011620006a15762000690818362001dc0565b90386200164b565b9092506020813d6020116200173d575b816200172b6020938362001dc0565b8101031262000a0e57519138620015a4565b3d91506200171c565b6200176090863d8811620007555762000744818362001dc0565b503862001456565b5060055488161515620013b8565b505050fd5b50346200022057807ffffffffffffffffffffffffffffffffffffffffffffffffffffffffffffffffc360112620002205773ffffffffffffffffffffffffffffffffffffffff6020915416604051908152f35b50346200022057807ffffffffffffffffffffffffffffffffffffffffffffffffffffffffffffffffc3601126200022057602073ffffffffffffffffffffffffffffffffffffffff60035416604051908152f35b5034620002205760407ffffffffffffffffffffffffffffffffffffffffffffffffffffffffffffffffc36011262000220576200185e62001cd6565b6024359173ffffffffffffffffffffffffffffffffffffffff8092168152600860205260408120908154841015620002205750602092620002a09162001cbd565b50346200022057807ffffffffffffffffffffffffffffffffffffffffffffffffffffffffffffffffc3601126200022057602073ffffffffffffffffffffffffffffffffffffffff60015416604051908152f35b5034620002205760207ffffffffffffffffffffffffffffffffffffffffffffffffffffffffffffffffc36011262000220577fe5b20b8497e4f3e2435ef9c20e2e26b47497ee13745ce1c681ad6640653119e6602073ffffffffffffffffffffffffffffffffffffffff6200196762001cd6565b6200197162002603565b16807fffffffffffffffffffffffff00000000000000000000000000000000000000006001541617600155604051908152a180f35b50346200022057807ffffffffffffffffffffffffffffffffffffffffffffffffffffffffffffffffc3601126200022057620019e162002603565b8073ffffffffffffffffffffffffffffffffffffffff81547fffffffffffffffffffffffff000000000000000000000000000000000000000081168355167f8be0079c531659141344cd1fd0a4f28419497f9722a3daafe3b4186f6b6457e08280a380f35b50346200022057807ffffffffffffffffffffffffffffffffffffffffffffffffffffffffffffffffc3601126200022057602073ffffffffffffffffffffffffffffffffffffffff60065416604051908152f35b50346200022057807ffffffffffffffffffffffffffffffffffffffffffffffffffffffffffffffffc3601126200022057602073ffffffffffffffffffffffffffffffffffffffff60045416604051908152f35b5034620002205760207ffffffffffffffffffffffffffffffffffffffffffffffffffffffffffffffffc36011262000220577f5f7acac314d344ad99e71a67475fc774a05fed6d03d6d1642f070fe326d620db602073ffffffffffffffffffffffffffffffffffffffff62001b6262001cd6565b62001b6c62002603565b16807fffffffffffffffffffffffff00000000000000000000000000000000000000006003541617600355604051908152a180f35b5034620002205760207ffffffffffffffffffffffffffffffffffffffffffffffffffffffffffffffffc3601126200022057600435906002548210156200022057602073ffffffffffffffffffffffffffffffffffffffff620002a08462001c56565b90503462000db557817ffffffffffffffffffffffffffffffffffffffffffffffffffffffffffffffffc36011262000db55760209073ffffffffffffffffffffffffffffffffffffffff600554168152f35b60025481101562001c8e5760026000527f405787fa12a823e0f2b7631cc41b3ba8828b3321ca811111fa75cd3aa3bb5ace0190600090565b7f4e487b7100000000000000000000000000000000000000000000000000000000600052603260045260246000fd5b805482101562001c8e5760005260206000200190600090565b6004359073ffffffffffffffffffffffffffffffffffffffff82168203620006df57565b6024359073ffffffffffffffffffffffffffffffffffffffff82168203620006df57565b359073ffffffffffffffffffffffffffffffffffffffff82168203620006df57565b6024359063ffffffff82168203620006df57565b604435906bffffffffffffffffffffffff82168203620006df57565b610140810190811067ffffffffffffffff821117620006f857604052565b67ffffffffffffffff8111620006f857604052565b6020810190811067ffffffffffffffff821117620006f857604052565b90601f7fffffffffffffffffffffffffffffffffffffffffffffffffffffffffffffffe0910116810190811067ffffffffffffffff821117620006f857604052565b67ffffffffffffffff8111620006f85760051b60200190565b9080601f83011215620006df57602090823562001e388162001e02565b9362001e48604051958662001dc0565b81855260208086019260051b820101928311620006df57602001905b82821062001e73575050505090565b8135815290830190830162001e64565b92919267ffffffffffffffff8211620006f8576040519162001ece60207fffffffffffffffffffffffffffffffffffffffffffffffffffffffffffffffe0601f840116018462001dc0565b829481845281830111620006df578281602093846000960137010152565b9080601f83011215620006df5781602062001f0a9335910162001e83565b90565b9060c07ffffffffffffffffffffffffffffffffffffffffffffffffffffffffffffffffc830112620006df57600480359267ffffffffffffffff93848111620006df5781602382011215620006df578083013562001f6b8162001e02565b9162001f7b604051938462001dc0565b8183526020916024602085019160051b83010191858311620006df57602401905b82821062002012575050505093602435818111620006df578262001fc291850162001e1b565b93604435828111620006df578362001fdc91860162001e1b565b9360643593608435848111620006df578162001ffa91840162001eec565b9360a435908111620006df5762001f0a920162001eec565b838091620020208462001d1e565b81520191019062001f9c565b81601f82011215620006df57803591602091620020498462001e02565b9362002059604051958662001dc0565b808552838086019160051b83010192808411620006df57848301915b848310620020865750505050505090565b823567ffffffffffffffff8111620006df578691620020ab8484809489010162001eec565b81520192019162002075565b15620020bf57565b60646040517f08c379a000000000000000000000000000000000000000000000000000000000815260206004820152600a60248201527f62616c616e6365723d30000000000000000000000000000000000000000000006044820152fd5b156200212557565b60646040517f08c379a000000000000000000000000000000000000000000000000000000000815260206004820152601260248201527f4175746f6d6174696f6e206e6f742073657400000000000000000000000000006044820152fd5b90816020910312620006df57518015158103620006df5790565b60005b838110620021b15750506000910152565b8181015183820152602001620021a0565b907fffffffffffffffffffffffffffffffffffffffffffffffffffffffffffffffe0601f60209362002200815180928187528780880191016200219d565b0116010190565b6020815281516bffffffffffffffffffffffff6200223461014092836020860152610160850190620021c2565b6200230a620022d7620022786020880151937fffffffffffffffffffffffffffffffffffffffffffffffffffffffffffffffe094858983030160408a0152620021c2565b604088015173ffffffffffffffffffffffffffffffffffffffff809116606089015263ffffffff60608a015116608089015260808901511660a088015260ff60a08901511660c088015260c0880151848883030160e0890152620021c2565b620022f460e088015191610100928589830301848a0152620021c2565b90870151610120938783030184880152620021c2565b9401511691015290565b156200231c57565b60646040517f08c379a000000000000000000000000000000000000000000000000000000000815260206004820152601460248201527f5265676973747261722072657475726e656420300000000000000000000000006044820152fd5b90816020910312620006df575173ffffffffffffffffffffffffffffffffffffffff81168103620006df5790565b90815180825260208080930193019160005b828110620023c9575050505090565b835185529381019392810192600101620023ba565b96949897959290936101208089019073ffffffffffffffffffffffffffffffffffffffff8097168a528660209516858b015260408a01528251809152836101408a0193019060005b818110620024df5750505090620024459188820360608a0152620023a8565b97608087015285880360a08701528060025498898152019760026000527f405787fa12a823e0f2b7631cc41b3ba8828b3321ca811111fa75cd3aa3bb5ace916000905b828210620024c557505050509162001f0a959691620024b5931660c086015284820360e0860152620021c2565b91610100818403910152620021c2565b835486168b52998a01996001938401939091019062002488565b825188168552938501939185019160010162002426565b805468010000000000000000811015620006f8576200251b9160018201815562001cbd565b73ffffffffffffffffffffffffffffffffffffffff9291928084549260031b9316831b921b1916179055565b9094939194608082019073ffffffffffffffffffffffffffffffffffffffff809116835260209616602083015260806040830152835180915260a0820190602060a08260051b8501019501916000905b828210620025b8575050505062001f0a9394506060818403910152620023a8565b909192958880620025f4837fffffffffffffffffffffffffffffffffffffffffffffffffffffffffffffff6089600196030186528a51620021c2565b98019201920190929162002597565b73ffffffffffffffffffffffffffffffffffffffff6000541633036200262557565b60246040517f118cdaa7000000000000000000000000000000000000000000000000000000008152336004820152fd5b7fffffffffffffffffffffffffffffffffffffffff0000000000000000000000009060601b16604051906040820182811067ffffffffffffffff821117620006f8576040526004825260208201602036823782511562001c8e578160121a905381516001101562001c8e578060131a602183015381516002101562001c8e578060001a602283015381516003101562001c8e5760011a602382015390565b805182101562001c8e5760209160051b010190565b600254600091825b81518110156200277c57835b8381106200272e575060010162002710565b73ffffffffffffffffffffffffffffffffffffffff80620027508486620026f3565b5116906200275e8362001c56565b90549060031b1c161462002775576001016200271c565b5050505050565b60046040517f257c972a000000000000000000000000000000000000000000000000000000008152fd5b15620027ae57565b60846040517f08c379a000000000000000000000000000000000000000000000000000000000815260206004820152602260248201527f546f6b656e7320616e6420616d6f756e7473206c656e677468206d69736d617460448201527f63680000000000000000000000000000000000000000000000000000000000006064820152fd5b919091620028448151845114620027a6565b60005b8151811015620029a15773ffffffffffffffffffffffffffffffffffffffff620028728284620026f3565b51166040805180917f70a08231000000000000000000000000000000000000000000000000000000008252816004943386830152602093849160249687915afa908115620029965760009162002963575b50620028d0868a620026f3565b5111620028e4575050505060010162002847565b517f08c379a0000000000000000000000000000000000000000000000000000000008152928301526025908201527f496e73756666696369656e7420746f6b656e2062616c616e636520696e20666160448201527f63746f72790000000000000000000000000000000000000000000000000000006064820152608490fd5b908382813d83116200298e575b6200297c818362001dc0565b810103126200022057505138620028c3565b503d62002970565b82513d6000823e3d90fd5b50509050565b909291620029b98451825114620027a6565b60009360005b815181101562002a8c578573ffffffffffffffffffffffffffffffffffffffff80620029ec8486620026f3565b5116620029fa8487620026f3565b51906040918251937f23b872dd0000000000000000000000000000000000000000000000000000000085523360048601528916602485015260448401528260648160209687945af190811562002a83575090600193929162002a60575b505001620029bf565b8162002a7a92903d10620007555762000744818362001dc0565b50388062002a57565b513d8a823e3d90fd5b50505050905056fe604060c08152346200023f5762000a18803803806200001e81620002e2565b9283398101906080818303126200023f576200003a816200031e565b926020936200004b8584016200031e565b838301519091906001600160401b03908181116200023f57850194601f9587601f820112156200023f5780516200008c620000868262000333565b620002e2565b978a808a848152019260051b840101928a84116200023f578b8101925b8484106200024457505050505060608101519182116200023f57019480601f870112156200023f57855195620000e3620000868862000333565b96888089838152019160051b8301019283116200023f5788809201905b8382106200022f57506001600160a01b0392505050818116156200020057821615620001d15783518551036200019e5760805260a0526000805b835181101562000177578062000153600192876200034b565b516200016082876200034b565b51888151910120845283885284842055016200013a565b82516106a190816200037782396080518160a5015260a05181818161011701526101b30152f35b825162461bcd60e51b815260048101879052600c60248201526b0d8cadc40dad2e6dac2e8c6d60a31b6044820152606490fd5b825162461bcd60e51b815260048101879052600860248201526707461726765743d360c41b6044820152606490fd5b835162461bcd60e51b815260048101889052600860248201526706f7261636c653d360c41b6044820152606490fd5b8151815290820190820162000100565b600080fd5b83518781116200023f578201908c603f830112156200023f578d820151888111620002cd578d908f6200027f90601f198884011601620002e2565b918183528d82860101116200023f578f93849392919060008f5b838210620002b8575050508360009183010152815201930192620000a9565b82820101518482018701528695018f62000299565b60246000634e487b7160e01b81526041600452fd5b6040519190601f01601f191682016001600160401b038111838210176200030857604052565b634e487b7160e01b600052604160045260246000fd5b51906001600160a01b03821682036200023f57565b6001600160401b038111620003085760051b60200190565b8051821015620003605760209160051b010190565b634e487b7160e01b600052603260045260246000fdfe608060408181526004918236101561001657600080fd5b600092833560e01c918263019dd836146103565750816340691db4146102b65781634585e33b1461013b5750806346f5f4af146100cd57637dc0d1d01461005c57600080fd5b346100c957817ffffffffffffffffffffffffffffffffffffffffffffffffffffffffffffffffc3601126100c9576020905173ffffffffffffffffffffffffffffffffffffffff7f0000000000000000000000000000000000000000000000000000000000000000168152f35b5080fd5b50346100c957817ffffffffffffffffffffffffffffffffffffffffffffffffffffffffffffffffc3601126100c9576020905173ffffffffffffffffffffffffffffffffffffffff7f0000000000000000000000000000000000000000000000000000000000000000168152f35b839150346100c95760207ffffffffffffffffffffffffffffffffffffffffffffffffffffffffffffffffc3601126100c95767ffffffffffffffff9080358281116102b2576101906101989136908401610397565b8101906104b5565b9192909373ffffffffffffffffffffffffffffffffffffffff7f000000000000000000000000000000000000000000000000000000000000000016803b156102ae5790868092848a51809581937f5488a0b60000000000000000000000000000000000000000000000000000000083525af1610249575b505050610243907f024c65b465dcddf389d0e3e36085fbacca1cf54261ebd2b9f7beadb95d2021129495519384938461055a565b0390a180f35b819796929711610282578552939450807f024c65b465dcddf389d0e3e36085fbacca1cf54261ebd2b9f7beadb95d20211261024361020f565b6024826041897f4e487b7100000000000000000000000000000000000000000000000000000000835252fd5b8680fd5b8380fd5b839150346100c9577ffffffffffffffffffffffffffffffffffffffffffffffffffffffffffffffffc83813601126103525781359267ffffffffffffffff918285116100c95761010090853603011261034f5760243591821161034f5750916103319161032961034b9436908301610397565b505001610592565b8392919251938493151584528060208501528301906103ca565b0390f35b80fd5b8280fd5b929150346102b25760207ffffffffffffffffffffffffffffffffffffffffffffffffffffffffffffffffc3601126102b25735835260208381529220548152f35b9181601f840112156103c55782359167ffffffffffffffff83116103c557602083818601950101116103c557565b600080fd5b919082519283825260005b8481106104145750507fffffffffffffffffffffffffffffffffffffffffffffffffffffffffffffffe0601f8460006020809697860101520116010190565b6020818301810151848301820152016103d5565b90601f7fffffffffffffffffffffffffffffffffffffffffffffffffffffffffffffffe0910116810190811067ffffffffffffffff82111761046957604052565b7f4e487b7100000000000000000000000000000000000000000000000000000000600052604160045260246000fd5b35906fffffffffffffffffffffffffffffffff821682036103c557565b90916060828403126103c55767ffffffffffffffff9282358481116103c557830181601f820112156103c55780359060209582116104695760405192610522877fffffffffffffffffffffffffffffffffffffffffffffffffffffffffffffffe0601f8601160185610428565b8284528683830101116103c55761055792600087846040958261055096018386013783010152958501610498565b9301610498565b90565b916105726040929594956060855260608501906103ca565b946fffffffffffffffffffffffffffffffff809216602085015216910152565b60e0810135907fffffffffffffffffffffffffffffffffffffffffffffffffffffffffffffffe1813603018212156103c5570190813567ffffffffffffffff81116103c5576020928381019082360382136103c5576105f492018401906104b5565b9193908451828601206000526000825260406000205415610656576106509261062491604051968794850161055a565b037fffffffffffffffffffffffffffffffffffffffffffffffffffffffffffffffe08101845283610428565b60019190565b6106509261062491604051968794850161055a56fea264697066735822122021bfabd23acd198df891d5a7ad107b57a44eba363e39b3eebf8a125ec7ecff7164736f6c634300081700336080806040523462000d595762005e29803803809162000020828562000da7565b833981016101208282031262000d59576200003b8262000dcb565b906200004a6020840162000dcb565b60408401519092906001600160401b03811162000d5957826200006f91860162000df8565b60608501519092906001600160401b03811162000d595785019381601f8601121562000d5957845194620000a38662000de0565b95620000b3604051978862000da7565b80875260208088019160051b8301019184831162000d5957602001905b82821062000d5e57505050608086015160a08701519093906001600160401b03811162000d5957836200010591890162000df8565b966200011460c0820162000dcb565b60e08201519091906001600160401b03811162000d5957856200013991830162000e6b565b6101008201519095906001600160401b03811162000d59576200015d920162000e6b565b926001600160a01b0383161562000d405760008054906001600160a01b0385811691908316907f8be0079c531659141344cd1fd0a4f28419497f9722a3daafe3b4186f6b6457e09080a36001600160a81b0319166001600160a01b0384811691909117600090815560018055600680546001600160a01b031916939092169290921790555b8851811015620002c7576001600160a01b0362000200828b62000eef565b5116906007549168010000000000000000831015620002b15760018301806007558310156200029b5760076000527fa66cc928b5edb82af9bd49922954155ab7b0942694bea4ce44661d9a8736c68890920180546001600160a01b0319169092179091556001906001600160a01b036200027b828c62000eef565b5116600052600860205260406000208260ff1982541617905501620001e2565b634e487b7160e01b600052603260045260246000fd5b634e487b7160e01b600052604160045260246000fd5b50879680511562000cfb5786511562000cc15792948688916000946000946000975b8451891015620003985760009960005b875181101562000387576001600160a01b03620003178c8962000eef565b51166001600160a01b036200032d838b62000eef565b5116146200033e57600101620002f9565b5092959a9194995092976200035560019762000f1d565b965b1562000370575b600101979299949198939099620002e9565b966200037e60019162000f1d565b9790506200035e565b5092959a9194999890939862000357565b898b889697958a88151560001462000cb75760ff60015b1690810180911162000ca15784510362000c4c5760005b6003548110156200041f57806001916000526002602052600060026040822082815584810180548482558062000402575b5050015501620003c6565b62000417918552602085209081019062000f04565b8e80620003f7565b5088518998906001600160401b038111620002b157680100000000000000008111620002b1576004548160045580821062000c0e575b5060208a016004600052602060002060005b83811062000bf0575050505060006003558062000a0c575b15620009fb5760ff6001979395929691975b16946000965b89518810156200063e5760009860005b865181101562000630576001600160a01b03620004c58b8e62000eef565b51166001600160a01b03620004db838a62000eef565b511614620004ec57600101620004a7565b50929790939194985060015b156200050e575b60010196919793909262000497565b956040516200051d8162000d8b565b60018152602036818301376001600160a01b036200053c898d62000eef565b5116620005498262000ee1565b5262000556828862000eef565b5160405190620005668262000d6f565b815260208082019283526000604080840182905260035482526002909252208151815591518051906001600160401b038211620002b157602090620005af836001870162000f2d565b0160018401600052602060002060005b83811062000612575050505091620005f36200060992600260406001960151151591019060ff801983541691151516179055565b6200060060035462000f1d565b60035562000f1d565b969050620004ff565b82516001600160a01b031681830155602090920191600101620005bf565b5092979093919498620004f8565b42600555600980546001600160a01b0385166001600160a01b03199182168117909255600a805490911690911790558151899085906001600160401b038111620002b157600e54600181811c91168015620009f0575b60208210146200090057601f81116200099d575b506020601f82116001146200092d57819293949560009262000921575b50508160011b916000199060031b1c191617600e555b82516001600160401b038111620002b157600f54600181811c9116801562000916575b60208210146200090057601f8111620008b2575b506020601f82116001146200083957819293946000926200082d575b50508160011b916000199060031b1c191617600f555b60018060a01b0316908160018060a01b0319600b541617600b55601a6020604051620007708162000d8b565b828152017f31696e6368204c696d6974204f726465722050726f746f636f6c00000000000081522060016020604051620007aa8162000d8b565b82815201600d60fa1b815220926040519360208501927f8b73c3c69bb8fe3d512ecc4cf759cc79239f7b179b0ffacaa9a75d522b39400f84526040860152606085015246608085015260a084015260a0835260c083019280841060018060401b03851117620002b15783604052519020600c55601055614e9c908162000f6d8239f35b0151905084806200072e565b600f600090815260008051602062005e098339815191529190601f198416905b81811062000899575095836001959697106200087f575b505050811b01600f5562000744565b015160001960f88460031b161c1916905584808062000870565b9192602060018192868b01518155019401920162000859565b600f600052620008ee9060008051602062005e09833981519152601f840160051c81019160208510620008f5575b601f0160051c019062000f04565b8462000712565b9091508190620008e0565b634e487b7160e01b600052602260045260246000fd5b90607f1690620006fe565b015190508580620006c5565b600e60005260206000209060005b601f198416811062000984575060019394959683601f198116106200096a575b505050811b01600e55620006db565b015160001960f88460031b161c191690558580806200095b565b9091602060018192858b0151815501930191016200093b565b600e600052620009e9907fbb7b4a454dc3493923482f07822329ed19e8244eff582cc204f8554c3620c3fd601f840160051c81019160208510620008f557601f0160051c019062000f04565b85620006a8565b90607f169062000694565b60ff60009793959296919762000491565b919590929462000a1c8362000de0565b9462000a2c604051968762000da7565b838652601f1962000a3d8562000de0565b013660208801376000966000985b8b518a101562000af65760005b8b5181101562000ae5576001600160a01b0362000a768c8f62000eef565b51166001600160a01b0362000a8c838f62000eef565b51161462000a9d5760010162000a58565b50919395909294989762000ad56001918d62000ac08c858060a01b039262000eef565b511662000ace828c62000eef565b5262000f1d565b985b019894929095939162000a4b565b509193959092949860019062000ad7565b94929750949297509462000b0a8662000ee1565b516040519062000b1a8262000d6f565b8152602080820192835260016040830152600080526002905280517fac33ff75c19e70fe83507db0d683fd3465c996598dc972688b7ace676c89077b90815591518051906001600160401b038211620002b15760209062000b7f836001870162000f2d565b0160018401600052602060002060005b83811062000bd25750505050906002604062000bbc930151151591019060ff801983541691151516179055565b62000bc960035462000f1d565b6003556200047f565b82516001600160a01b03168183015560209092019160010162000b8f565b82516001600160a01b03168183015560209092019160010162000467565b600460005262000c45907f8a35acfbc15ff81a39ae7d344fd709f28e8600b4aa8c65c6b64bfe7fe36bd19b90810190830162000f04565b8a62000455565b60405162461bcd60e51b815260206004820152602760248201527f57726f6e672070657263656e7461676520636f756e7420666f722061737365746044820152662067726f75707360c81b6064820152608490fd5b634e487b7160e01b600052601160045260246000fd5b60ff6000620003af565b60405162461bcd60e51b8152602060048201526012602482015271139bc8185cdcd95d1cc81c1c9bdd9a59195960721b6044820152606490fd5b60405162461bcd60e51b815260206004820152601760248201527f4e6f2070657263656e74616765732070726f76696465640000000000000000006044820152606490fd5b604051631e4fbdf760e01b815260006004820152602490fd5b600080fd5b8151815260209182019101620000d0565b606081019081106001600160401b03821117620002b157604052565b604081019081106001600160401b03821117620002b157604052565b601f909101601f19168101906001600160401b03821190821017620002b157604052565b51906001600160a01b038216820362000d5957565b6001600160401b038111620002b15760051b60200190565b9080601f8301121562000d595781519060209162000e168162000de0565b9362000e26604051958662000da7565b81855260208086019260051b82010192831162000d5957602001905b82821062000e51575050505090565b83809162000e5f8462000dcb565b81520191019062000e42565b919080601f8401121562000d595782516001600160401b038111620002b1576020906040519262000ea683601f19601f850116018562000da7565b81845282828701011162000d595760005b81811062000ecd57508260009394955001015290565b858101830151848201840152820162000eb7565b8051156200029b5760200190565b80518210156200029b5760209160051b010190565b81811062000f10575050565b6000815560010162000f04565b600019811462000ca15760010190565b90680100000000000000008111620002b15781549080835581811062000f5257505050565b62000f6a926000526020600020918201910162000f04565b56fe6080604081815260049182361015610022575b505050361561002057600080fd5b005b600092833560e01c91826306fdde031461281d57508163124528b8146125e857816314bcec9f146125ab5781631626ba7e146124ee5781631a650cc71461248757816321371809146124295781633070fbf8146123d65781633f4ba83a14612316578163449e815d146122cf57816344caaba91461227f5781634585e33b14611e0457816349689f5814611daf5781635037160014611c125781635373433f14611b3a5781635488a0b614611b0357816356ce0e6c1461173f5781635c975abb146116fc578163669ed9351461167a5781636e04ff0d14611572578163715018a6146114d65781637284e416146113b05781637b1837de146112f85781637f94dd33146112a55781638456cb59146111fc57816387685fb91461113f5781638da5cb5b146110ee578163a6df16d714611082578163b4407fe11461102d578163b6020edb14610fde578163bdb3509114610f72578163bf2e5de414610eb8578163c45a015514610e65578163c771909c14610e12578163caa648b414610dd0578163d777cc6d14610d22578163d9db093d14610cc8578163df4ac49d14610c8b578163f2fde38b14610ba8578163f3fef3a314610ab0578163f4fdb8e31461027b57508063f698da251461023f5763fb3f2b00146102005780610012565b3461023b57817ffffffffffffffffffffffffffffffffffffffffffffffffffffffffffffffffc36011261023b576020906010549051908152f35b5080fd5b503461023b57817ffffffffffffffffffffffffffffffffffffffffffffffffffffffffffffffffc36011261023b57602090600c549051908152f35b8391503461023b5760607ffffffffffffffffffffffffffffffffffffffffffffffffffffffffffffffffc36011261023b5767ffffffffffffffff908035828111610aac576102cd9036908301612ae0565b90602490813592848411610aa85736602385011215610aa857838201356102f381612a7d565b94610300895196876129de565b818652602091858388019160051b83010191368311610aa45786849101915b838310610a945750505050604435868111610a90576103419036908501612ae0565b9261034a6135e6565b855115610a36578251156109dc57959496809891949895819582985b85518a101561040957839a845b88518110156103fa5773ffffffffffffffffffffffffffffffffffffffff8061039c8e8b612d4d565b5116906103a9838c612d4d565b5116146103b857600101610373565b50929990939a506103ce60019c92959c986132b9565b975b156103e6575b600101989199929a93909a610366565b976103f26001916132b9565b9890506103d6565b50929990939a9b91949b6103d0565b868b8d8b97958b9961042b8b15159a8b6000146109d45760ff60015b166132e6565b84510361095357885b60035481101561048157806001918b528a6002808b528b8220828155848101805484825580610468575b5050015501610434565b61047a9185528d852090810190612cee565b388061045e565b5086929188918a8c8e835185811161092857680100000000000000008111610928578b54818d558082106108f2575b508885018c8552845b8281106108aa5750505081836003556106d7575b50156106cf5760ff60015b169581975b83518910156106cb578299835b81518110156106c15773ffffffffffffffffffffffffffffffffffffffff806105138d89612d4d565b5116906105208385612d4d565b51161461052f576001016104ea565b5099509760015b15610545575b600101976104dd565b968551868101818110878211176106965787526001815282368183013773ffffffffffffffffffffffffffffffffffffffff90816105838b88612d4d565b511661058e82612d40565b52610599838c612d4d565b51918851926105a78461293e565b835284830191825288830186815260035487526002865289872093518455915180519160018501918a84116106695787906105e28585612d05565b0191885286882090885b8481106106555750505050509161063a61064d92600260019551151591019060ff7fffffffffffffffffffffffffffffffffffffffffffffffffffffffffffffff0083541691151516179055565b6106456003546132b9565b6003556132b9565b97905061053c565b8351821683820155928801926001016105ec565b508f8860418e927f4e487b7100000000000000000000000000000000000000000000000000000000835252fd5b888560418f7f4e487b7100000000000000000000000000000000000000000000000000000000835252fd5b5099989098610536565b8280f35b60ff816104d8565b6106ec909a949a99959891939997969761399d565b95829783995b8b518b101561079657845b8851811015610785578b8d61072873ffffffffffffffffffffffffffffffffffffffff928392612d4d565b511681610735848d612d4d565b51161461074557506001016106fd565b61077591509a8c9b6001939597999f9496989d8f9061076391612d4d565b511661076f828d612d4d565b526132b9565b995b01999492909b9593916106f2565b509193959b90929499600190610777565b969a94929950969097509993996107ac89612d40565b51908651916107ba8361293e565b8252888201908152600187830181815285805260028b5288862093518455915180519184019088831161087f578b906107f38484612d05565b019086528a8620865b83811061085757505050509060026108439251151591019060ff7fffffffffffffffffffffffffffffffffffffffffffffffffffffffffffffff0083541691151516179055565b61084e6003546132b9565b6003558a6104cd565b825173ffffffffffffffffffffffffffffffffffffffff1682820155918c01916001016107fc565b7f4e487b7100000000000000000000000000000000000000000000000000000000875260418f528a87fd5b815173ffffffffffffffffffffffffffffffffffffffff167f8a35acfbc15ff81a39ae7d344fd709f28e8600b4aa8c65c6b64bfe7fe36bd19b820155908a01906001016104b9565b61092290827f8a35acfbc15ff81a39ae7d344fd709f28e8600b4aa8c65c6b64bfe7fe36bd19b9182019101612cee565b8c6104b0565b878460418e7f4e487b7100000000000000000000000000000000000000000000000000000000835252fd5b6084866027858a8c51937f08c379a00000000000000000000000000000000000000000000000000000000085528401528201527f57726f6e672070657263656e7461676520636f756e7420666f7220617373657460448201527f2067726f757073000000000000000000000000000000000000000000000000006064820152fd5b60ff8b610425565b6012856064938b51937f08c379a00000000000000000000000000000000000000000000000000000000085528401528201527f4e6f206173736574732070726f766964656400000000000000000000000000006044820152fd5b6017856064938b51937f08c379a00000000000000000000000000000000000000000000000000000000085528401528201527f4e6f2070657263656e74616765732070726f76696465640000000000000000006044820152fd5b8780fd5b823581529181019184910161031f565b8980fd5b8580fd5b8380fd5b91905034610ba457807ffffffffffffffffffffffffffffffffffffffffffffffffffffffffffffffffc360112610ba457610ae9612a95565b91610af26135e6565b600260015414610b7d57509073ffffffffffffffffffffffffffffffffffffffff610b76926002600155610b2d610b2884614299565b6132f3565b51917fa9059cbb000000000000000000000000000000000000000000000000000000006020840152336024840152602435604484015260448352610b70836129a6565b16614cf5565b6001805580f35b90517f3ee5aeb5000000000000000000000000000000000000000000000000000000008152fd5b8280fd5b905034610ba45760207ffffffffffffffffffffffffffffffffffffffffffffffffffffffffffffffffc360112610ba457610be1612a95565b90610bea6135e6565b73ffffffffffffffffffffffffffffffffffffffff809216928315610c5c5750508254827fffffffffffffffffffffffff00000000000000000000000000000000000000008216178455167f8be0079c531659141344cd1fd0a4f28419497f9722a3daafe3b4186f6b6457e08380a380f35b908460249251917f1e4fbdf7000000000000000000000000000000000000000000000000000000008352820152fd5b50503461023b57817ffffffffffffffffffffffffffffffffffffffffffffffffffffffffffffffffc36011261023b576020906003549051908152f35b50503461023b5760207ffffffffffffffffffffffffffffffffffffffffffffffffffffffffffffffffc36011261023b579081610d1e925191610d0a836129c2565b825251918291602083526020830190612a1f565b0390f35b50503461023b5760207ffffffffffffffffffffffffffffffffffffffffffffffffffffffffffffffffc36011261023b5760207f9d90a82ec1d038d4e13317a0eb136f9c65b7ed42156fc204ec4b7c4731e739509173ffffffffffffffffffffffffffffffffffffffff610d94612a95565b610d9c6135e6565b1690817fffffffffffffffffffffffff0000000000000000000000000000000000000000600a541617600a5551908152a180f35b50503461023b57817ffffffffffffffffffffffffffffffffffffffffffffffffffffffffffffffffc36011261023b57602090610e0b61350b565b9051908152f35b50503461023b57817ffffffffffffffffffffffffffffffffffffffffffffffffffffffffffffffffc36011261023b5760209073ffffffffffffffffffffffffffffffffffffffff600954169051908152f35b50503461023b57817ffffffffffffffffffffffffffffffffffffffffffffffffffffffffffffffffc36011261023b5760209073ffffffffffffffffffffffffffffffffffffffff600654169051908152f35b828434610f6f57602092837ffffffffffffffffffffffffffffffffffffffffffffffffffffffffffffffffc36011261023b5790829181838051610efb8161293e565b82815260608882015201523581526002845220610f62825192610f1d8461293e565b82548452606060ff6002610f33600187016133dc565b958888019687520154169382860194151585528251968796818852519087015251918501526080840190612c62565b9051151560608301520390f35b80fd5b905034610ba45760207ffffffffffffffffffffffffffffffffffffffffffffffffffffffffffffffffc360112610ba4577f5a5fab736bb25f660ff902a421818c06b970866f4b164d46e8f04f6b838433f5916020913590610fd26135e6565b8160105551908152a180f35b50503461023b57817ffffffffffffffffffffffffffffffffffffffffffffffffffffffffffffffffc36011261023b57610d1e9061101a613358565b9051918291602083526020830190612c62565b50503461023b5760807ffffffffffffffffffffffffffffffffffffffffffffffffffffffffffffffffc36011261023b57602090610e0b61106c612a95565b611074612abd565b906064359160443591613443565b828434610f6f5760207ffffffffffffffffffffffffffffffffffffffffffffffffffffffffffffffffc360112610f6f5782359254831015610f6f575073ffffffffffffffffffffffffffffffffffffffff6110df602093612bfd565b92905490519260031b1c168152f35b50503461023b57817ffffffffffffffffffffffffffffffffffffffffffffffffffffffffffffffffc36011261023b5773ffffffffffffffffffffffffffffffffffffffff60209254169051908152f35b83833461023b57817ffffffffffffffffffffffffffffffffffffffffffffffffffffffffffffffffc36011261023b578051918284549081815260208091019583527f8a35acfbc15ff81a39ae7d344fd709f28e8600b4aa8c65c6b64bfe7fe36bd19b92905b8282106111cf57610d1e86866111bd828b03836129de565b51918291602083526020830190612c62565b835473ffffffffffffffffffffffffffffffffffffffff16875295860195600193840193909101906111a5565b50503461023b57817ffffffffffffffffffffffffffffffffffffffffffffffffffffffffffffffffc36011261023b5760207f62e78cea01bee320cd4e420270b5ea74000d11b0c9f74754ebdbfc544b05a258916112586135e6565b611260613842565b740100000000000000000000000000000000000000007fffffffffffffffffffffff00ffffffffffffffffffffffffffffffffffffffff85541617845551338152a180f35b50503461023b57817ffffffffffffffffffffffffffffffffffffffffffffffffffffffffffffffffc36011261023b5760209073ffffffffffffffffffffffffffffffffffffffff600b54169051908152f35b50503461023b57807ffffffffffffffffffffffffffffffffffffffffffffffffffffffffffffffffc36011261023b576113ad9073ffffffffffffffffffffffffffffffffffffffff611349612a95565b916113526135e6565b61135e610b2884614299565b517f23b872dd0000000000000000000000000000000000000000000000000000000060208201523360248083019190915230604483015235606480830191909152815291610b706084846129de565b80f35b828434610f6f57807ffffffffffffffffffffffffffffffffffffffffffffffffffffffffffffffffc360112610f6f578151918282600f546113f1816128eb565b9081845260209560019187600182169182600014611491575050600114611435575b505050610d1e92916114269103856129de565b51928284938452830190612a1f565b9190869350600f83527f8d1108e10bcb7c27dddfc02ed9d693a074039d026cf4ea4240b40f7d581ac8025b8284106114795750505082010181611426610d1e611413565b8054848a018601528895508794909301928101611460565b7fffffffffffffffffffffffffffffffffffffffffffffffffffffffffffffff00168782015293151560051b860190930193508492506114269150610d1e9050611413565b8334610f6f57807ffffffffffffffffffffffffffffffffffffffffffffffffffffffffffffffffc360112610f6f5761150d6135e6565b8073ffffffffffffffffffffffffffffffffffffffff81547fffffffffffffffffffffffff000000000000000000000000000000000000000081168355167f8be0079c531659141344cd1fd0a4f28419497f9722a3daafe3b4186f6b6457e08280a380f35b905034610ba45760207ffffffffffffffffffffffffffffffffffffffffffffffffffffffffffffffffc360112610ba457803567ffffffffffffffff8111610aac576115c19036908301612c34565b5050602073ffffffffffffffffffffffffffffffffffffffff600654168351928380927f741bef1a0000000000000000000000000000000000000000000000000000000082525afa90811561166e57610d1e9161162591859161163f575b506147dc565b839291925193849315158452806020850152830190612a1f565b611661915060203d602011611667575b61165981836129de565b810190612f00565b8461161f565b503d61164f565b505051903d90823e3d90fd5b8334610f6f5760207ffffffffffffffffffffffffffffffffffffffffffffffffffffffffffffffffc360112610f6f5773ffffffffffffffffffffffffffffffffffffffff6116c7612a95565b6116cf6135e6565b167fffffffffffffffffffffffff0000000000000000000000000000000000000000600954161760095580f35b50503461023b57817ffffffffffffffffffffffffffffffffffffffffffffffffffffffffffffffffc36011261023b5760ff6020925460a01c1690519015158152f35b83833461023b577ffffffffffffffffffffffffffffffffffffffffffffffffffffffffffffffffc360112610f6f5767ffffffffffffffff8235818111610ba45761178d9036908501612c34565b93602435838111611aff576117a59036908301612c34565b9390956117b06135e6565b818111611ad357806117c3600e546128eb565b94601f95868111611a87575b5087908683116001146119c65788926119bb575b50507fffffffffffffffffffffffffffffffffffffffffffffffffffffffffffffffff8260011b9260031b1c191617600e555b831161198f5750611828600f546128eb565b81811161193d575b508290821160011461188657829382939261187b575b50507fffffffffffffffffffffffffffffffffffffffffffffffffffffffffffffffff8260011b9260031b1c191617600f5580f35b013590508380611846565b7fffffffffffffffffffffffffffffffffffffffffffffffffffffffffffffffe08216937f8d1108e10bcb7c27dddfc02ed9d693a074039d026cf4ea4240b40f7d581ac80291845b86811061192557508360019596106118ed575b505050811b01600f5580f35b7fffffffffffffffffffffffffffffffffffffffffffffffffffffffffffffffff60f88560031b161c199101351690558380806118e1565b909260206001819286860135815501940191016118ce565b611980907f8d1108e10bcb7c27dddfc02ed9d693a074039d026cf4ea4240b40f7d581ac8028380860160051c82019260208710611986575b0160051c0190612cee565b84611830565b92508192611975565b8360416024927f4e487b7100000000000000000000000000000000000000000000000000000000835252fd5b0135905088806117e3565b90917fffffffffffffffffffffffffffffffffffffffffffffffffffffffffffffffe01691600e89527fbb7b4a454dc3493923482f07822329ed19e8244eff582cc204f8554c3620c3fd92895b818110611a6f5750908460019594939210611a37575b505050811b01600e55611816565b7fffffffffffffffffffffffffffffffffffffffffffffffffffffffffffffffff60f88560031b161c19910135169055888080611a29565b91936020600181928787013581550195019201611a13565b611acd90600e8a527fbb7b4a454dc3493923482f07822329ed19e8244eff582cc204f8554c3620c3fd8880860160051c82019260208710611986570160051c0190612cee565b896117cf565b6024866041857f4e487b7100000000000000000000000000000000000000000000000000000000835252fd5b8480fd5b8334610f6f57807ffffffffffffffffffffffffffffffffffffffffffffffffffffffffffffffffc360112610f6f576113ad6139f9565b83833461023b57602092837ffffffffffffffffffffffffffffffffffffffffffffffffffffffffffffffffc360112610ba4578373ffffffffffffffffffffffffffffffffffffffff611b8b612a95565b169160248451809481937f70a0823100000000000000000000000000000000000000000000000000000000835230908301525afa928315611c07578093611bd5575b505051908152f35b909192508382813d8311611c00575b611bee81836129de565b81010312610f6f575051908380611bcd565b503d611be4565b8251903d90823e3d90fd5b83833461023b5760a07ffffffffffffffffffffffffffffffffffffffffffffffffffffffffffffffffc36011261023b57611c4b612a95565b91611c54612abd565b906044356064359060843592611c686135e6565b855160a0810181811067ffffffffffffffff821117611d8357875273ffffffffffffffffffffffffffffffffffffffff8098169586825288602083019116988982528883018581526060840191878352886080860152600d5494611ccb866132b9565b600d55610e10420196874211611d56575060209d509181611d08969492611d11989694611cf661387b565b505116935116905191519230306142ee565b600c54906138b9565b958551948552878501528484015260608301526080820152827f323c05cdeadfff71a7441e36a3a55c023180f013af664c0fc25687e2b5a2bf4560a03093a351908152f35b6024915060118f7f4e487b7100000000000000000000000000000000000000000000000000000000835252fd5b60248360418c7f4e487b7100000000000000000000000000000000000000000000000000000000835252fd5b905034610ba45760207ffffffffffffffffffffffffffffffffffffffffffffffffffffffffffffffffc360112610ba45791819235815260026020522060ff6002825492015416825191825215156020820152f35b8391503461023b57602092837ffffffffffffffffffffffffffffffffffffffffffffffffffffffffffffffffc360112610ba45767ffffffffffffffff918035838111611aff57611e589036908301612c34565b5050611e62613842565b73ffffffffffffffffffffffffffffffffffffffff9283600a541633036122235781908685600654168551938480927f741bef1a0000000000000000000000000000000000000000000000000000000082525afa9182156122195786926121fa575b506007548692835b8281106120985750505083519260c08401918483109083111761206c57508352611f30606092600a6080930480825260058983015262989680868301526060820152600f6080820152670de0b6b3a764000060a0820152611f2b613358565b61445c565b90835190878201908883528351809252858301918985019189905b8b83831061203757505050505090807f392ba15c29c60d794434c0fb16db409c7ab1489f7cb2a99badebc06ad8488374920390a1845b81518110156120335780611f9760019284612d4d565b5186815116907f7603cff60dc3d7d1025c12f1b8ade67aa4b048ccf2c115ac624b5cbfdfe975948a820192898451169061202a8b80611fe28d8801948d8651908a0197885192613443565b965116965116915192518b519384933098859092606092959493608083019673ffffffffffffffffffffffffffffffffffffffff809216845216602083015260408201520152565b0390a301611f81565b8580f35b845180518c168752818101518c16828801528a8101518b88015289015189870152948101949093019260019190910190611f4b565b8660416024927f4e487b7100000000000000000000000000000000000000000000000000000000835252fd5b876120a282612b97565b90549060031b1c1687517f70a08231000000000000000000000000000000000000000000000000000000008152308882015260248c828281865afa9182156121f057908c9182936121b9575b5082612101575b50505050600101611ecc565b8a98949851937f7de4fd100000000000000000000000000000000000000000000000000000000085528a8501528301528b826044818d88165afa9182156121af578b92612174575b5091670de0b6b3a764000061216361216a93600195612cac565b04906132e6565b94908b8a816120f5565b9091508b81813d83116121a8575b61218c81836129de565b810103126121a4575190670de0b6b3a7640000612149565b8a80fd5b503d612182565b89513d8d823e3d90fd5b8e809294508193503d83116121e9575b6121d381836129de565b810103126121e5578b9051918e6120ee565b8b80fd5b503d6121c9565b8a513d8e823e3d90fd5b612212919250873d89116116675761165981836129de565b9087611ec4565b84513d88823e3d90fd5b508460649251917f08c379a0000000000000000000000000000000000000000000000000000000008352820152601860248201527f4e6f7420617574686f72697a656420666f7277617264657200000000000000006044820152fd5b50503461023b57817ffffffffffffffffffffffffffffffffffffffffffffffffffffffffffffffffc36011261023b576060906122ba61308a565b90839293519384526020840152151590820152f35b50503461023b57807ffffffffffffffffffffffffffffffffffffffffffffffffffffffffffffffffc36011261023b57602090610e0b61230d612a95565b60243590612f65565b905034610ba457827ffffffffffffffffffffffffffffffffffffffffffffffffffffffffffffffffc360112610ba45761234e6135e6565b82549060ff8260a01c16156123af57507f5db9ee0a495bf2e6ff9c91a7834c1ba4fdd244a5e8aa4e537bd38aeae4b073aa917fffffffffffffffffffffff00ffffffffffffffffffffffffffffffffffffffff60209216845551338152a180f35b82517f8dfc202b000000000000000000000000000000000000000000000000000000008152fd5b50503461023b57817ffffffffffffffffffffffffffffffffffffffffffffffffffffffffffffffffc36011261023b5760209073ffffffffffffffffffffffffffffffffffffffff600a54169051908152f35b905034610ba45760207ffffffffffffffffffffffffffffffffffffffffffffffffffffffffffffffffc360112610ba4573591600754831015610f6f575073ffffffffffffffffffffffffffffffffffffffff6110df602093612b97565b50503461023b5760207ffffffffffffffffffffffffffffffffffffffffffffffffffffffffffffffffc36011261023b5760ff8160209373ffffffffffffffffffffffffffffffffffffffff6124db612a95565b1681526008855220541690519015158152f35b905034610ba457817ffffffffffffffffffffffffffffffffffffffffffffffffffffffffffffffffc360112610ba4576024359067ffffffffffffffff8211610aac5736602383011215610aac578181013561254981612b5d565b92612556855194856129de565b8184523660248383010111610aa8579160209586837fffffffff00000000000000000000000000000000000000000000000000000000969460246125a39701838701378401015235612d61565b915191168152f35b50503461023b57817ffffffffffffffffffffffffffffffffffffffffffffffffffffffffffffffffc36011261023b576020906005549051908152f35b91905034610ba45760209260207ffffffffffffffffffffffffffffffffffffffffffffffffffffffffffffffffc360112610f6f57823567ffffffffffffffff811161023b5761263b9036908501612ae0565b926126446135e6565b815b6007548110156126ae578073ffffffffffffffffffffffffffffffffffffffff612671600193612b97565b90549060031b1c168452600887528484207fffffffffffffffffffffffffffffffffffffffffffffffffffffffffffffff00815416905501612646565b5093919060079260075482600755806127db575b50815b855181101561279c5773ffffffffffffffffffffffffffffffffffffffff806126ee8389612d4d565b511690865491680100000000000000008310156127705790600193929161271a85938481018b55612b97565b83829392549160031b92831b921b1916179055612737838a612d4d565b5116855260088452858520907fffffffffffffffffffffffffffffffffffffffffffffffffffffffffffffff00825416179055016126c5565b60248660418c7f4e487b7100000000000000000000000000000000000000000000000000000000835252fd5b827f05ceb613a91160c27bc798daf304568529eb02f563b31317bee548c8d2e3f7b26127d5888751918291602083526020830190612c62565b0390a180f35b600783527fa66cc928b5edb82af9bd49922954155ab7b0942694bea4ce44661d9a8736c688908101905b81811061281257506126c2565b838155600101612805565b84843461023b57817ffffffffffffffffffffffffffffffffffffffffffffffffffffffffffffffffc36011261023b578282600e5461285b816128eb565b908184526020956001918760018216918260001461149157505060011461288f57505050610d1e92916114269103856129de565b9190869350600e83527fbb7b4a454dc3493923482f07822329ed19e8244eff582cc204f8554c3620c3fd5b8284106128d35750505082010181611426610d1e611413565b8054848a0186015288955087949093019281016128ba565b90600182811c92168015612934575b602083101461290557565b7f4e487b7100000000000000000000000000000000000000000000000000000000600052602260045260246000fd5b91607f16916128fa565b6060810190811067ffffffffffffffff82111761295a57604052565b7f4e487b7100000000000000000000000000000000000000000000000000000000600052604160045260246000fd5b610100810190811067ffffffffffffffff82111761295a57604052565b6080810190811067ffffffffffffffff82111761295a57604052565b6020810190811067ffffffffffffffff82111761295a57604052565b90601f7fffffffffffffffffffffffffffffffffffffffffffffffffffffffffffffffe0910116810190811067ffffffffffffffff82111761295a57604052565b919082519283825260005b848110612a695750507fffffffffffffffffffffffffffffffffffffffffffffffffffffffffffffffe0601f8460006020809697860101520116010190565b602081830181015184830182015201612a2a565b67ffffffffffffffff811161295a5760051b60200190565b6004359073ffffffffffffffffffffffffffffffffffffffff82168203612ab857565b600080fd5b6024359073ffffffffffffffffffffffffffffffffffffffff82168203612ab857565b9080601f83011215612ab8576020908235612afa81612a7d565b93612b0860405195866129de565b81855260208086019260051b820101928311612ab857602001905b828210612b31575050505090565b813573ffffffffffffffffffffffffffffffffffffffff81168103612ab8578152908301908301612b23565b67ffffffffffffffff811161295a57601f017fffffffffffffffffffffffffffffffffffffffffffffffffffffffffffffffe01660200190565b600754811015612bce5760076000527fa66cc928b5edb82af9bd49922954155ab7b0942694bea4ce44661d9a8736c6880190600090565b7f4e487b7100000000000000000000000000000000000000000000000000000000600052603260045260246000fd5b600454811015612bce5760046000527f8a35acfbc15ff81a39ae7d344fd709f28e8600b4aa8c65c6b64bfe7fe36bd19b0190600090565b9181601f84011215612ab85782359167ffffffffffffffff8311612ab85760208381860195010111612ab857565b90815180825260208080930193019160005b828110612c82575050505090565b835173ffffffffffffffffffffffffffffffffffffffff1685529381019392810192600101612c74565b81810292918115918404141715612cbf57565b7f4e487b7100000000000000000000000000000000000000000000000000000000600052601160045260246000fd5b818110612cf9575050565b60008155600101612cee565b9068010000000000000000811161295a57815490808355818110612d2857505050565b612d3e9260005260206000209182019101612cee565b565b805115612bce5760200190565b8051821015612bce5760209160051b010190565b90612dac8160405160208101907f19457468657265756d205369676e6564204d6573736167653a0a333200000000825285603c820152603c8152612da48161293e565b519020613637565b506004811015612e6b57159081612ec0575b50612e9a57612dcc91613637565b506004811015612e6b57159081612e2b575b50612e07577fffffffff0000000000000000000000000000000000000000000000000000000090565b7f1626ba7e0000000000000000000000000000000000000000000000000000000090565b60095473ffffffffffffffffffffffffffffffffffffffff91821690821681149250908215612e5d575b505038612dde565b600054161490503880612e55565b7f4e487b7100000000000000000000000000000000000000000000000000000000600052602160045260246000fd5b50507f1626ba7e0000000000000000000000000000000000000000000000000000000090565b60095473ffffffffffffffffffffffffffffffffffffffff91821690821681149250908215612ef2575b505038612dbe565b600054161490503880612eea565b90816020910312612ab8575173ffffffffffffffffffffffffffffffffffffffff81168103612ab85790565b8115612f36570490565b7f4e487b7100000000000000000000000000000000000000000000000000000000600052601260045260246000fd5b73ffffffffffffffffffffffffffffffffffffffff9081600654166040519283917f741bef1a00000000000000000000000000000000000000000000000000000000835282600460209687935afa92831561305c578492600094613068575b506044908260405195869485937f7de4fd1000000000000000000000000000000000000000000000000000000000855216600484015260006024840152165afa91821561305c5760009261302c575b505061302890670de0b6b3a764000092612cac565b0490565b90809250813d8311613055575b61304381836129de565b81010312612ab8575181613028613013565b503d613039565b6040513d6000823e3d90fd5b604491945061308390843d86116116675761165981836129de565b9390612fc4565b61309261350b565b9081156132ae57600080600754905b8181106130c15750506130b49083613673565b906130be8361368d565b90565b6130ca81612b97565b9073ffffffffffffffffffffffffffffffffffffffff918291549060031b1c166040918251917f70a08231000000000000000000000000000000000000000000000000000000008352600490308285015260209160249383868681865afa9586156132a357600096613274575b508561314d575b505050505050506001016130a1565b81848260069c9a9c54168951928380927f741bef1a0000000000000000000000000000000000000000000000000000000082525afa90811561326957918594939160449360009161324c575b5060008a5198899687957f7de4fd10000000000000000000000000000000000000000000000000000000008752860152840152165afa9384156132425750600093613207575b505091670de0b6b3a76400006121636131fa93600195612cac565b929038808080808061313e565b8181949293943d831161323b575b61321f81836129de565b81010312610f6f57505190670de0b6b3a76400006121636131df565b503d613215565b513d6000823e3d90fd5b6132639150863d88116116675761165981836129de565b38613199565b88513d6000823e3d90fd5b90958482813d831161329c575b61328b81836129de565b81010312610f6f5750519438613137565b503d613281565b87513d6000823e3d90fd5b600091508190600190565b7fffffffffffffffffffffffffffffffffffffffffffffffffffffffffffffffff8114612cbf5760010190565b91908201809211612cbf57565b156132fa57565b60646040517f08c379a000000000000000000000000000000000000000000000000000000000815260206004820152601c60248201527f4173736574206e6f7420666f756e6420696e20616e792067726f7570000000006044820152fd5b6040519060075480835282602091602082019060076000527fa66cc928b5edb82af9bd49922954155ab7b0942694bea4ce44661d9a8736c688936000905b8282106133ac57505050612d3e925003836129de565b855473ffffffffffffffffffffffffffffffffffffffff1684526001958601958895509381019390910190613396565b90604051918281549182825260209260208301916000526020600020936000905b82821061341357505050612d3e925003836129de565b855473ffffffffffffffffffffffffffffffffffffffff16845260019586019588955093810193909101906133fd565b91929061344e6135e6565b670de0b6b3a764000093846134638483612cac565b0491600d5495613472876132b9565b600d55610e10420190814211612cbf576134bc611d08613505936134c59a7f7603cff60dc3d7d1025c12f1b8ade67aa4b048ccf2c115ac624b5cbfdfe975949888888d30306142ee565b97889685612cac565b046040519384933098859092606092959493608083019673ffffffffffffffffffffffffffffffffffffffff809216845216602083015260408201520152565b0390a390565b60008060048054905b8183106135215750505090565b90919273ffffffffffffffffffffffffffffffffffffffff61354285612bfd565b90549060031b1c1660409081517f70a08231000000000000000000000000000000000000000000000000000000008152308582015260208082602481865afa93841561324257506000936135b2575b5050916135a36135a992600194612f65565b906132e6565b93019190613514565b8181949293943d83116135df575b6135ca81836129de565b81010312610f6f575051906135a36001613591565b503d6135c0565b73ffffffffffffffffffffffffffffffffffffffff60005416330361360757565b60246040517f118cdaa7000000000000000000000000000000000000000000000000000000008152336004820152fd5b81519190604183036136685761366192506020820151906060604084015193015160001a906143bf565b9192909190565b505060009160029190565b8015613686576127106130be9202612f2c565b5050600090565b6003549060005b8281106136a357505050600190565b80600052600260209080825260ff60409182600020928051936136c58561293e565b8054855260019384936136d98584016133dc565b9288880193845201541615158286015260009586945b613750575b5050505050606491828102928184041490151715612cbf5761371884600593612f2c565b90519081811115613742579061372d916139ec565b1161373a57600101613694565b505050600090565b61374b916139ec565b61372d565b90919293958251805188101561383b57878360249261378573ffffffffffffffffffffffffffffffffffffffff938492612d4d565b51168751938480927f70a082310000000000000000000000000000000000000000000000000000000082523060048301525afa9182156138305790879695949392916000926137f4575b50916135a36137ec9288946137e58d8951612d4d565b5116612f65565b9701946136ef565b91909293809596975082813d8311613829575b61381181836129de565b81010312610f6f5750518695949392916135a36137cf565b503d613807565b86513d6000823e3d90fd5b50956136f4565b60ff60005460a01c1661385157565b60046040517fd93c0665000000000000000000000000000000000000000000000000000000008152fd5b6040519061388882612989565b8160e06000918281528260208201528260408201528260608201528260808201528260a08201528260c08201520152565b80519073ffffffffffffffffffffffffffffffffffffffff80602083015116918160408201511691806060830151169060808301511660a08301519160e060c085015194015194604051966020880198895260408801526060870152608086015260a085015260c084015260e08301526101009081830152815261012081019181831067ffffffffffffffff84111761295a57610162908360405282519020916101408101947f19010000000000000000000000000000000000000000000000000000000000008652610142820152015260428152613997816129a6565b51902090565b906139a782612a7d565b6139b460405191826129de565b8281527fffffffffffffffffffffffffffffffffffffffffffffffffffffffffffffffe06139e28294612a7d565b0190602036910137565b91908203918211612cbf57565b613a0161350b565b801561429657600354613a138161399d565b90613a1d81612a7d565b92613a2b60405194856129de565b8184527fffffffffffffffffffffffffffffffffffffffffffffffffffffffffffffffe0613a5883612a7d565b0160005b81811061428557505060009060006010545b848210613bb057505050613a8157505050565b6004549291613a98613a928561399d565b9461399d565b926000926000925b818410613b24575050505050613ac160405192604084526040840190612c62565b60209083810360208501526020808451928381520193019160005b828110613b10575050505090807f49eb56415ad74aa1cb4921343ded5a68ae5f5d7455e12bb65975bbcf857e1413920390a1565b835185529381019392810192600101613adc565b919492959093966000975b613b398888612d4d565b5151891015613b9b57613b9360019173ffffffffffffffffffffffffffffffffffffffff613b718c613b6b8d8d612d4d565b51612d4d565b5116613b7d8287612d4d565b52613b888a87612d4d565b5161076f8289612d4d565b980197613b2f565b92919660019198509593950192919390613aa0565b8160009896949293979598526002948560205260406000209660ff60405197613bd88961293e565b89548952613be860018b016133dc565b9960208a019a8b5201541693604088019415158552600091825b8a518051851015613cd257846020602492613c3373ffffffffffffffffffffffffffffffffffffffff938492612d4d565b5116604051938480927f70a082310000000000000000000000000000000000000000000000000000000082523060048301525afa91821561305c578d8791600094613c98575b5092600194926137e56135a393613c909651612d4d565b930192613c02565b92939150506020823d602011613cca575b81613cb6602093836129de565b81010312610f6f57505190858d6001613c79565b3d9150613ca9565b50919799939a96949592509a97606482029180830460641490151715612cbf57613cfd878793612f2c565b905190818111156142775790613d12916139ec565b80613d1d868c612d4d565b528351613d2a868d612d4d565b52613d35858c612d4d565b501161426e575b51151580614262575b613d54575b5060010190613a6e565b93949590919697600798895415600081156000146142565750612bce5760049960005273ffffffffffffffffffffffffffffffffffffffff7fa66cc928b5edb82af9bd49922954155ab7b0942694bea4ce44661d9a8736c6885416955b5197602073ffffffffffffffffffffffffffffffffffffffff600654166040519c8d80927f741bef1a0000000000000000000000000000000000000000000000000000000082525afa9a8b1561305c5760009b614235575b50949160009991979997600096879b5b8b5160018e011015613f945760018d018e5b8d51821015613f875760208f8f9073ffffffffffffffffffffffffffffffffffffffff613e678682613e5f60649587612d4d565b511694612d4d565b51169173ffffffffffffffffffffffffffffffffffffffff60405195869485937f802431fb0000000000000000000000000000000000000000000000000000000085526004850152602484015260006044840152165afa90811561305c57600091613f55575b50670de444324c2a800081118015613f3b575b613eef575b506001018e613e2b565b9b5098506001809b670de0b6b3a7640000808211600014613f3557507ffffffffffffffffffffffffffffffffffffffffffffffffff21f494c589c0000015b9990613ee5565b03613f2e565b50670de0b6b3a764000066038d7ea4c68000820110613ee0565b906020823d602011613f7f575b81613f6f602093836129de565b81010312610f6f57505138613ecd565b3d9150613f62565b50506001909c019b613e19565b98929c919b50989295949996939673ffffffffffffffffffffffffffffffffffffffff8316613fde575b50505015613d4a5793506001908194613fd78289612d4d565b5290613d4a565b98919b939660009b939b9a969598919a5b8a51811015614220578d8c8c73ffffffffffffffffffffffffffffffffffffffff831673ffffffffffffffffffffffffffffffffffffffff6140318684612d4d565b5116146142155773ffffffffffffffffffffffffffffffffffffffff9160648361405d87602095612d4d565b511660405194859384927f802431fb000000000000000000000000000000000000000000000000000000008452600484015281602498168884015260006044840152165afa90811561305c576000916141e3575b50670de444324c2a800081118015614194575b6140d5575b50506001905b01613fef565b60019e50919950670de0b6b3a76400006000818411156141555750507ffffffffffffffffffffffffffffffffffffffffffffffffff21f494c589c0000820191821161412857506001905b9890386140c9565b7f4e487b710000000000000000000000000000000000000000000000000000000060005260116004526000fd5b9092830392831161416a575050600190614120565b7f4e487b710000000000000000000000000000000000000000000000000000000081526011600452fd5b5066038d7ea4c6800081018082116141b557670de0b6b3a7640000116140c4565b827f4e487b710000000000000000000000000000000000000000000000000000000060005260116004526000fd5b906020823d60201161420d575b816141fd602093836129de565b81010312610f6f575051386140b1565b3d91506141f0565b5050506001906140cf565b5096939b509693949850965097388080613fbe565b61424f919b5060203d6020116116675761165981836129de565b9938613e09565b905060049a5095613db1565b50600181515111613d45565b60019550613d3c565b614280916139ec565b613d12565b806060602080938901015201613a5c565b50565b6004549060005b8281106142af57505050600090565b6142b881612bfd565b9073ffffffffffffffffffffffffffffffffffffffff90548185169260031b1c16146142e6576001016142a0565b505050600190565b9092919695966142fc61387b565b5065010000000000871015614361576040519761431889612989565b885273ffffffffffffffffffffffffffffffffffffffff80948180941660208b015216604089015216606087015216608085015260a084015260c083015260501b60e082015290565b60646040517f08c379a000000000000000000000000000000000000000000000000000000000815260206004820152601060248201527f45787069727920746f6f206c61726765000000000000000000000000000000006044820152fd5b91907f7fffffffffffffffffffffffffffffff5d576e7357a4501ddfe92f46681b20a0841161445057926020929160ff608095604051948552168484015260408301526060820152600092839182805260015afa1561444457805173ffffffffffffffffffffffffffffffffffffffff81161561443b57918190565b50809160019190565b604051903d90823e3d90fd5b50505060009160039190565b9060208101908151156147cd57825191600283106147bd5751928360011b9380850460021481151715612cbf577fffffffffffffffffffffffffffffffffffffffffffffffffffffffffffffffff84019384119485612cbf57846144bf91612cac565b806147ac57506000905b604084019182518110600014614742575050518060011b9080820460021490151715612cbf5784612cbf57836144fe91612cac565b8061473157506000935b8415614728575b8415614710578460011b90858204600203612cbf57612cbf578361453291612cac565b9361453e858451612f2c565b7fffffffffffffffffffffffffffffffffffffffffffffffffffffffffffffffe061458161456b88612a7d565b97614579604051998a6129de565b808952612a7d565b0160005b8181106146dd5750506000906080850151670de0b6b3a764000090808202918204036146b05761271060a09104950151825b8781106145c957505050505050505090565b8873ffffffffffffffffffffffffffffffffffffffff806145ea848a612d4d565b5116906145fa600185018a612d4d565b511660005b888b818310614616575050505050506001016145b7565b9861462d6146a59260019596979b86860102612f2c565b9960026040519261463d846129a6565b8884528760208501528b60408501528c8b016060850152868101936146628285612d4d565b5261466d8184612d4d565b508b60606040519e8f92614680846129a6565b8b84528c602085015260408401528d03910152019a61469f8383612d4d565b52612d4d565b5001908b92916145ff565b6024837f4e487b710000000000000000000000000000000000000000000000000000000081526011600452fd5b6020906040516146ec816129a6565b60008152600083820152600060408201526000606082015282828b01015201614585565b5050505050604051614721816129c2565b6000815290565b6001945061450f565b61473c908351612f2c565b93614508565b909591506060840151809111614759575b5061450f565b9450508360011b9380850460021490151715612cbf5761477b83600095612cac565b8061479b5750835b60648511614792575b38614753565b6064945061478c565b6147a6908351612f2c565b93614783565b6147b7908451612f2c565b906144c9565b50505050604051614721816129c2565b505050604051614721816129c2565b906007546001811115614ce6578015612bce57600760005273ffffffffffffffffffffffffffffffffffffffff7fa66cc928b5edb82af9bd49922954155ab7b0942694bea4ce44661d9a8736c688541660015b828110614b7d57505060005b6001810182811015614b61575b828110614858575060010161483b565b614863829492612b97565b905473ffffffffffffffffffffffffffffffffffffffff8061488485612b97565b90549060031b1c1691604051937f802431fb00000000000000000000000000000000000000000000000000000000855260031b1c16600483015260248201526000604482015260208160648173ffffffffffffffffffffffffffffffffffffffff8a165afa60009181614b2d575b50614ace575b5073ffffffffffffffffffffffffffffffffffffffff61491782612b97565b90549060031b1c1673ffffffffffffffffffffffffffffffffffffffff61493d86612b97565b90549060031b1c16604051917f802431fb000000000000000000000000000000000000000000000000000000008352600483015260248201526000604482015260208160648173ffffffffffffffffffffffffffffffffffffffff8a165afa60009181614a9a575b506149b7575b50600101929092614848565b670de444324c2a800081118015614a80575b156149ab579450614a7a925073ffffffffffffffffffffffffffffffffffffffff614a0b816149fd614a4e94979597612b97565b90549060031b1c1693612b97565b90549060031b1c16946040519586936020850160409194939294606082019573ffffffffffffffffffffffffffffffffffffffff80921683521660208201520152565b037fffffffffffffffffffffffffffffffffffffffffffffffffffffffffffffffe081018452836129de565b60019190565b50670de0b6b3a764000066038d7ea4c680008201106149c9565b9091506020813d602011614ac6575b81614ab6602093836129de565b81010312612ab8575190386149a5565b3d9150614aa9565b670de444324c2a800081118015614b13575b156148f85794509092614a7a925073ffffffffffffffffffffffffffffffffffffffff614a0b816149fd614a4e94612b97565b50670de0b6b3a764000066038d7ea4c68000820110614ae0565b9091506020813d602011614b59575b81614b49602093836129de565b81010312612ab8575190386148f2565b3d9150614b3c565b505050905060405190614b73826129c2565b6000825260009190565b614b8681612b97565b90549060039073ffffffffffffffffffffffffffffffffffffffff6040938451927f802431fb000000000000000000000000000000000000000000000000000000008452841b1c16600482015284602482015260006044820152602091828260648173ffffffffffffffffffffffffffffffffffffffff8d165afa60009281614cb7575b50614c1c575b5050505060010161482f565b670de444324c2a800082118015614c9d575b15614c105773ffffffffffffffffffffffffffffffffffffffff91939850614a7a9650614c60614a4e95969396612b97565b9054911b1c169651968794850160409194939294606082019573ffffffffffffffffffffffffffffffffffffffff80921683521660208201520152565b50670de0b6b3a764000066038d7ea4c68000830110614c2e565b9092508381813d8311614cdf575b614ccf81836129de565b81010312612ab857519138614c0a565b503d614cc5565b506040519150614b73826129c2565b73ffffffffffffffffffffffffffffffffffffffff1690614d4d600080836020829551910182875af13d15614dbe573d90614d2f82612b5d565b91614d3d60405193846129de565b82523d84602084013e5b84614dc6565b908151918215159283614d96575b505050614d655750565b602490604051907f5274afe70000000000000000000000000000000000000000000000000000000082526004820152fd5b81929350906020918101031261023b576020015190811591821503610f6f5750388080614d5b565b606090614d47565b90614e055750805115614ddb57805190602001fd5b60046040517f1425ea42000000000000000000000000000000000000000000000000000000008152fd5b81511580614e5d575b614e16575090565b60249073ffffffffffffffffffffffffffffffffffffffff604051917f9996b315000000000000000000000000000000000000000000000000000000008352166004820152fd5b50803b15614e0e56fea2646970667358221220cc74d0d3ed05d8db537de9f3d6b4e2f44a2bac27153b419510043c30b956945b64736f6c634300081700338d1108e10bcb7c27dddfc02ed9d693a074039d026cf4ea4240b40f7d581ac8026080806040523462000fd1576200586880380380916200002082856200101f565b833981016101208282031262000fd1576200003b8262001043565b906200004a6020840162001043565b60408401519092906001600160401b03811162000fd157826200006f91860162001070565b60608501519092906001600160401b03811162000fd15785019381601f8601121562000fd157845194620000a38662001058565b95620000b360405197886200101f565b80875260208088019160051b8301019184831162000fd157602001905b82821062000fd657505050608086015160a08701519093906001600160401b03811162000fd157836200010591890162001070565b966200011460c0820162001043565b60e08201519091906001600160401b03811162000fd1578562000139918301620010e3565b6101008201519095906001600160401b03811162000fd1576200015d9201620010e3565b926001600160a01b0383161562000fb85760008054906001600160a01b0385811691908316907f8be0079c531659141344cd1fd0a4f28419497f9722a3daafe3b4186f6b6457e09080a36001600160a81b0319166001600160a01b0384811691909117600090815560018055600680546001600160a01b031916939092169290921790555b8851811015620002c7576001600160a01b0362000200828b62001180565b5116906007549168010000000000000000831015620002b15760018301806007558310156200029b5760076000527fa66cc928b5edb82af9bd49922954155ab7b0942694bea4ce44661d9a8736c68890920180546001600160a01b0319169092179091556001906001600160a01b036200027b828c62001180565b5116600052600860205260406000208260ff1982541617905501620001e2565b634e487b7160e01b600052603260045260246000fd5b634e487b7160e01b600052604160045260246000fd5b50879680511562000f735786511562000f395792948688916000946000946000975b8451891015620003985760009960005b875181101562000387576001600160a01b03620003178c8962001180565b51166001600160a01b036200032d838b62001180565b5116146200033e57600101620002f9565b5092959a9194995092976200035560019762001195565b965b1562000370575b600101979299949198939099620002e9565b966200037e60019162001195565b9790506200035e565b5092959a9194999890939862000357565b898b889697958a88151560001462000f2f5760ff60015b1690810180911162000f195784510362000ec45760005b6003548110156200041f57806001916000526002602052600060026040822082815584810180548482558062000402575b5050015501620003c6565b62000417918552602085209081019062001159565b8e80620003f7565b5088518998906001600160401b038111620002b157680100000000000000008111620002b1576004548160045580821062000e86575b5060208a016004600052602060002060005b83811062000e68575050505060006003558062000c84575b1562000c735760ff6001979395929691975b16946000965b89518810156200063e5760009860005b865181101562000630576001600160a01b03620004c58b8e62001180565b51166001600160a01b03620004db838a62001180565b511614620004ec57600101620004a7565b50929790939194985060015b156200050e575b60010196919793909262000497565b956040516200051d8162001003565b60018152602036818301376001600160a01b036200053c898d62001180565b5116620005498262001172565b5262000556828862001180565b5160405190620005668262000fe7565b815260208082019283526000604080840182905260035482526002909252208151815591518051906001600160401b038211620002b157602090620005af8360018701620011a5565b0160018401600052602060002060005b83811062000612575050505091620005f36200060992600260406001960151151591019060ff801983541691151516179055565b6200060060035462001195565b60035562001195565b969050620004ff565b82516001600160a01b031681830155602090920191600101620005bf565b5092979093919498620004f8565b42600555600980546001600160a01b0385166001600160a01b03199182168117909255600a805490911690911790558151899085906001600160401b038111620002b157600e54600181811c9116801562000c68575b6020821014620009d957601f811162000c26575b50806020601f821160011462000bad5760009162000ba1575b508160011b916000199060031b1c191617600e555b82516001600160401b038111620002b157600f54600181811c9116801562000b96575b6020821014620009d957601f811162000b54575b50806020601f821160011462000adb5760009162000acf575b508160011b916000199060031b1c191617600f555b600b80546001600160a01b0319166001600160a01b03929092169182179055604051601a906020906200076e8162001003565b828152017f31696e6368204c696d6974204f726465722050726f746f636f6c0000000000008152209060016020604051620007a98162001003565b82815201600d60fa1b815220906040519160208301937f8b73c3c69bb8fe3d512ecc4cf759cc79239f7b179b0ffacaa9a75d522b39400f85526040840152606083015246608083015260a082015260a0815260c0810181811060018060401b03821117620002b157604052519020600c556010554260115581516001600160401b038111620002b157601254600181811c9116801562000ac4575b6020821014620009d957601f811162000a71575b50602092601f821160011462000a065792819293600092620009fa575b50508160011b916000199060031b1c1916176012555b80516001600160401b038111620002b157601354600181811c91168015620009ef575b6020821014620009d957601f81116200097a575b50602091601f8211600114620009105791819260009262000904575b50508160011b916000199060031b1c1916176013555b6040516146439081620011e58239f35b015190508280620008de565b601f19821692601360005260206000209160005b858110620009615750836001951062000947575b505050811b01601355620008f4565b015160001960f88460031b161c1916905582808062000938565b9192602060018192868501518155019401920162000924565b6013600052620009c7907f66de8ffda797e3de9c05e8fc57b3bf0ec28a930d40b0d285d93c06501cf6a090601f840160051c81019160208510620009ce575b601f0160051c019062001159565b82620008c2565b9091508190620009b9565b634e487b7160e01b600052602260045260246000fd5b90607f1690620008ae565b01519050838062000875565b601f19821693601260005260206000209160005b86811062000a58575083600195961062000a3e575b505050811b016012556200088b565b015160001960f88460031b161c1916905583808062000a2f565b9192602060018192868501518155019401920162000a1a565b601260005262000abd907fbb8a6a4669ba250d26cd7a459eca9d215f8307e33aebe50379bc5a3617ec3444601f840160051c81019160208510620009ce57601f0160051c019062001159565b8362000858565b90607f169062000844565b90508401518662000726565b600f6000908152925060008051602062005848833981519152905b601f198316841062000b3b576001935082601f1981161062000b21575b5050811b01600f556200073b565b86015160001960f88460031b161c19169055868062000b13565b8681015182556020938401936001909201910162000af6565b600f60005262000b8f9060008051602062005848833981519152601f840160051c81019160208510620009ce57601f0160051c019062001159565b856200070d565b90607f1690620006f9565b905085015186620006c1565b600e6000908152925060008051602062005828833981519152905b601f198316841062000c0d576001935082601f1981161062000bf3575b5050811b01600e55620006d6565b87015160001960f88460031b161c19169055868062000be5565b8781015182556020938401936001909201910162000bc8565b600e60005262000c619060008051602062005828833981519152601f840160051c81019160208510620009ce57601f0160051c019062001159565b85620006a8565b90607f169062000694565b60ff60009793959296919762000491565b919590929462000c948362001058565b9462000ca460405196876200101f565b838652601f1962000cb58562001058565b013660208801376000966000985b8b518a101562000d6e5760005b8b5181101562000d5d576001600160a01b0362000cee8c8f62001180565b51166001600160a01b0362000d04838f62001180565b51161462000d155760010162000cd0565b50919395909294989762000d4d6001918d62000d388c858060a01b039262001180565b511662000d46828c62001180565b5262001195565b985b019894929095939162000cc3565b509193959092949860019062000d4f565b94929750949297509462000d828662001172565b516040519062000d928262000fe7565b8152602080820192835260016040830152600080526002905280517fac33ff75c19e70fe83507db0d683fd3465c996598dc972688b7ace676c89077b90815591518051906001600160401b038211620002b15760209062000df78360018701620011a5565b0160018401600052602060002060005b83811062000e4a5750505050906002604062000e34930151151591019060ff801983541691151516179055565b62000e4160035462001195565b6003556200047f565b82516001600160a01b03168183015560209092019160010162000e07565b82516001600160a01b03168183015560209092019160010162000467565b600460005262000ebd907f8a35acfbc15ff81a39ae7d344fd709f28e8600b4aa8c65c6b64bfe7fe36bd19b90810190830162001159565b8a62000455565b60405162461bcd60e51b815260206004820152602760248201527f57726f6e672070657263656e7461676520636f756e7420666f722061737365746044820152662067726f75707360c81b6064820152608490fd5b634e487b7160e01b600052601160045260246000fd5b60ff6000620003af565b60405162461bcd60e51b8152602060048201526012602482015271139bc8185cdcd95d1cc81c1c9bdd9a59195960721b6044820152606490fd5b60405162461bcd60e51b815260206004820152601760248201527f4e6f2070657263656e74616765732070726f76696465640000000000000000006044820152606490fd5b604051631e4fbdf760e01b815260006004820152602490fd5b600080fd5b8151815260209182019101620000d0565b606081019081106001600160401b03821117620002b157604052565b604081019081106001600160401b03821117620002b157604052565b601f909101601f19168101906001600160401b03821190821017620002b157604052565b51906001600160a01b038216820362000fd157565b6001600160401b038111620002b15760051b60200190565b9080601f8301121562000fd1578151906020916200108e8162001058565b936200109e60405195866200101f565b81855260208086019260051b82010192831162000fd157602001905b828210620010c9575050505090565b838091620010d78462001043565b815201910190620010ba565b919080601f8401121562000fd15782516001600160401b038111620002b157602090604051926200111e83601f19601f85011601856200101f565b81845282828701011162000fd15760005b8181106200114557508260009394955001015290565b85810183015184820184015282016200112f565b81811062001165575050565b6000815560010162001159565b8051156200029b5760200190565b80518210156200029b5760209160051b010190565b600019811462000f195760010190565b90680100000000000000008111620002b157815490808355818110620011ca57505050565b620011e2926000526020600020918201910162001159565b56fe608060408181526004918236101561001657600080fd5b600092833560e01c91826306fdde0314612c1b57508163106b9ca114612bde578163124528b8146129a957816314bcec9f1461296c5781631626ba7e146128af5781631a650cc71461284857816321371809146127ea5781633070fbf8146127975781633f4ba83a146126d7578163449e815d1461269057816344caaba9146126405781634585e33b1461251d57816349689f58146124c857816350371600146123345781635373433f1461225c57816356ce0e6c14611f495781635b7dcaed14611edd5781635c975abb14611e9a578163669ed93514611e1857816369cf60fd14611d475781636e04ff0d14611cd2578163715018a614611c365781637284e41614611b655781637b1837de14611aad5781637f94dd3314611a5a5781638456cb59146119b157816387685fb9146119065781638c39981d146117e05781638da5cb5b1461178f578163947a36fb14611752578163997be56914611703578163a6df16d714611697578163b4407fe114611562578163b6020edb146114a2578163bf2e5de4146113eb578163c45a015514611398578163c6bb232014611208578163c771909c146111b5578163caa648b414611173578163d14f665314610dfb578163d777cc6d14610d4d578163d9db093d14610cf3578163df4ac49d14610cb6578163f2fde38b14610bd3578163f3fef3a314610adb578163f4fdb8e314610269575063f698da251461022a57600080fd5b3461026557817ffffffffffffffffffffffffffffffffffffffffffffffffffffffffffffffffc36011261026557602090600c549051908152f35b5080fd5b839150346102655760607ffffffffffffffffffffffffffffffffffffffffffffffffffffffffffffffffc3601126102655767ffffffffffffffff908035828111610ad7576102bb9036908301612ede565b90602490813592848411610ad35736602385011215610ad357838201356102e181612e7b565b946102ee89519687612ddc565b818652602091858388019160051b83010191368311610acf5786849101915b838310610abf5750505050604435868111610abb5761032f9036908501612ede565b926103386139c3565b855115610a6157825115610a0757959496809891949895819582985b85518a10156103f757839a845b88518110156103e85773ffffffffffffffffffffffffffffffffffffffff8061038a8e8b6131e8565b511690610397838c6131e8565b5116146103a657600101610361565b50929990939a506103bc60019c92959c9861375b565b975b156103d4575b600101989199929a93909a610354565b976103e060019161375b565b9890506103c4565b50929990939a9b91949b6103be565b868b8d8b97958b996104198b15159a8b6000146109ff5760ff60015b16613788565b84510361097e57885b60035481101561046f57806001918b528a6002808b528b8220828155848101805484825580610456575b5050015501610422565b6104689185528d852090810190613189565b388061044c565b5086929188918a8c8e835185811161095357680100000000000000008111610953578b54818d5580821061091d575b508885018c8552845b8281106108d55750505081836003556106c5575b50156106bd5760ff60015b169581975b83518910156106b9578299835b81518110156106af5773ffffffffffffffffffffffffffffffffffffffff806105018d896131e8565b51169061050e83856131e8565b51161461051d576001016104d8565b5099509760015b15610533575b600101976104cb565b968551868101818110878211176106845787526001815282368183013773ffffffffffffffffffffffffffffffffffffffff90816105718b886131e8565b511661057c826131db565b52610587838c6131e8565b519188519261059584612d3c565b835284830191825288830186815260035487526002865289872093518455915180519160018501918a84116106575787906105d085856131a0565b0191885286882090885b8481106106435750505050509161062861063b92600260019551151591019060ff7fffffffffffffffffffffffffffffffffffffffffffffffffffffffffffffff0083541691151516179055565b61063360035461375b565b60035561375b565b97905061052a565b8351821683820155928801926001016105da565b508f8860418e927f4e487b7100000000000000000000000000000000000000000000000000000000835252fd5b888560418f7f4e487b7100000000000000000000000000000000000000000000000000000000835252fd5b5099989098610524565b8280f35b60ff816104c6565b95967fffffffffffffffffffffffffffffffffffffffffffffffffffffffffffffffe06107126106fd899d979d9c989b94969c612e7b565b9861070a8c519a8b612ddc565b808a52612e7b565b013682890137829783995b8b518b10156107c157845b88518110156107b0578b8d61075373ffffffffffffffffffffffffffffffffffffffff9283926131e8565b511681610760848d6131e8565b5116146107705750600101610728565b6107a091509a8c9b6001939597999f9496989d8f9061078e916131e8565b511661079a828d6131e8565b5261375b565b995b01999492909b95939161071d565b509193959b909294996001906107a2565b969a94929950969097509993996107d7896131db565b51908651916107e583612d3c565b8252888201908152600187830181815285805260028b528886209351845591518051918401908883116108aa578b9061081e84846131a0565b019086528a8620865b838110610882575050505090600261086e9251151591019060ff7fffffffffffffffffffffffffffffffffffffffffffffffffffffffffffffff0083541691151516179055565b61087960035461375b565b6003558a6104bb565b825173ffffffffffffffffffffffffffffffffffffffff1682820155918c0191600101610827565b7f4e487b7100000000000000000000000000000000000000000000000000000000875260418f528a87fd5b815173ffffffffffffffffffffffffffffffffffffffff167f8a35acfbc15ff81a39ae7d344fd709f28e8600b4aa8c65c6b64bfe7fe36bd19b820155908a01906001016104a7565b61094d90827f8a35acfbc15ff81a39ae7d344fd709f28e8600b4aa8c65c6b64bfe7fe36bd19b9182019101613189565b8c61049e565b878460418e7f4e487b7100000000000000000000000000000000000000000000000000000000835252fd5b6084866027858a8c51937f08c379a00000000000000000000000000000000000000000000000000000000085528401528201527f57726f6e672070657263656e7461676520636f756e7420666f7220617373657460448201527f2067726f757073000000000000000000000000000000000000000000000000006064820152fd5b60ff8b610413565b6012856064938b51937f08c379a00000000000000000000000000000000000000000000000000000000085528401528201527f4e6f206173736574732070726f766964656400000000000000000000000000006044820152fd5b6017856064938b51937f08c379a00000000000000000000000000000000000000000000000000000000085528401528201527f4e6f2070657263656e74616765732070726f76696465640000000000000000006044820152fd5b8780fd5b823581529181019184910161030d565b8980fd5b8580fd5b8380fd5b91905034610bcf57807ffffffffffffffffffffffffffffffffffffffffffffffffffffffffffffffffc360112610bcf57610b14612e93565b91610b1d6139c3565b600260015414610ba857509073ffffffffffffffffffffffffffffffffffffffff610ba1926002600155610b58610b5384613dbd565b613795565b51917fa9059cbb000000000000000000000000000000000000000000000000000000006020840152336024840152602435604484015260448352610b9b83612dc0565b1661449c565b6001805580f35b90517f3ee5aeb5000000000000000000000000000000000000000000000000000000008152fd5b8280fd5b905034610bcf5760207ffffffffffffffffffffffffffffffffffffffffffffffffffffffffffffffffc360112610bcf57610c0c612e93565b90610c156139c3565b73ffffffffffffffffffffffffffffffffffffffff809216928315610c875750508254827fffffffffffffffffffffffff00000000000000000000000000000000000000008216178455167f8be0079c531659141344cd1fd0a4f28419497f9722a3daafe3b4186f6b6457e08380a380f35b908460249251917f1e4fbdf7000000000000000000000000000000000000000000000000000000008352820152fd5b50503461026557817ffffffffffffffffffffffffffffffffffffffffffffffffffffffffffffffffc360112610265576020906003549051908152f35b5050346102655760207ffffffffffffffffffffffffffffffffffffffffffffffffffffffffffffffffc360112610265579081610d49925191610d3583612da4565b825251918291602083526020830190612e1d565b0390f35b5050346102655760207ffffffffffffffffffffffffffffffffffffffffffffffffffffffffffffffffc3601126102655760207f9d90a82ec1d038d4e13317a0eb136f9c65b7ed42156fc204ec4b7c4731e739509173ffffffffffffffffffffffffffffffffffffffff610dbf612e93565b610dc76139c3565b1690817fffffffffffffffffffffffff0000000000000000000000000000000000000000600a541617600a5551908152a180f35b833461117057610e0a36613060565b9291610e179591956139c3565b67ffffffffffffffff908181116111445780610e34601254612ce9565b94601f958681116110f8575b50879086831160011461103757889261102c575b50507fffffffffffffffffffffffffffffffffffffffffffffffffffffffffffffffff8260011b9260031b1c1916176012555b83116110005750610e99601354612ce9565b818111610fae575b5082908211600114610ef7578293829392610eec575b50507fffffffffffffffffffffffffffffffffffffffffffffffffffffffffffffffff8260011b9260031b1c19161760135580f35b013590508380610eb7565b7fffffffffffffffffffffffffffffffffffffffffffffffffffffffffffffffe08216937f66de8ffda797e3de9c05e8fc57b3bf0ec28a930d40b0d285d93c06501cf6a09091845b868110610f965750836001959610610f5e575b505050811b0160135580f35b7fffffffffffffffffffffffffffffffffffffffffffffffffffffffffffffffff60f88560031b161c19910135169055838080610f52565b90926020600181928686013581550194019101610f3f565b610ff1907f66de8ffda797e3de9c05e8fc57b3bf0ec28a930d40b0d285d93c06501cf6a0908380860160051c82019260208710610ff7575b0160051c0190613189565b84610ea1565b92508192610fe6565b8360416024927f4e487b7100000000000000000000000000000000000000000000000000000000835252fd5b013590508880610e54565b90917fffffffffffffffffffffffffffffffffffffffffffffffffffffffffffffffe01691601289527fbb8a6a4669ba250d26cd7a459eca9d215f8307e33aebe50379bc5a3617ec344492895b8181106110e057509084600195949392106110a8575b505050811b01601255610e87565b7fffffffffffffffffffffffffffffffffffffffffffffffffffffffffffffffff60f88560031b161c1991013516905588808061109a565b91936020600181928787013581550195019201611084565b61113e9060128a527fbb8a6a4669ba250d26cd7a459eca9d215f8307e33aebe50379bc5a3617ec34448880860160051c82019260208710610ff7570160051c0190613189565b89610e40565b6024866041857f4e487b7100000000000000000000000000000000000000000000000000000000835252fd5b80fd5b50503461026557817ffffffffffffffffffffffffffffffffffffffffffffffffffffffffffffffffc360112610265576020906111ae6138e8565b9051908152f35b50503461026557817ffffffffffffffffffffffffffffffffffffffffffffffffffffffffffffffffc3601126102655760209073ffffffffffffffffffffffffffffffffffffffff600954169051908152f35b905034610bcf57827ffffffffffffffffffffffffffffffffffffffffffffffffffffffffffffffffc360112610bcf5761124760115460105490613788565b421061133c5742601155602073ffffffffffffffffffffffffffffffffffffffff600654168351928380927f741bef1a0000000000000000000000000000000000000000000000000000000082525afa8015611330576112ae918491611301575b50613ee3565b506112b7575080f35b7fd0489b16e641d6e7209575900e1253909da7c587d3949634e24e5f8f11d00c0f906112e1613861565b906112f58151928284938452830190613113565b4260208301520390a180f35b611323915060203d602011611329575b61131b8183612ddc565b81019061339b565b386112a8565b503d611311565b505051903d90823e3d90fd5b602060649251917f08c379a0000000000000000000000000000000000000000000000000000000008352820152600960248201527f546f6f206561726c7900000000000000000000000000000000000000000000006044820152fd5b50503461026557817ffffffffffffffffffffffffffffffffffffffffffffffffffffffffffffffffc3601126102655760209073ffffffffffffffffffffffffffffffffffffffff600654169051908152f35b82843461117057602092837ffffffffffffffffffffffffffffffffffffffffffffffffffffffffffffffffc360112610265579082918183805161142e81612d3c565b8281526060888201520152358152600284522061149582519261145084612d3c565b82548452606060ff6002611466600187016137fa565b9588880196875201541693828601941515855282519687968188525190870152519185015260808401906130c9565b9051151560608301520390f35b82843461117057807ffffffffffffffffffffffffffffffffffffffffffffffffffffffffffffffffc360112611170578151918291600754808552602080950194600783527fa66cc928b5edb82af9bd49922954155ab7b0942694bea4ce44661d9a8736c68892905b82821061153557610d498686611523828b0383612ddc565b519182916020835260208301906130c9565b835473ffffffffffffffffffffffffffffffffffffffff168752958601956001938401939091019061150b565b8383346102655760807ffffffffffffffffffffffffffffffffffffffffffffffffffffffffffffffffc3601126102655761159b612e93565b6115a3612ebb565b90604435606435946115b36139c3565b670de0b6b3a764000090816115c88885613147565b04600d54906115d68261375b565b600d55610e1042019283421161166b5750602099506116119261160a9261160192878a8a3030613e12565b600c5490613c96565b9683613147565b049184519373ffffffffffffffffffffffffffffffffffffffff80921685521686840152838301526060820152827f7603cff60dc3d7d1025c12f1b8ade67aa4b048ccf2c115ac624b5cbfdfe9759460803093a351908152f35b8060118c7f4e487b71000000000000000000000000000000000000000000000000000000006024945252fd5b8284346111705760207ffffffffffffffffffffffffffffffffffffffffffffffffffffffffffffffffc3601126111705782359254831015611170575073ffffffffffffffffffffffffffffffffffffffff6116f4602093612ffb565b92905490519260031b1c168152f35b50503461026557817ffffffffffffffffffffffffffffffffffffffffffffffffffffffffffffffffc36011261026557610d499061173f613861565b9051918291602083526020830190613113565b50503461026557817ffffffffffffffffffffffffffffffffffffffffffffffffffffffffffffffffc360112610265576020906010549051908152f35b50503461026557817ffffffffffffffffffffffffffffffffffffffffffffffffffffffffffffffffc3601126102655773ffffffffffffffffffffffffffffffffffffffff60209254169051908152f35b82843461117057807ffffffffffffffffffffffffffffffffffffffffffffffffffffffffffffffffc36011261117057815191828260125461182181612ce9565b90818452602095600191876001821691826000146118c1575050600114611865575b505050610d499291611856910385612ddc565b51928284938452830190612e1d565b9190869350601283527fbb8a6a4669ba250d26cd7a459eca9d215f8307e33aebe50379bc5a3617ec34445b8284106118a95750505082010181611856610d49611843565b8054848a018601528895508794909301928101611890565b7fffffffffffffffffffffffffffffffffffffffffffffffffffffffffffffff00168782015293151560051b860190930193508492506118569150610d499050611843565b83833461026557817ffffffffffffffffffffffffffffffffffffffffffffffffffffffffffffffffc360112610265578051918284549081815260208091019583527f8a35acfbc15ff81a39ae7d344fd709f28e8600b4aa8c65c6b64bfe7fe36bd19b92905b82821061198457610d498686611523828b0383612ddc565b835473ffffffffffffffffffffffffffffffffffffffff168752958601956001938401939091019061196c565b50503461026557817ffffffffffffffffffffffffffffffffffffffffffffffffffffffffffffffffc3601126102655760207f62e78cea01bee320cd4e420270b5ea74000d11b0c9f74754ebdbfc544b05a25891611a0d6139c3565b611a15613c1f565b740100000000000000000000000000000000000000007fffffffffffffffffffffff00ffffffffffffffffffffffffffffffffffffffff85541617845551338152a180f35b50503461026557817ffffffffffffffffffffffffffffffffffffffffffffffffffffffffffffffffc3601126102655760209073ffffffffffffffffffffffffffffffffffffffff600b54169051908152f35b50503461026557807ffffffffffffffffffffffffffffffffffffffffffffffffffffffffffffffffc36011261026557611b629073ffffffffffffffffffffffffffffffffffffffff611afe612e93565b91611b076139c3565b611b13610b5384613dbd565b517f23b872dd0000000000000000000000000000000000000000000000000000000060208201523360248083019190915230604483015235606480830191909152815291610b9b608484612ddc565b80f35b82843461117057807ffffffffffffffffffffffffffffffffffffffffffffffffffffffffffffffffc360112611170578151918282600f54611ba681612ce9565b90818452602095600191876001821691826000146118c1575050600114611bda57505050610d499291611856910385612ddc565b9190869350600f83527f8d1108e10bcb7c27dddfc02ed9d693a074039d026cf4ea4240b40f7d581ac8025b828410611c1e5750505082010181611856610d49611843565b8054848a018601528895508794909301928101611c05565b833461117057807ffffffffffffffffffffffffffffffffffffffffffffffffffffffffffffffffc36011261117057611c6d6139c3565b8073ffffffffffffffffffffffffffffffffffffffff81547fffffffffffffffffffffffff000000000000000000000000000000000000000081168355167f8be0079c531659141344cd1fd0a4f28419497f9722a3daafe3b4186f6b6457e08280a380f35b905034610bcf5760207ffffffffffffffffffffffffffffffffffffffffffffffffffffffffffffffffc360112610bcf57803567ffffffffffffffff8111610ad757611d2091369101613032565b5050610d49611d2d613d7a565b839291925193849315158452806020850152830190612e1d565b82843461117057807ffffffffffffffffffffffffffffffffffffffffffffffffffffffffffffffffc360112611170578151918282601354611d8881612ce9565b90818452602095600191876001821691826000146118c1575050600114611dbc57505050610d499291611856910385612ddc565b9190869350601383527f66de8ffda797e3de9c05e8fc57b3bf0ec28a930d40b0d285d93c06501cf6a0905b828410611e005750505082010181611856610d49611843565b8054848a018601528895508794909301928101611de7565b83346111705760207ffffffffffffffffffffffffffffffffffffffffffffffffffffffffffffffffc3601126111705773ffffffffffffffffffffffffffffffffffffffff611e65612e93565b611e6d6139c3565b167fffffffffffffffffffffffff0000000000000000000000000000000000000000600954161760095580f35b50503461026557817ffffffffffffffffffffffffffffffffffffffffffffffffffffffffffffffffc3601126102655760ff6020925460a01c1690519015158152f35b905034610bcf5760207ffffffffffffffffffffffffffffffffffffffffffffffffffffffffffffffffc360112610bcf577fc6f44473d25b86976ee7357c1339328224e349abc5486edc3007ef658a57608a916020913590611f3d6139c3565b8160105551908152a180f35b833461117057611f5836613060565b9291611f659591956139c3565b67ffffffffffffffff908181116111445780611f82600e54612ce9565b94601f95868111612210575b50879086831160011461214f578892612144575b50507fffffffffffffffffffffffffffffffffffffffffffffffffffffffffffffffff8260011b9260031b1c191617600e555b83116110005750611fe7600f54612ce9565b8181116120fc575b508290821160011461204557829382939261203a575b50507fffffffffffffffffffffffffffffffffffffffffffffffffffffffffffffffff8260011b9260031b1c191617600f5580f35b013590508380612005565b7fffffffffffffffffffffffffffffffffffffffffffffffffffffffffffffffe08216937f8d1108e10bcb7c27dddfc02ed9d693a074039d026cf4ea4240b40f7d581ac80291845b8681106120e457508360019596106120ac575b505050811b01600f5580f35b7fffffffffffffffffffffffffffffffffffffffffffffffffffffffffffffffff60f88560031b161c199101351690558380806120a0565b9092602060018192868601358155019401910161208d565b61213e907f8d1108e10bcb7c27dddfc02ed9d693a074039d026cf4ea4240b40f7d581ac8028380860160051c82019260208710610ff7570160051c0190613189565b84611fef565b013590508880611fa2565b90917fffffffffffffffffffffffffffffffffffffffffffffffffffffffffffffffe01691600e89527fbb7b4a454dc3493923482f07822329ed19e8244eff582cc204f8554c3620c3fd92895b8181106121f857509084600195949392106121c0575b505050811b01600e55611fd5565b7fffffffffffffffffffffffffffffffffffffffffffffffffffffffffffffffff60f88560031b161c199101351690558880806121b2565b9193602060018192878701358155019501920161219c565b61225690600e8a527fbb7b4a454dc3493923482f07822329ed19e8244eff582cc204f8554c3620c3fd8880860160051c82019260208710610ff7570160051c0190613189565b89611f8e565b83833461026557602092837ffffffffffffffffffffffffffffffffffffffffffffffffffffffffffffffffc360112610bcf578373ffffffffffffffffffffffffffffffffffffffff6122ad612e93565b169160248451809481937f70a0823100000000000000000000000000000000000000000000000000000000835230908301525afa9283156123295780936122f7575b505051908152f35b909192508382813d8311612322575b6123108183612ddc565b810103126111705750519083806122ef565b503d612306565b8251903d90823e3d90fd5b8383346102655760a07ffffffffffffffffffffffffffffffffffffffffffffffffffffffffffffffffc3601126102655761236d612e93565b91612376612ebb565b90604435606435906084359261238a6139c3565b855160a0810181811067ffffffffffffffff82111761249c57875273ffffffffffffffffffffffffffffffffffffffff8098169586825288602083019116988982528883018581526060840191878352886080860152600d54946123ed8661375b565b600d55610e1042019687421161246f575060209d50918161160196949261242a989694612418613c58565b50511693511690519151923030613e12565b958551948552878501528484015260608301526080820152827f323c05cdeadfff71a7441e36a3a55c023180f013af664c0fc25687e2b5a2bf4560a03093a351908152f35b6024915060118f7f4e487b7100000000000000000000000000000000000000000000000000000000835252fd5b60248360418c7f4e487b7100000000000000000000000000000000000000000000000000000000835252fd5b905034610bcf5760207ffffffffffffffffffffffffffffffffffffffffffffffffffffffffffffffffc360112610bcf5791819235815260026020522060ff6002825492015416825191825215156020820152f35b905034610bcf5760207ffffffffffffffffffffffffffffffffffffffffffffffffffffffffffffffffc360112610bcf57803567ffffffffffffffff8111610ad75761256c9036908301613032565b5050612576613c1f565b73ffffffffffffffffffffffffffffffffffffffff600a541633036125e457507fd0489b16e641d6e7209575900e1253909da7c587d3949634e24e5f8f11d00c0f906125c0613861565b906125d48151928284938452830190613113565b4260208301520390a14260115580f35b602060649251917f08c379a0000000000000000000000000000000000000000000000000000000008352820152601860248201527f4e6f7420617574686f72697a656420666f7277617264657200000000000000006044820152fd5b50503461026557817ffffffffffffffffffffffffffffffffffffffffffffffffffffffffffffffffc3601126102655760609061267b613525565b90839293519384526020840152151590820152f35b50503461026557807ffffffffffffffffffffffffffffffffffffffffffffffffffffffffffffffffc360112610265576020906111ae6126ce612e93565b60243590613400565b905034610bcf57827ffffffffffffffffffffffffffffffffffffffffffffffffffffffffffffffffc360112610bcf5761270f6139c3565b82549060ff8260a01c161561277057507f5db9ee0a495bf2e6ff9c91a7834c1ba4fdd244a5e8aa4e537bd38aeae4b073aa917fffffffffffffffffffffff00ffffffffffffffffffffffffffffffffffffffff60209216845551338152a180f35b82517f8dfc202b000000000000000000000000000000000000000000000000000000008152fd5b50503461026557817ffffffffffffffffffffffffffffffffffffffffffffffffffffffffffffffffc3601126102655760209073ffffffffffffffffffffffffffffffffffffffff600a54169051908152f35b905034610bcf5760207ffffffffffffffffffffffffffffffffffffffffffffffffffffffffffffffffc360112610bcf573591600754831015611170575073ffffffffffffffffffffffffffffffffffffffff6116f4602093612f95565b5050346102655760207ffffffffffffffffffffffffffffffffffffffffffffffffffffffffffffffffc3601126102655760ff8160209373ffffffffffffffffffffffffffffffffffffffff61289c612e93565b1681526008855220541690519015158152f35b905034610bcf57817ffffffffffffffffffffffffffffffffffffffffffffffffffffffffffffffffc360112610bcf576024359067ffffffffffffffff8211610ad75736602383011215610ad7578181013561290a81612f5b565b9261291785519485612ddc565b8184523660248383010111610ad3579160209586837fffffffff000000000000000000000000000000000000000000000000000000009694602461296497018387013784010152356131fc565b915191168152f35b50503461026557817ffffffffffffffffffffffffffffffffffffffffffffffffffffffffffffffffc360112610265576020906005549051908152f35b91905034610bcf5760209260207ffffffffffffffffffffffffffffffffffffffffffffffffffffffffffffffffc36011261117057823567ffffffffffffffff8111610265576129fc9036908501612ede565b92612a056139c3565b815b600754811015612a6f578073ffffffffffffffffffffffffffffffffffffffff612a32600193612f95565b90549060031b1c168452600887528484207fffffffffffffffffffffffffffffffffffffffffffffffffffffffffffffff00815416905501612a07565b509391906007926007548260075580612b9c575b50815b8551811015612b5d5773ffffffffffffffffffffffffffffffffffffffff80612aaf83896131e8565b51169086549168010000000000000000831015612b3157906001939291612adb85938481018b55612f95565b83829392549160031b92831b921b1916179055612af8838a6131e8565b5116855260088452858520907fffffffffffffffffffffffffffffffffffffffffffffffffffffffffffffff0082541617905501612a86565b60248660418c7f4e487b7100000000000000000000000000000000000000000000000000000000835252fd5b827f05ceb613a91160c27bc798daf304568529eb02f563b31317bee548c8d2e3f7b2612b968887519182916020835260208301906130c9565b0390a180f35b600783527fa66cc928b5edb82af9bd49922954155ab7b0942694bea4ce44661d9a8736c688908101905b818110612bd35750612a83565b838155600101612bc6565b50503461026557817ffffffffffffffffffffffffffffffffffffffffffffffffffffffffffffffffc360112610265576020906011549051908152f35b84843461026557817ffffffffffffffffffffffffffffffffffffffffffffffffffffffffffffffffc360112610265578282600e54612c5981612ce9565b90818452602095600191876001821691826000146118c1575050600114612c8d57505050610d499291611856910385612ddc565b9190869350600e83527fbb7b4a454dc3493923482f07822329ed19e8244eff582cc204f8554c3620c3fd5b828410612cd15750505082010181611856610d49611843565b8054848a018601528895508794909301928101612cb8565b90600182811c92168015612d32575b6020831014612d0357565b7f4e487b7100000000000000000000000000000000000000000000000000000000600052602260045260246000fd5b91607f1691612cf8565b6060810190811067ffffffffffffffff821117612d5857604052565b7f4e487b7100000000000000000000000000000000000000000000000000000000600052604160045260246000fd5b610100810190811067ffffffffffffffff821117612d5857604052565b6020810190811067ffffffffffffffff821117612d5857604052565b6080810190811067ffffffffffffffff821117612d5857604052565b90601f7fffffffffffffffffffffffffffffffffffffffffffffffffffffffffffffffe0910116810190811067ffffffffffffffff821117612d5857604052565b919082519283825260005b848110612e675750507fffffffffffffffffffffffffffffffffffffffffffffffffffffffffffffffe0601f8460006020809697860101520116010190565b602081830181015184830182015201612e28565b67ffffffffffffffff8111612d585760051b60200190565b6004359073ffffffffffffffffffffffffffffffffffffffff82168203612eb657565b600080fd5b6024359073ffffffffffffffffffffffffffffffffffffffff82168203612eb657565b9080601f83011215612eb6576020908235612ef881612e7b565b93612f066040519586612ddc565b81855260208086019260051b820101928311612eb657602001905b828210612f2f575050505090565b813573ffffffffffffffffffffffffffffffffffffffff81168103612eb6578152908301908301612f21565b67ffffffffffffffff8111612d5857601f017fffffffffffffffffffffffffffffffffffffffffffffffffffffffffffffffe01660200190565b600754811015612fcc5760076000527fa66cc928b5edb82af9bd49922954155ab7b0942694bea4ce44661d9a8736c6880190600090565b7f4e487b7100000000000000000000000000000000000000000000000000000000600052603260045260246000fd5b600454811015612fcc5760046000527f8a35acfbc15ff81a39ae7d344fd709f28e8600b4aa8c65c6b64bfe7fe36bd19b0190600090565b9181601f84011215612eb65782359167ffffffffffffffff8311612eb65760208381860195010111612eb657565b60407ffffffffffffffffffffffffffffffffffffffffffffffffffffffffffffffffc820112612eb65767ffffffffffffffff91600435838111612eb657826130ab91600401613032565b93909392602435918211612eb6576130c591600401613032565b9091565b90815180825260208080930193019160005b8281106130e9575050505090565b835173ffffffffffffffffffffffffffffffffffffffff16855293810193928101926001016130db565b90815180825260208080930193019160005b828110613133575050505090565b835185529381019392810192600101613125565b8181029291811591840414171561315a57565b7f4e487b7100000000000000000000000000000000000000000000000000000000600052601160045260246000fd5b818110613194575050565b60008155600101613189565b90680100000000000000008111612d58578154908083558181106131c357505050565b6131d99260005260206000209182019101613189565b565b805115612fcc5760200190565b8051821015612fcc5760209160051b010190565b906132478160405160208101907f19457468657265756d205369676e6564204d6573736167653a0a333200000000825285603c820152603c815261323f81612d3c565b519020613a14565b5060048110156133065715908161335b575b506133355761326791613a14565b506004811015613306571590816132c6575b506132a2577fffffffff0000000000000000000000000000000000000000000000000000000090565b7f1626ba7e0000000000000000000000000000000000000000000000000000000090565b60095473ffffffffffffffffffffffffffffffffffffffff918216908216811492509082156132f8575b505038613279565b6000541614905038806132f0565b7f4e487b7100000000000000000000000000000000000000000000000000000000600052602160045260246000fd5b50507f1626ba7e0000000000000000000000000000000000000000000000000000000090565b60095473ffffffffffffffffffffffffffffffffffffffff9182169082168114925090821561338d575b505038613259565b600054161490503880613385565b90816020910312612eb6575173ffffffffffffffffffffffffffffffffffffffff81168103612eb65790565b81156133d1570490565b7f4e487b7100000000000000000000000000000000000000000000000000000000600052601260045260246000fd5b73ffffffffffffffffffffffffffffffffffffffff9081600654166040519283917f741bef1a00000000000000000000000000000000000000000000000000000000835282600460209687935afa9283156134f7578492600094613503575b506044908260405195869485937f7de4fd1000000000000000000000000000000000000000000000000000000000855216600484015260006024840152165afa9182156134f7576000926134c7575b50506134c390670de0b6b3a764000092613147565b0490565b90809250813d83116134f0575b6134de8183612ddc565b81010312612eb65751816134c36134ae565b503d6134d4565b6040513d6000823e3d90fd5b604491945061351e90843d86116113295761131b8183612ddc565b939061345f565b61352d6138e8565b90811561375057600080600754905b81811061355c57505061354f9083613a50565b9061355983613a6a565b90565b61356581612f95565b9073ffffffffffffffffffffffffffffffffffffffff918291549060031b1c166040918251917f70a08231000000000000000000000000000000000000000000000000000000008352600490308285015260209160249383868681865afa95861561374557600096613716575b50856135e8575b5050505050505060010161353c565b81848260069c9a9c54168951928380927f741bef1a0000000000000000000000000000000000000000000000000000000082525afa90811561370b5791859493916044936000916136ee575b5060008a5198899687957f7de4fd10000000000000000000000000000000000000000000000000000000008752860152840152165afa9384156136e457506000936136a9575b505091670de0b6b3a764000061369561369c93600195613147565b0490613788565b92903880808080806135d9565b8181949293943d83116136dd575b6136c18183612ddc565b8101031261117057505190670de0b6b3a764000061369561367a565b503d6136b7565b513d6000823e3d90fd5b6137059150863d88116113295761131b8183612ddc565b38613634565b88513d6000823e3d90fd5b90958482813d831161373e575b61372d8183612ddc565b8101031261117057505194386135d2565b503d613723565b87513d6000823e3d90fd5b600091508190600190565b7fffffffffffffffffffffffffffffffffffffffffffffffffffffffffffffffff811461315a5760010190565b9190820180921161315a57565b1561379c57565b60646040517f08c379a000000000000000000000000000000000000000000000000000000000815260206004820152601c60248201527f4173736574206e6f7420666f756e6420696e20616e792067726f7570000000006044820152fd5b90604051918281549182825260209260208301916000526020600020936000905b828210613831575050506131d992500383612ddc565b855473ffffffffffffffffffffffffffffffffffffffff168452600195860195889550938101939091019061381b565b60035461386d81612e7b565b90604061387d6040519384612ddc565b81835261388982612e7b565b7fffffffffffffffffffffffffffffffffffffffffffffffffffffffffffffffe06020910136602086013760009060005b8481106138c957505050505090565b80600191845260028352848420546138e182896131e8565b52016138ba565b60008060048054905b8183106138fe5750505090565b90919273ffffffffffffffffffffffffffffffffffffffff61391f85612ffb565b90549060031b1c1660409081517f70a08231000000000000000000000000000000000000000000000000000000008152308582015260208082602481865afa9384156136e4575060009361398f575b50509161398061398692600194613400565b90613788565b930191906138f1565b8181949293943d83116139bc575b6139a78183612ddc565b8101031261117057505190613980600161396e565b503d61399d565b73ffffffffffffffffffffffffffffffffffffffff6000541633036139e457565b60246040517f118cdaa7000000000000000000000000000000000000000000000000000000008152336004820152fd5b8151919060418303613a4557613a3e92506020820151906060604084015193015160001a906143f2565b9192909190565b505060009160029190565b8015613a635761271061355992026133c7565b5050600090565b6003549060005b828110613a8057505050600190565b80600052600260209080825260ff6040918260002092805193613aa285612d3c565b805485526001938493613ab68584016137fa565b9288880193845201541615158286015260009586945b613b2d575b505050505060649182810292818404149015171561315a57613af5846005936133c7565b90519081811115613b1f5790613b0a9161448f565b11613b1757600101613a71565b505050600090565b613b289161448f565b613b0a565b909192939582518051881015613c18578783602492613b6273ffffffffffffffffffffffffffffffffffffffff9384926131e8565b51168751938480927f70a082310000000000000000000000000000000000000000000000000000000082523060048301525afa918215613c0d579087969594939291600092613bd1575b5091613980613bc9928894613bc28d89516131e8565b5116613400565b970194613acc565b91909293809596975082813d8311613c06575b613bee8183612ddc565b81010312611170575051869594939291613980613bac565b503d613be4565b86513d6000823e3d90fd5b5095613ad1565b60ff60005460a01c16613c2e57565b60046040517fd93c0665000000000000000000000000000000000000000000000000000000008152fd5b60405190613c6582612d87565b8160e06000918281528260208201528260408201528260608201528260808201528260a08201528260c08201520152565b80519073ffffffffffffffffffffffffffffffffffffffff80602083015116918160408201511691806060830151169060808301511660a08301519160e060c085015194015194604051966020880198895260408801526060870152608086015260a085015260c084015260e08301526101009081830152815261012081019181831067ffffffffffffffff841117612d5857610162908360405282519020916101408101947f19010000000000000000000000000000000000000000000000000000000000008652610142820152015260428152613d7481612dc0565b51902090565b613d8960115460105490613788565b4210613da65760405190613d9c82612da4565b6000825260019190565b60405190613db382612da4565b6000825260009190565b6004549060005b828110613dd357505050600090565b613ddc81612ffb565b9073ffffffffffffffffffffffffffffffffffffffff90548185169260031b1c1614613e0a57600101613dc4565b505050600190565b909291969596613e20613c58565b5065010000000000871015613e855760405197613e3c89612d87565b885273ffffffffffffffffffffffffffffffffffffffff80948180941660208b015216604089015216606087015216608085015260a084015260c083015260501b60e082015290565b60646040517f08c379a000000000000000000000000000000000000000000000000000000000815260206004820152601060248201527f45787069727920746f6f206c61726765000000000000000000000000000000006044820152fd5b9060075460018111156143e3578015612fcc57600760005273ffffffffffffffffffffffffffffffffffffffff7fa66cc928b5edb82af9bd49922954155ab7b0942694bea4ce44661d9a8736c688541660015b82811061427a57505060005b6001810182811015614268575b828110613f5f5750600101613f42565b613f6a829492612f95565b905473ffffffffffffffffffffffffffffffffffffffff80613f8b85612f95565b90549060031b1c1691604051937f802431fb00000000000000000000000000000000000000000000000000000000855260031b1c16600483015260248201526000604482015260208160648173ffffffffffffffffffffffffffffffffffffffff8a165afa60009181614234575b506141d5575b5073ffffffffffffffffffffffffffffffffffffffff61401e82612f95565b90549060031b1c1673ffffffffffffffffffffffffffffffffffffffff61404486612f95565b90549060031b1c16604051917f802431fb000000000000000000000000000000000000000000000000000000008352600483015260248201526000604482015260208160648173ffffffffffffffffffffffffffffffffffffffff8a165afa600091816141a1575b506140be575b50600101929092613f4f565b670de444324c2a800081118015614187575b156140b2579450614181925073ffffffffffffffffffffffffffffffffffffffff6141128161410461415594979597612f95565b90549060031b1c1693612f95565b90549060031b1c16946040519586936020850160409194939294606082019573ffffffffffffffffffffffffffffffffffffffff80921683521660208201520152565b037fffffffffffffffffffffffffffffffffffffffffffffffffffffffffffffffe08101845283612ddc565b60019190565b50670de0b6b3a764000066038d7ea4c680008201106140d0565b9091506020813d6020116141cd575b816141bd60209383612ddc565b81010312612eb6575190386140ac565b3d91506141b0565b670de444324c2a80008111801561421a575b15613fff5794509092614181925073ffffffffffffffffffffffffffffffffffffffff6141128161410461415594612f95565b50670de0b6b3a764000066038d7ea4c680008201106141e7565b9091506020813d602011614260575b8161425060209383612ddc565b81010312612eb657519038613ff9565b3d9150614243565b505050905060405190613db382612da4565b61428381612f95565b90549060039073ffffffffffffffffffffffffffffffffffffffff6040938451927f802431fb000000000000000000000000000000000000000000000000000000008452841b1c16600482015284602482015260006044820152602091828260648173ffffffffffffffffffffffffffffffffffffffff8d165afa600092816143b4575b50614319575b50505050600101613f36565b670de444324c2a80008211801561439a575b1561430d5773ffffffffffffffffffffffffffffffffffffffff91939850614181965061435d61415595969396612f95565b9054911b1c169651968794850160409194939294606082019573ffffffffffffffffffffffffffffffffffffffff80921683521660208201520152565b50670de0b6b3a764000066038d7ea4c6800083011061432b565b9092508381813d83116143dc575b6143cc8183612ddc565b81010312612eb657519138614307565b503d6143c2565b506040519150613db382612da4565b91907f7fffffffffffffffffffffffffffffff5d576e7357a4501ddfe92f46681b20a0841161448357926020929160ff608095604051948552168484015260408301526060820152600092839182805260015afa1561447757805173ffffffffffffffffffffffffffffffffffffffff81161561446e57918190565b50809160019190565b604051903d90823e3d90fd5b50505060009160039190565b9190820391821161315a57565b73ffffffffffffffffffffffffffffffffffffffff16906144f4600080836020829551910182875af13d15614565573d906144d682612f5b565b916144e46040519384612ddc565b82523d84602084013e5b8461456d565b90815191821515928361453d575b50505061450c5750565b602490604051907f5274afe70000000000000000000000000000000000000000000000000000000082526004820152fd5b8192935090602091810103126102655760200151908115918215036111705750388080614502565b6060906144ee565b906145ac575080511561458257805190602001fd5b60046040517f1425ea42000000000000000000000000000000000000000000000000000000008152fd5b81511580614604575b6145bd575090565b60249073ffffffffffffffffffffffffffffffffffffffff604051917f9996b315000000000000000000000000000000000000000000000000000000008352166004820152fd5b50803b156145b556fea26469706673582212205e76040e3e688011e5211ddaaf03cdde99cf8701d499e2b5e4d5c95bfa00822a64736f6c63430008170033bb7b4a454dc3493923482f07822329ed19e8244eff582cc204f8554c3620c3fd8d1108e10bcb7c27dddfc02ed9d693a074039d026cf4ea4240b40f7d581ac802a264697066735822122012504cf3581fc2a99b4dafa3c9bbfd9c0e5c96af68c28dc26c35ad94f9ab867664736f6c63430008170033",
  "devdoc": {
    "errors": {
      "OwnableInvalidOwner(address)": [
        {
          "details": "The owner is not a valid owner account. (eg. `address(0)`)"
        }
      ],
      "OwnableUnauthorizedAccount(address)": [
        {
          "details": "The caller account is not authorized to perform an operation."
        }
      ]
    },
    "events": {
      "BalancerCreated(address,address,bool)": {
        "details": "Emitted when a new balancer is created"
      }
    },
    "kind": "dev",
    "methods": {
      "owner()": {
        "details": "Returns the address of the current owner."
      },
      "registerBalancerUpkeep(address,uint32,uint96,bytes)": {
        "details": "Approves LINK to registrar and calls registerUpkeep. Optionally sets forwarder if registry is provided."
      },
      "registerLogTriggerUpkeep(address,uint32,uint96,address,bytes32,uint8,bytes32,bytes32,bytes32)": {
        "params": {
          "amountLinkWei": "initial LINK funding (wei)",
          "balancer": "The deployed DriftBalancerLogger address",
          "emittingContract": "DIA PushOracleReceiver contract emitting the event",
          "filterSelector": "per Chainlink docs; 0 = no indexed filters",
          "gasLimit": "max gas for performUpkeep",
          "topic0": "keccak256(eventSignature). For DIA classic: keccak256(\"OracleUpdate(string,uint128,uint128)\")",
          "topic1": "indexed topic if filtering by key; otherwise 0x",
          "topic2": "unused",
          "topic3": "unused"
        }
      },
      "renounceOwnership()": {
        "details": "Leaves the contract without owner. It will not be possible to call `onlyOwner` functions. Can only be called by the current owner. NOTE: Renouncing ownership will leave the contract without an owner, thereby disabling any functionality that is only available to the owner."
      },
      "transferOwnership(address)": {
        "details": "Transfers ownership of the contract to a new account (`newOwner`). Can only be called by the current owner."
      }
    },
    "stateVariables": {
      "userDriftBalancers": {
        "details": "Lists of deployed drift and time balancers per user"
      }
    },
    "version": 1
  },
  "userdoc": {
    "kind": "user",
    "methods": {
      "createDriftBalancer(address[],uint256[],uint256[],uint256,string,string)": {
        "notice": "Create a new OptimizedDriftBalancer"
      },
      "createTimeBalancer(address[],uint256[],uint256[],uint256,string,string)": {
        "notice": "Create a new OptimizedTimeBalancer"
      },
      "refreshBalancerForwarder(address)": {
        "notice": "Refresh and set the forwarder on a balancer from a known upkeepId"
      },
      "registerBalancerUpkeep(address,uint32,uint96,bytes)": {
        "notice": "Programmatically register a custom-logic upkeep for a deployed balancer"
      },
      "registerLogTriggerUpkeep(address,uint32,uint96,address,bytes32,uint8,bytes32,bytes32,bytes32)": {
        "notice": "Register a log-trigger upkeep for a DriftBalancerLogger (DIA push oracle logs)"
      }
    },
    "version": 1
  },
  "storageLayout": {
    "storage": [
      {
        "astId": 122,
        "contract": "contracts/portfolio/factory/BalancerFactory.sol:BalancerFactory",
        "label": "_owner",
        "offset": 0,
        "slot": "0",
        "type": "t_address"
      },
      {
        "astId": 4013,
        "contract": "contracts/portfolio/factory/BalancerFactory.sol:BalancerFactory",
        "label": "priceFeed",
        "offset": 0,
        "slot": "1",
        "type": "t_address"
      },
      {
        "astId": 4016,
        "contract": "contracts/portfolio/factory/BalancerFactory.sol:BalancerFactory",
        "label": "stablecoins",
        "offset": 0,
        "slot": "2",
        "type": "t_array(t_address)dyn_storage"
      },
      {
        "astId": 4019,
        "contract": "contracts/portfolio/factory/BalancerFactory.sol:BalancerFactory",
        "label": "limitOrderProtocol",
        "offset": 0,
        "slot": "3",
        "type": "t_contract(ILimitOrderProtocol)5185"
      },
      {
        "astId": 4022,
        "contract": "contracts/portfolio/factory/BalancerFactory.sol:BalancerFactory",
        "label": "linkToken",
        "offset": 0,
        "slot": "4",
        "type": "t_contract(LinkTokenInterface)113"
      },
      {
        "astId": 4024,
        "contract": "contracts/portfolio/factory/BalancerFactory.sol:BalancerFactory",
        "label": "automationRegistrar",
        "offset": 0,
        "slot": "5",
        "type": "t_address"
      },
      {
        "astId": 4026,
        "contract": "contracts/portfolio/factory/BalancerFactory.sol:BalancerFactory",
        "label": "automationRegistry",
        "offset": 0,
        "slot": "6",
        "type": "t_address"
      },
      {
        "astId": 4030,
        "contract": "contracts/portfolio/factory/BalancerFactory.sol:BalancerFactory",
        "label": "balancerToUpkeepId",
        "offset": 0,
        "slot": "7",
        "type": "t_mapping(t_address,t_uint256)"
      },
      {
        "astId": 4065,
        "contract": "contracts/portfolio/factory/BalancerFactory.sol:BalancerFactory",
        "label": "userDriftBalancers",
        "offset": 0,
        "slot": "8",
        "type": "t_mapping(t_address,t_array(t_address)dyn_storage)"
      },
      {
        "astId": 4070,
        "contract": "contracts/portfolio/factory/BalancerFactory.sol:BalancerFactory",
        "label": "userTimeBalancers",
        "offset": 0,
        "slot": "9",
        "type": "t_mapping(t_address,t_array(t_address)dyn_storage)"
      }
    ],
    "types": {
      "t_address": {
        "encoding": "inplace",
        "label": "address",
        "numberOfBytes": "20"
      },
      "t_array(t_address)dyn_storage": {
        "base": "t_address",
        "encoding": "dynamic_array",
        "label": "address[]",
        "numberOfBytes": "32"
      },
      "t_contract(ILimitOrderProtocol)5185": {
        "encoding": "inplace",
        "label": "contract ILimitOrderProtocol",
        "numberOfBytes": "20"
      },
      "t_contract(LinkTokenInterface)113": {
        "encoding": "inplace",
        "label": "contract LinkTokenInterface",
        "numberOfBytes": "20"
      },
      "t_mapping(t_address,t_array(t_address)dyn_storage)": {
        "encoding": "mapping",
        "key": "t_address",
        "label": "mapping(address => address[])",
        "numberOfBytes": "32",
        "value": "t_array(t_address)dyn_storage"
      },
      "t_mapping(t_address,t_uint256)": {
        "encoding": "mapping",
        "key": "t_address",
        "label": "mapping(address => uint256)",
        "numberOfBytes": "32",
        "value": "t_uint256"
      },
      "t_uint256": {
        "encoding": "inplace",
        "label": "uint256",
        "numberOfBytes": "32"
      }
    }
  }
}