{
  "address": "0xA51c1fc2f0D1a1b8494Ed1FE312d7C3a78Ed91C0",
  "abi": [
    {
      "inputs": [],
      "stateMutability": "nonpayable",
      "type": "constructor"
    },
    {
      "inputs": [
        {
          "internalType": "address",
          "name": "target",
          "type": "address"
        }
      ],
      "name": "AddressEmptyCode",
      "type": "error"
    },
    {
      "inputs": [
        {
          "internalType": "address",
          "name": "account",
          "type": "address"
        }
      ],
      "name": "AddressInsufficientBalance",
      "type": "error"
    },
    {
      "inputs": [],
      "name": "ArrayLengthMismatch",
      "type": "error"
    },
    {
      "inputs": [],
      "name": "FailedInnerCall",
      "type": "error"
    },
    {
      "inputs": [],
      "name": "InsufficientAllowance",
      "type": "error"
    },
    {
      "inputs": [],
      "name": "InsufficientBalance",
      "type": "error"
    },
    {
      "inputs": [
        {
          "internalType": "address",
          "name": "owner",
          "type": "address"
        }
      ],
      "name": "OwnableInvalidOwner",
      "type": "error"
    },
    {
      "inputs": [
        {
          "internalType": "address",
          "name": "account",
          "type": "address"
        }
      ],
      "name": "OwnableUnauthorizedAccount",
      "type": "error"
    },
    {
      "inputs": [],
      "name": "PermitInsufficientValue",
      "type": "error"
    },
    {
      "inputs": [],
      "name": "PermitOrderMismatch",
      "type": "error"
    },
    {
      "inputs": [
        {
          "internalType": "address",
          "name": "token",
          "type": "address"
        }
      ],
      "name": "SafeERC20FailedOperation",
      "type": "error"
    },
    {
      "anonymous": false,
      "inputs": [
        {
          "indexed": true,
          "internalType": "address",
          "name": "owner",
          "type": "address"
        },
        {
          "indexed": false,
          "internalType": "address",
          "name": "balancer",
          "type": "address"
        }
      ],
      "name": "BalancerCreated",
      "type": "event"
    },
    {
      "anonymous": false,
      "inputs": [
        {
          "indexed": true,
          "internalType": "address",
          "name": "previousOwner",
          "type": "address"
        },
        {
          "indexed": true,
          "internalType": "address",
          "name": "newOwner",
          "type": "address"
        }
      ],
      "name": "OwnershipTransferred",
      "type": "event"
    },
    {
      "inputs": [
        {
          "internalType": "uint256",
          "name": "",
          "type": "uint256"
        }
      ],
      "name": "allBalancers",
      "outputs": [
        {
          "internalType": "address",
          "name": "",
          "type": "address"
        }
      ],
      "stateMutability": "view",
      "type": "function"
    },
    {
      "inputs": [],
      "name": "balancerCount",
      "outputs": [
        {
          "internalType": "uint256",
          "name": "",
          "type": "uint256"
        }
      ],
      "stateMutability": "view",
      "type": "function"
    },
    {
      "inputs": [
        {
          "internalType": "address[]",
          "name": "assets",
          "type": "address[]"
        },
        {
          "internalType": "uint256[]",
          "name": "targetPercBps",
          "type": "uint256[]"
        },
        {
          "internalType": "uint256[]",
          "name": "initialDepositAmounts",
          "type": "uint256[]"
        },
        {
          "components": [
            {
              "internalType": "address",
              "name": "token",
              "type": "address"
            },
            {
              "internalType": "uint256",
              "name": "value",
              "type": "uint256"
            },
            {
              "internalType": "uint256",
              "name": "deadline",
              "type": "uint256"
            },
            {
              "internalType": "uint8",
              "name": "v",
              "type": "uint8"
            },
            {
              "internalType": "bytes32",
              "name": "r",
              "type": "bytes32"
            },
            {
              "internalType": "bytes32",
              "name": "s",
              "type": "bytes32"
            }
          ],
          "internalType": "struct BalancerFactory.PermitInput[]",
          "name": "permits",
          "type": "tuple[]"
        }
      ],
      "name": "createBalancer",
      "outputs": [
        {
          "internalType": "address",
          "name": "balancerAddr",
          "type": "address"
        }
      ],
      "stateMutability": "nonpayable",
      "type": "function"
    },
    {
      "inputs": [
        {
          "internalType": "address",
          "name": "user",
          "type": "address"
        }
      ],
      "name": "getUserBalancers",
      "outputs": [
        {
          "internalType": "address[]",
          "name": "",
          "type": "address[]"
        }
      ],
      "stateMutability": "view",
      "type": "function"
    },
    {
      "inputs": [],
      "name": "owner",
      "outputs": [
        {
          "internalType": "address",
          "name": "",
          "type": "address"
        }
      ],
      "stateMutability": "view",
      "type": "function"
    },
    {
      "inputs": [],
      "name": "renounceOwnership",
      "outputs": [],
      "stateMutability": "nonpayable",
      "type": "function"
    },
    {
      "inputs": [
        {
          "internalType": "address",
          "name": "newOwner",
          "type": "address"
        }
      ],
      "name": "transferOwnership",
      "outputs": [],
      "stateMutability": "nonpayable",
      "type": "function"
    },
    {
      "inputs": [
        {
          "internalType": "address",
          "name": "",
          "type": "address"
        },
        {
          "internalType": "uint256",
          "name": "",
          "type": "uint256"
        }
      ],
      "name": "userBalancers",
      "outputs": [
        {
          "internalType": "address",
          "name": "",
          "type": "address"
        }
      ],
      "stateMutability": "view",
      "type": "function"
    }
  ],
  "transactionHash": "0x0319af6b4b50f15a8572573dce1030ab7fb405341611a37f0c19c7ac69841da7",
  "args": [],
  "numDeployments": 1,
  "solcInputHash": "1dbe172297066b2d05e2c9c7b6ba9dd2",
  "bytecode": "0x6080806040523461007a5733156100645760008054336001600160a01b03198216811783556040519290916001600160a01b0316907f8be0079c531659141344cd1fd0a4f28419497f9722a3daafe3b4186f6b6457e09080a361320790816100808239f35b631e4fbdf760e01b815260006004820152602490fd5b600080fdfe60808060405260043610156200001457600080fd5b60003560e01c90816332bb00fb1462000d7857508063715018a61462000cd8578063735d99301462000c505780638da5cb5b1462000bfc57806399368bce1462000238578063cf6bf14914620001ac578063f2fde38b14620000c35763f923d360146200008057600080fd5b34620000be5760007ffffffffffffffffffffffffffffffffffffffffffffffffffffffffffffffffc360112620000be576020600154604051908152f35b600080fd5b34620000be5760207ffffffffffffffffffffffffffffffffffffffffffffffffffffffffffffffffc360112620000be57620000fe62000e5d565b6200010862000f6d565b73ffffffffffffffffffffffffffffffffffffffff8091169081156200017b57600054827fffffffffffffffffffffffff0000000000000000000000000000000000000000821617600055167f8be0079c531659141344cd1fd0a4f28419497f9722a3daafe3b4186f6b6457e0600080a3005b60246040517f1e4fbdf700000000000000000000000000000000000000000000000000000000815260006004820152fd5b34620000be5760407ffffffffffffffffffffffffffffffffffffffffffffffffffffffffffffffffc360112620000be57620001e762000e5d565b6024359073ffffffffffffffffffffffffffffffffffffffff809116600052600260205260406000208054831015620000be57602092620002289162000e81565b9190546040519260031b1c168152f35b34620000be5760807ffffffffffffffffffffffffffffffffffffffffffffffffffffffffffffffffc360112620000be5760043567ffffffffffffffff8111620000be576200028c90369060040162000e9a565b60243567ffffffffffffffff8111620000be57620002af90369060040162000e9a565b92909160443567ffffffffffffffff8111620000be57620002d590369060040162000e9a565b94909360643567ffffffffffffffff8111620000be5736602382011215620000be5767ffffffffffffffff816004013511620000be5736602460c083600401350283010111620000be5782841480159062000bf1575b62000bc7578381600401350362000bc75760005b84811062000b18575060005b84811062000859575050620003608362000f54565b9062000370604051928362000ece565b8382527fffffffffffffffffffffffffffffffffffffffffffffffffffffffffffffffe06200039f8562000f54565b01366020840137604051928361216d81011067ffffffffffffffff61216d86011117620005c95761216d6200106585393361216d8501908152608060208201819052810186905260a001908660005b8781106200080c57505061216d85018203604061216d870101528082527f07ffffffffffffffffffffffffffffffffffffffffffffffffffffffffffffff8111620000be57908493929160051b809260208301370160206040818301928261216d8701820301606061216d8801015284518094520192019060005b818110620007f25750505003906000f0938415620007e65760005b82811062000627578560015490680100000000000000009182811015620005c9576001810180600155811015620005f8577fb10e2d527612073b26eecdfd717e6a320cf44b4afac2b0732d9fcbe2b7fa0cf60173ffffffffffffffffffffffffffffffffffffffff82167fffffffffffffffffffffffff00000000000000000000000000000000000000008254161790553360005260026020526040600020805492831015620005c957826200054291600160209501815562000e81565b81549060031b9073ffffffffffffffffffffffffffffffffffffffff808516831b921b191617905560405173ffffffffffffffffffffffffffffffffffffffff821681527f1b655f6b1b4c6330e0fde0f84395dbb79296701c13a227618ea9f906bbacb8bb833392a273ffffffffffffffffffffffffffffffffffffffff60405191168152f35b7f4e487b7100000000000000000000000000000000000000000000000000000000600052604160045260246000fd5b7f4e487b7100000000000000000000000000000000000000000000000000000000600052603260045260246000fd5b6200063481838762000f10565b358015620007dc5773ffffffffffffffffffffffffffffffffffffffff620006686200066284878962000f10565b62000f21565b1690604051907f23b872dd00000000000000000000000000000000000000000000000000000000602083015233602483015273ffffffffffffffffffffffffffffffffffffffff891660448301526064820152606481528060a081011067ffffffffffffffff60a083011117620005c95760008160a082930160405260208151910182855af13d15620007ce573d67ffffffffffffffff8111620005c9576200075591604051916200074360207fffffffffffffffffffffffffffffffffffffffffffffffffffffffffffffffe0601f840116018462000ece565b82523d6000602084013e5b8362000fbf565b8051908115159182620007a7575b50506200077657506001905b0162000484565b602490604051907f5274afe70000000000000000000000000000000000000000000000000000000082526004820152fd5b8192509060209181010312620000be5760200151801590811503620000be57888062000763565b62000755906060906200074e565b506001906200076f565b6040513d6000823e3d90fd5b825184528594506020938401939092019160010162000469565b909283359073ffffffffffffffffffffffffffffffffffffffff82168203620000be576020809173ffffffffffffffffffffffffffffffffffffffff6001941681520194019101620003ee565b6200086681898962000f10565b35801562000b0e576200087f6200066283888a62000f10565b620008938385600401356024870162000f43565b60608101359060ff82168203620000be5773ffffffffffffffffffffffffffffffffffffffff83163b15620000be5760a09060ff604051937fd505accf0000000000000000000000000000000000000000000000000000000085523360048601523060248601526020830135604486015260408301356064860152166084840152608081013560a4840152013560c482015260008160e4818373ffffffffffffffffffffffffffffffffffffffff87165af18015620007e65762000af4575b506040517fdd62ed3e00000000000000000000000000000000000000000000000000000000815233600482015230602482015260208160448173ffffffffffffffffffffffffffffffffffffffff86165afa8015620007e657839160009162000ab9575b501062000a8f57602073ffffffffffffffffffffffffffffffffffffffff916024604051809481937f70a08231000000000000000000000000000000000000000000000000000000008352336004840152165afa908115620007e65760009162000a57575b501062000a2d576001905b016200034b565b60046040517ff4d678b8000000000000000000000000000000000000000000000000000000008152fd5b90506020813d60201162000a86575b8162000a756020938362000ece565b81010312620000be57518a62000a1b565b3d915062000a66565b60046040517fa0bdddd2000000000000000000000000000000000000000000000000000000008152fd5b9150506020813d60201162000aeb575b8162000ad86020938362000ece565b81010312620000be578290518c620009b6565b3d915062000ac9565b67ffffffffffffffff8111620005c9576040528a62000952565b5060019062000a26565b62000b2581898962000f10565b35801562000bbd5762000b3e6200066283888a62000f10565b62000b528385600401356024870162000f43565b9062000b5e8262000f21565b73ffffffffffffffffffffffffffffffffffffffff91821691160362000b9357602001351062000a8f576001905b016200033f565b60046040517f58215db3000000000000000000000000000000000000000000000000000000008152fd5b5060019062000b8c565b60046040517fa24a13a6000000000000000000000000000000000000000000000000000000008152fd5b50868414156200032b565b34620000be5760007ffffffffffffffffffffffffffffffffffffffffffffffffffffffffffffffffc360112620000be57602073ffffffffffffffffffffffffffffffffffffffff60005416604051908152f35b34620000be5760207ffffffffffffffffffffffffffffffffffffffffffffffffffffffffffffffffc360112620000be57600435600154811015620000be5773ffffffffffffffffffffffffffffffffffffffff60209160016000527fb10e2d527612073b26eecdfd717e6a320cf44b4afac2b0732d9fcbe2b7fa0cf6015416604051908152f35b34620000be5760007ffffffffffffffffffffffffffffffffffffffffffffffffffffffffffffffffc360112620000be5762000d1362000f6d565b600073ffffffffffffffffffffffffffffffffffffffff81547fffffffffffffffffffffffff000000000000000000000000000000000000000081168355167f8be0079c531659141344cd1fd0a4f28419497f9722a3daafe3b4186f6b6457e08280a3005b34620000be576020807ffffffffffffffffffffffffffffffffffffffffffffffffffffffffffffffffc360112620000be579073ffffffffffffffffffffffffffffffffffffffff918262000dcc62000e5d565b16600052600281526040600020908154808452818401908193600052826000209060005b81811062000e46575050508362000e0991038462000ece565b60405192818401908285525180915260408401929160005b82811062000e2f5785850386f35b835187168552938101939281019260010162000e21565b825488168452928401926001928301920162000df0565b6004359073ffffffffffffffffffffffffffffffffffffffff82168203620000be57565b8054821015620005f85760005260206000200190600090565b9181601f84011215620000be5782359167ffffffffffffffff8311620000be576020808501948460051b010111620000be57565b90601f7fffffffffffffffffffffffffffffffffffffffffffffffffffffffffffffffe0910116810190811067ffffffffffffffff821117620005c957604052565b9190811015620005f85760051b0190565b3573ffffffffffffffffffffffffffffffffffffffff81168103620000be5790565b9190811015620005f85760c0020190565b67ffffffffffffffff8111620005c95760051b60200190565b73ffffffffffffffffffffffffffffffffffffffff60005416330362000f8f57565b60246040517f118cdaa7000000000000000000000000000000000000000000000000000000008152336004820152fd5b9062001000575080511562000fd657805190602001fd5b60046040517f1425ea42000000000000000000000000000000000000000000000000000000008152fd5b815115806200105a575b62001013575090565b60249073ffffffffffffffffffffffffffffffffffffffff604051917f9996b315000000000000000000000000000000000000000000000000000000008352166004820152fd5b50803b156200100a56fe60c0806040523462000338576200216d8038038091620000208285620005a2565b8339810160808282031262000338576200003a82620005c6565b60208301516001600160401b0381116200033857830182601f8201121562000338578051936200006a85620005db565b916200007a6040519384620005a2565b858352602083016020819760051b830101918683116200033857602001905b8282106200056b5750505060408101516001600160401b038111620003385784620000c6918301620005f3565b60608201519094906001600160401b0381116200033857620000e99201620005f3565b906001600160a01b038316156200055257600080546001600160a01b031981166001600160a01b03868116918217845560405193919216907f8be0079c531659141344cd1fd0a4f28419497f9722a3daafe3b4186f6b6457e09080a38151855181149081159162000545575b5062000536575060009060005b81518110156200039f576001600160a01b036200018082846200065c565b51169283156200038d5760018054680100000000000000008110156200033d578181018083558110156200037757816000526020600020018560018060a01b031982541617905584600052600360205260406000209060ff19825416179055620001eb82886200065c565b518460005260026020526040600020556200020782886200065c565b5181018091116200036157926200021f82866200065c565b5162000230575b5060010162000162565b6200023c82866200065c565b516040516323b872dd60e01b60208201526001600160a01b03881660248201523060448201526064808201929092529081526001600160401b0360a08201908111908211176200033d5760008160a082930160405260208151910182855af13d1562000353573d6001600160401b0381116200033d57620002e39160405191620002d16020601f19601f8401160184620005a2565b82523d6000602084013e5b83620006a7565b805190811515918262000311575b505015620002265760249060405190635274afe760e01b82526004820152fd5b819250906020918101031262000338576020015180159081150362000338573880620002f1565b600080fd5b634e487b7160e01b600052604160045260246000fd5b620002e390606090620002dc565b634e487b7160e01b600052601160045260246000fd5b634e487b7160e01b600052603260045260246000fd5b60405163d92e233d60e01b8152600490fd5b42600455600680546001600160a01b0319166001600160a01b0387161790554660a0526040518490889088908590600890602090620003de8162000586565b82815201672130b630b731b2b960c11b81522092604051620004008162000586565b60016020819282815201603160f81b815220926040519360208501967f8b73c3c69bb8fe3d512ecc4cf759cc79239f7b179b0ffacaa9a75d522b39400f8852604086015260608501524660808501523060a085015260a0845260c084019584871060018060401b038811176200033d5760408790528451902060805260608652516101208401819052610140840192919060005b8181106200051757505050507f4f53ac031d4fe7e2706b2eb17a7c80a7863819c0fb6c71d807d9176f3b6fa14794620004df620004f19260bf1995868683030160e087015262000671565b90848483030161010085015262000671565b030190a1604051611a5d90816200071082396080518161158c015260a051816114540152f35b83516001600160a01b0316855260209485019490930192820162000494565b63512509d360e11b8152600490fd5b9050835114153862000155565b604051631e4fbdf760e01b815260006004820152602490fd5b602080916200057a84620005c6565b81520191019062000099565b604081019081106001600160401b038211176200033d57604052565b601f909101601f19168101906001600160401b038211908210176200033d57604052565b51906001600160a01b03821682036200033857565b6001600160401b0381116200033d5760051b60200190565b9080601f8301121562000338578151906020916200061181620005db565b93620006216040519586620005a2565b81855260208086019260051b8201019283116200033857602001905b8282106200064c575050505090565b815181529083019083016200063d565b8051821015620003775760209160051b010190565b90815180825260208080930193019160005b82811062000692575050505090565b83518552938101939281019260010162000683565b90620006d05750805115620006be57805190602001fd5b604051630a12f52160e11b8152600490fd5b8151158062000705575b620006e3575090565b604051639996b31560e01b81526001600160a01b039091166004820152602490fd5b50803b15620006da56fe6080604052600436101561001257600080fd5b60003560e01c80631626ba7e14610ed8578063669ed93514610dfc578063715018a614610d605780638375547814610cfb5780638da5cb5b14610ca9578063affed0e014610c6d578063b83d815714610c31578063be50016814610b4a578063c771909c14610af8578063c87fa42a14610a8e578063cf35bdd014610a09578063d1b56227146109a7578063eafe7a741461096b578063f27431e7146101f4578063f2fde38b146101125763f698da25146100cc57600080fd5b3461010d5760007ffffffffffffffffffffffffffffffffffffffffffffffffffffffffffffffffc36011261010d576020610105611452565b604051908152f35b600080fd5b3461010d5760207ffffffffffffffffffffffffffffffffffffffffffffffffffffffffffffffffc36011261010d57610149610f8d565b6101516115ea565b73ffffffffffffffffffffffffffffffffffffffff8091169081156101c357600054827fffffffffffffffffffffffff0000000000000000000000000000000000000000821617600055167f8be0079c531659141344cd1fd0a4f28419497f9722a3daafe3b4186f6b6457e0600080a3005b60246040517f1e4fbdf700000000000000000000000000000000000000000000000000000000815260006004820152fd5b3461010d5760607ffffffffffffffffffffffffffffffffffffffffffffffffffffffffffffffffc36011261010d5767ffffffffffffffff60043581811161010d57610244903690600401610fb0565b90916024359060443590811161010d57610262903690600401610f5f565b91908142116109415761027a60055492838688611653565b610282611452565b906040519060208201927f1901000000000000000000000000000000000000000000000000000000000000845260228301526042820152604281526102c681610fe1565b5190206000916102e06102da3687846110df565b836115ae565b5060048197929710156109125715806108d4575b6108cb575b8315610701575b505050156106d7577fffffffffffffffffffffffffffffffffffffffffffffffffffffffffffffffff811461042a576001016005554260045560005b828110610459575050600554917fffffffffffffffffffffffffffffffffffffffffffffffffffffffffffffffff830192831161042a5760405191806040840133855260406020860152526060830191906000905b8082106103c157857fc7da47883a0e724423bc819cb5237c240de1657791ca64962c54f9c1d55799af86860387a2005b909192833573ffffffffffffffffffffffffffffffffffffffff811680910361010d5781526020840135602082015260408401356040820152606084013560608201526080908185013580151580910361010d5760019282015260a08091019401920190610391565b7f4e487b7100000000000000000000000000000000000000000000000000000000600052601160045260246000fd5b610464818486611413565b9073ffffffffffffffffffffffffffffffffffffffff610483836113e5565b16600052600360205260ff60406000205416156106ad5760408201358015610609579160019273ffffffffffffffffffffffffffffffffffffffff6104c7836113e5565b1660005260026020526040600020555b6060810135806104ea575b50500161033c565b6104f660808301611406565b156105875773ffffffffffffffffffffffffffffffffffffffff61051c610580936113e5565b16604051917f23b872dd00000000000000000000000000000000000000000000000000000000602084015273ffffffffffffffffffffffffffffffffffffffff8716602484015230604484015260649081840152825261057b8261102c565b6118af565b85806104e2565b73ffffffffffffffffffffffffffffffffffffffff6105a8610604936113e5565b1673ffffffffffffffffffffffffffffffffffffffff6000541691604051927fa9059cbb000000000000000000000000000000000000000000000000000000006020850152602484015260448301526044825261057b82610fe1565b610580565b506020820135918261061f575b600192506104d7565b73ffffffffffffffffffffffffffffffffffffffff61063d826113e5565b166000526002806020526040600020549084808301126000831290801582169115161761042a5760008560019684019301126106a4575b73ffffffffffffffffffffffffffffffffffffffff610692846113e5565b16600052602052604060002055610616565b60009150610674565b60046040517fc891add2000000000000000000000000000000000000000000000000000000008152fd5b60046040517f5cd5d233000000000000000000000000000000000000000000000000000000008152fd5b73ffffffffffffffffffffffffffffffffffffffff908160005416803b61081d575b50841580610810575b80610802575b61073d575b50610300565b6107809260209260065416906040518095819482937f1626ba7e00000000000000000000000000000000000000000000000000000000998a85526004850161114e565b03915afa600091816107d1575b5061079a575b8080610737565b7fffffffff0000000000000000000000000000000000000000000000000000000016146107c9575b8580610793565b5060016107c2565b6107f491925060203d6020116107fb575b6107ec8183611064565b810190611116565b908861078d565b503d6107e2565b5081600654163b1515610732565b508160065416151561072c565b6040516020817f1626ba7e00000000000000000000000000000000000000000000000000000000938482528180610859888b8d6004850161114e565b03915afa600091816108aa575b50610872575b50610723565b7fffffffff0000000000000000000000000000000000000000000000000000000016146108a1575b898061086c565b6001945061089a565b6108c491925060203d6020116107fb576107ec8183611064565b908c610866565b600193506102f9565b5073ffffffffffffffffffffffffffffffffffffffff8060005416818816908114918215610904575b50506102f4565b6006541614905089806108fd565b7f4e487b7100000000000000000000000000000000000000000000000000000000600052602160045260246000fd5b60046040517f203d82d8000000000000000000000000000000000000000000000000000000008152fd5b3461010d5760007ffffffffffffffffffffffffffffffffffffffffffffffffffffffffffffffffc36011261010d576020600154604051908152f35b3461010d5760607ffffffffffffffffffffffffffffffffffffffffffffffffffffffffffffffffc36011261010d5760043567ffffffffffffffff811161010d576101056109fb6020923690600401610fb0565b906044359160243591611653565b3461010d5760207ffffffffffffffffffffffffffffffffffffffffffffffffffffffffffffffffc36011261010d5760043560015481101561010d5773ffffffffffffffffffffffffffffffffffffffff60209160016000527fb10e2d527612073b26eecdfd717e6a320cf44b4afac2b0732d9fcbe2b7fa0cf6015416604051908152f35b3461010d5760207ffffffffffffffffffffffffffffffffffffffffffffffffffffffffffffffffc36011261010d5773ffffffffffffffffffffffffffffffffffffffff610ada610f8d565b166000526003602052602060ff604060002054166040519015158152f35b3461010d5760007ffffffffffffffffffffffffffffffffffffffffffffffffffffffffffffffffc36011261010d57602073ffffffffffffffffffffffffffffffffffffffff60065416604051908152f35b3461010d5760a07ffffffffffffffffffffffffffffffffffffffffffffffffffffffffffffffffc36011261010d5760043573ffffffffffffffffffffffffffffffffffffffff8116810361010d5760843590811515820361010d57604080517f507944c4a2331482d8a308351f4ac04a5f96237b108e686c1d7e33075ad48df3602080830191825273ffffffffffffffffffffffffffffffffffffffff94909416928201929092526024356060820152604435608082015260643560a082015292151560c08085019190915283529091610c2660e082611064565b519020604051908152f35b3461010d5760007ffffffffffffffffffffffffffffffffffffffffffffffffffffffffffffffffc36011261010d576020600454604051908152f35b3461010d5760007ffffffffffffffffffffffffffffffffffffffffffffffffffffffffffffffffc36011261010d576020600554604051908152f35b3461010d5760007ffffffffffffffffffffffffffffffffffffffffffffffffffffffffffffffffc36011261010d57602073ffffffffffffffffffffffffffffffffffffffff60005416604051908152f35b3461010d5760207ffffffffffffffffffffffffffffffffffffffffffffffffffffffffffffffffc36011261010d5773ffffffffffffffffffffffffffffffffffffffff610d47610f8d565b1660005260026020526020604060002054604051908152f35b3461010d5760007ffffffffffffffffffffffffffffffffffffffffffffffffffffffffffffffffc36011261010d57610d976115ea565b600073ffffffffffffffffffffffffffffffffffffffff81547fffffffffffffffffffffffff000000000000000000000000000000000000000081168355167f8be0079c531659141344cd1fd0a4f28419497f9722a3daafe3b4186f6b6457e08280a3005b3461010d5760207ffffffffffffffffffffffffffffffffffffffffffffffffffffffffffffffffc36011261010d5773ffffffffffffffffffffffffffffffffffffffff610e48610f8d565b610e506115ea565b168015610eae576020817f5553331329228fbd4123164423717a4a7539f6dfa1c3279a923b98fd681a6c73927fffffffffffffffffffffffff00000000000000000000000000000000000000006006541617600655604051908152a1005b60046040517fd92e233d000000000000000000000000000000000000000000000000000000008152fd5b3461010d5760407ffffffffffffffffffffffffffffffffffffffffffffffffffffffffffffffffc36011261010d5760243567ffffffffffffffff811161010d57610f35610f2c6020923690600401610f5f565b9060043561119a565b7fffffffff0000000000000000000000000000000000000000000000000000000060405191168152f35b9181601f8401121561010d5782359167ffffffffffffffff831161010d576020838186019501011161010d57565b6004359073ffffffffffffffffffffffffffffffffffffffff8216820361010d57565b9181601f8401121561010d5782359167ffffffffffffffff831161010d5760208085019460a0850201011161010d57565b6080810190811067ffffffffffffffff821117610ffd57604052565b7f4e487b7100000000000000000000000000000000000000000000000000000000600052604160045260246000fd5b60a0810190811067ffffffffffffffff821117610ffd57604052565b6040810190811067ffffffffffffffff821117610ffd57604052565b90601f7fffffffffffffffffffffffffffffffffffffffffffffffffffffffffffffffe0910116810190811067ffffffffffffffff821117610ffd57604052565b67ffffffffffffffff8111610ffd57601f017fffffffffffffffffffffffffffffffffffffffffffffffffffffffffffffffe01660200190565b9291926110eb826110a5565b916110f96040519384611064565b82948184528183011161010d578281602093846000960137010152565b9081602091031261010d57517fffffffff000000000000000000000000000000000000000000000000000000008116810361010d5790565b9183606094601f927fffffffffffffffffffffffffffffffffffffffffffffffffffffffffffffffe0948652604060208701528160408701528686013760008582860101520116010190565b906111a96102da3685846110df565b506004811015610912571590816113a5575b5061137e5773ffffffffffffffffffffffffffffffffffffffff8060005416803b6112d1575b506006541692831515806112c7575b61121d575b505050507fffffffff0000000000000000000000000000000000000000000000000000000090565b61125b936020926040518096819482937f1626ba7e00000000000000000000000000000000000000000000000000000000988985526004850161114e565b03915afa600092816112a6575b50611275575b80806111f5565b7fffffffff000000000000000000000000000000000000000000000000000000008216146112a3578061126e565b90565b6112c091935060203d6020116107fb576107ec8183611064565b9138611268565b50833b15156111f0565b604051906020827f1626ba7e0000000000000000000000000000000000000000000000000000000092838252818061130e8b8a8c6004850161114e565b03915afa6000928161135d575b50611327575b506111e1565b7fffffffff000000000000000000000000000000000000000000000000000000008216146113555780611321565b935050505090565b61137791935060203d6020116107fb576107ec8183611064565b913861131b565b5050507f1626ba7e0000000000000000000000000000000000000000000000000000000090565b60005473ffffffffffffffffffffffffffffffffffffffff918216908216811492509082156113d7575b5050386111bb565b6006541614905038806113cf565b3573ffffffffffffffffffffffffffffffffffffffff8116810361010d5790565b35801515810361010d5790565b91908110156114235760a0020190565b7f4e487b7100000000000000000000000000000000000000000000000000000000600052603260045260246000fd5b7f0000000000000000000000000000000000000000000000000000000000000000461461158a577f42616c616e63657200000000000000000000000000000000000000000000000060206040516114a881611048565b6008815201527f310000000000000000000000000000000000000000000000000000000000000060206040516114dd81611048565b60018152015260405160208101907f8b73c3c69bb8fe3d512ecc4cf759cc79239f7b179b0ffacaa9a75d522b39400f82527f080ac0997b950d52c0dbe3d09be6b60bd4073597dcc1116238cadeaeddd6293f60408201527fc89efdaa54c0f20c7adf612882df0950f5a951637e0307cdcb4c672f298b8bc660608201524660808201523060a082015260a0815260c0810181811067ffffffffffffffff821117610ffd5760405251902090565b7f000000000000000000000000000000000000000000000000000000000000000090565b81519190604183036115df576115d892506020820151906060604084015193015160001a90611812565b9192909190565b505060009160029190565b73ffffffffffffffffffffffffffffffffffffffff60005416330361160b57565b60246040517f118cdaa7000000000000000000000000000000000000000000000000000000008152336004820152fd5b67ffffffffffffffff8111610ffd5760051b60200190565b91909261165f8461163b565b60409461166e86519283611064565b80825261167a8161163b565b602095868401927fffffffffffffffffffffffffffffffffffffffffffffffffffffffffffffffe080930136853760005b81811061174657505050908651918287810180955190939060005b8a82821061172f57505050506116e29203908101835282611064565b519020918451938401947f3e4e05ca93cbfca12befd1933c0f022d0fb04689f83cf61366f1874fc44d810a865284015260608301526080820152608081526117298161102c565b51902090565b8351875295860195879450909201916001016116c6565b88611752828486611413565b6117f38c6117e7611762846113e5565b9161176f60808601611406565b81517f507944c4a2331482d8a308351f4ac04a5f96237b108e686c1d7e33075ad48df388820190815273ffffffffffffffffffffffffffffffffffffffff90951660208601529686013560408501529085013560608085019190915290940135608083015292151560a08201529291829060c0850190565b03878101835282611064565b519020908651811015611423576001918a8260051b89010152016116ab565b91907f7fffffffffffffffffffffffffffffff5d576e7357a4501ddfe92f46681b20a084116118a357926020929160ff608095604051948552168484015260408301526060820152600092839182805260015afa1561189757805173ffffffffffffffffffffffffffffffffffffffff81161561188e57918190565b50809160019190565b604051903d90823e3d90fd5b50505060009160039190565b73ffffffffffffffffffffffffffffffffffffffff1690611907600080836020829551910182875af13d1561197f573d906118e9826110a5565b916118f76040519384611064565b82523d84602084013e5b84611987565b908151918215159283611950575b50505061191f5750565b602490604051907f5274afe70000000000000000000000000000000000000000000000000000000082526004820152fd5b81929350906020918101031261197b5760200151908115918215036119785750388080611915565b80fd5b5080fd5b606090611901565b906119c6575080511561199c57805190602001fd5b60046040517f1425ea42000000000000000000000000000000000000000000000000000000008152fd5b81511580611a1e575b6119d7575090565b60249073ffffffffffffffffffffffffffffffffffffffff604051917f9996b315000000000000000000000000000000000000000000000000000000008352166004820152fd5b50803b156119cf56fea2646970667358221220ad5dbbaf4b4fbeb0391e85ea12072cdf1186df0ba37d173534e51cbb1bf2a88864736f6c63430008170033a2646970667358221220a87efb9c1f047d282a2c02cf3a8676d718f6b69249eecc51e18dce2bac0408b564736f6c63430008170033",
  "devdoc": {
    "errors": {
      "AddressEmptyCode(address)": [
        {
          "details": "There's no code at `target` (it is not a contract)."
        }
      ],
      "AddressInsufficientBalance(address)": [
        {
          "details": "The ETH balance of the account is not enough to perform the operation."
        }
      ],
      "FailedInnerCall()": [
        {
          "details": "A call to an address target failed. The target may have reverted."
        }
      ],
      "OwnableInvalidOwner(address)": [
        {
          "details": "The owner is not a valid owner account. (eg. `address(0)`)"
        }
      ],
      "OwnableUnauthorizedAccount(address)": [
        {
          "details": "The caller account is not authorized to perform an operation."
        }
      ],
      "SafeERC20FailedOperation(address)": [
        {
          "details": "An operation with an ERC20 token failed."
        }
      ]
    },
    "kind": "dev",
    "methods": {
      "owner()": {
        "details": "Returns the address of the current owner."
      },
      "renounceOwnership()": {
        "details": "Leaves the contract without owner. It will not be possible to call `onlyOwner` functions. Can only be called by the current owner. NOTE: Renouncing ownership will leave the contract without an owner, thereby disabling any functionality that is only available to the owner."
      },
      "transferOwnership(address)": {
        "details": "Transfers ownership of the contract to a new account (`newOwner`). Can only be called by the current owner."
      }
    },
    "title": "BalancerFactory (minimal)",
    "version": 1
  },
  "userdoc": {
    "kind": "user",
    "methods": {
      "createBalancer(address[],uint256[],uint256[],(address,uint256,uint256,uint8,bytes32,bytes32)[])": {
        "notice": "Deploy a new Balancer and fund it in the same tx using EIP-2612 permits per token. The permits authorize this Factory as spender; then the Factory transfers to the Balancer. This avoids needing to know the Balancer address in advance and works without CREATE2. Requirements: - assets.length == targetPercBps.length == initialDepositAmounts.length - permits.length == assets.length and aligned by index when amount > 0 - each token supports EIP-2612"
      }
    },
    "notice": "Deploys Balancer instances with initial deposits. No automation, no oracles.",
    "version": 1
  },
  "storageLayout": {
    "storage": [
      {
        "astId": 8,
        "contract": "contracts/portfolio/factory/BalancerFactory.sol:BalancerFactory",
        "label": "_owner",
        "offset": 0,
        "slot": "0",
        "type": "t_address"
      },
      {
        "astId": 5343,
        "contract": "contracts/portfolio/factory/BalancerFactory.sol:BalancerFactory",
        "label": "allBalancers",
        "offset": 0,
        "slot": "1",
        "type": "t_array(t_address)dyn_storage"
      },
      {
        "astId": 5348,
        "contract": "contracts/portfolio/factory/BalancerFactory.sol:BalancerFactory",
        "label": "userBalancers",
        "offset": 0,
        "slot": "2",
        "type": "t_mapping(t_address,t_array(t_address)dyn_storage)"
      }
    ],
    "types": {
      "t_address": {
        "encoding": "inplace",
        "label": "address",
        "numberOfBytes": "20"
      },
      "t_array(t_address)dyn_storage": {
        "base": "t_address",
        "encoding": "dynamic_array",
        "label": "address[]",
        "numberOfBytes": "32"
      },
      "t_mapping(t_address,t_array(t_address)dyn_storage)": {
        "encoding": "mapping",
        "key": "t_address",
        "label": "mapping(address => address[])",
        "numberOfBytes": "32",
        "value": "t_array(t_address)dyn_storage"
      }
    }
  }
}