{
  "address": "0x2279B7A0a67DB372996a5FaB50D91eAA73d2eBe6",
  "abi": [
    {
      "anonymous": false,
      "inputs": [
        {
          "indexed": false,
          "internalType": "string",
          "name": "key",
          "type": "string"
        },
        {
          "indexed": false,
          "internalType": "uint128",
          "name": "ts",
          "type": "uint128"
        },
        {
          "indexed": false,
          "internalType": "uint128",
          "name": "value",
          "type": "uint128"
        }
      ],
      "name": "MockUpdate",
      "type": "event"
    },
    {
      "inputs": [
        {
          "internalType": "string",
          "name": "key",
          "type": "string"
        },
        {
          "internalType": "uint128",
          "name": "timestamp",
          "type": "uint128"
        },
        {
          "internalType": "uint128",
          "name": "value",
          "type": "uint128"
        }
      ],
      "name": "setMockUpdate",
      "outputs": [],
      "stateMutability": "nonpayable",
      "type": "function"
    },
    {
      "inputs": [
        {
          "internalType": "string",
          "name": "key",
          "type": "string"
        }
      ],
      "name": "updates",
      "outputs": [
        {
          "internalType": "uint128",
          "name": "ts",
          "type": "uint128"
        },
        {
          "internalType": "uint128",
          "name": "value",
          "type": "uint128"
        }
      ],
      "stateMutability": "view",
      "type": "function"
    }
  ],
  "transactionHash": "0x9d5b4baaef8af028ee4506b1591655fec205d513650afbbfd3957df3ac383996",
  "args": [],
  "numDeployments": 1,
  "solcInputHash": "a9676a96c68143630148e71508d4d26e",
  "bytecode": "0x60808060405234610016576102e9908161001c8239f35b600080fdfe60806040818152600436101561001457600080fd5b600091823560e01c908163a4b0e2a614610193575063b4dba4ee1461003857600080fd5b3461018f5760607ffffffffffffffffffffffffffffffffffffffffffffffffffffffffffffffffc36011261018f5760043567ffffffffffffffff811161018b57610087903690600401610231565b90602435906fffffffffffffffffffffffffffffffff93848316809303610187576044359285841680940361018357846080947fffffffffffffffffffffffffffffffffffffffffffffffffffffffffffffffe093601f937f69be4afb98f63af51cd7fe554f13260e28ba3a15ac1be4c8e03e7942236ff360998b7fffffffffffffffffffffffffffffffff0000000000000000000000000000000061012b610264565b928484528760208c818701958a8752895193849283378b82019081520301902093511691518b1b161790558151988997606089528160608a0152898901378a888589010152602087015285015201168101030190a180f35b8680fd5b8580fd5b8280fd5b5080fd5b9050823461022e5760207ffffffffffffffffffffffffffffffffffffffffffffffffffffffffffffffffc36011261022e5760043567ffffffffffffffff811161018f576020916101e984923690600401610231565b809184378201908152030190206020610200610264565b9154916fffffffffffffffffffffffffffffffff83169283825260801c918291015282519182526020820152f35b80fd5b9181601f8401121561025f5782359167ffffffffffffffff831161025f576020838186019501011161025f57565b600080fd5b604051906040820182811067ffffffffffffffff82111761028457604052565b7f4e487b7100000000000000000000000000000000000000000000000000000000600052604160045260246000fdfea26469706673582212200cd7359a78455d39c7744792a6d25d032cd540f0e24c6c7e817d2247c135706c64736f6c63430008170033",
  "devdoc": {
    "kind": "dev",
    "methods": {},
    "version": 1
  },
  "userdoc": {
    "kind": "user",
    "methods": {},
    "version": 1
  },
  "storageLayout": {
    "storage": [
      {
        "astId": 2316,
        "contract": "contracts/mocks/DiaPushOracleReceiverMock.sol:DiaPushOracleReceiverMock",
        "label": "keyToData",
        "offset": 0,
        "slot": "0",
        "type": "t_mapping(t_string_memory_ptr,t_struct(Data)2311_storage)"
      }
    ],
    "types": {
      "t_mapping(t_string_memory_ptr,t_struct(Data)2311_storage)": {
        "encoding": "mapping",
        "key": "t_string_memory_ptr",
        "label": "mapping(string => struct DiaPushOracleReceiverMock.Data)",
        "numberOfBytes": "32",
        "value": "t_struct(Data)2311_storage"
      },
      "t_string_memory_ptr": {
        "encoding": "bytes",
        "label": "string",
        "numberOfBytes": "32"
      },
      "t_struct(Data)2311_storage": {
        "encoding": "inplace",
        "label": "struct DiaPushOracleReceiverMock.Data",
        "members": [
          {
            "astId": 2308,
            "contract": "contracts/mocks/DiaPushOracleReceiverMock.sol:DiaPushOracleReceiverMock",
            "label": "ts",
            "offset": 0,
            "slot": "0",
            "type": "t_uint128"
          },
          {
            "astId": 2310,
            "contract": "contracts/mocks/DiaPushOracleReceiverMock.sol:DiaPushOracleReceiverMock",
            "label": "value",
            "offset": 16,
            "slot": "0",
            "type": "t_uint128"
          }
        ],
        "numberOfBytes": "32"
      },
      "t_uint128": {
        "encoding": "inplace",
        "label": "uint128",
        "numberOfBytes": "16"
      }
    }
  }
}