{
  "address": "0x8A791620dd6260079BF849Dc5567aDC3F2FdC318",
  "abi": [
    {
      "inputs": [
        {
          "internalType": "address",
          "name": "_diaPush",
          "type": "address"
        },
        {
          "internalType": "string",
          "name": "_ethUsdKey",
          "type": "string"
        }
      ],
      "stateMutability": "nonpayable",
      "type": "constructor"
    },
    {
      "inputs": [],
      "name": "NoEthKey",
      "type": "error"
    },
    {
      "inputs": [],
      "name": "NoKeyForToken",
      "type": "error"
    },
    {
      "inputs": [],
      "name": "diaPush",
      "outputs": [
        {
          "internalType": "address",
          "name": "",
          "type": "address"
        }
      ],
      "stateMutability": "view",
      "type": "function"
    },
    {
      "inputs": [],
      "name": "ethUsdKey",
      "outputs": [
        {
          "internalType": "string",
          "name": "",
          "type": "string"
        }
      ],
      "stateMutability": "view",
      "type": "function"
    },
    {
      "inputs": [
        {
          "internalType": "address",
          "name": "srcToken",
          "type": "address"
        },
        {
          "internalType": "address",
          "name": "dstToken",
          "type": "address"
        },
        {
          "internalType": "bool",
          "name": "",
          "type": "bool"
        }
      ],
      "name": "getRate",
      "outputs": [
        {
          "internalType": "uint256",
          "name": "weightedRate",
          "type": "uint256"
        }
      ],
      "stateMutability": "view",
      "type": "function"
    },
    {
      "inputs": [
        {
          "internalType": "address",
          "name": "srcToken",
          "type": "address"
        },
        {
          "internalType": "bool",
          "name": "",
          "type": "bool"
        }
      ],
      "name": "getRateToEth",
      "outputs": [
        {
          "internalType": "uint256",
          "name": "weightedRate",
          "type": "uint256"
        }
      ],
      "stateMutability": "view",
      "type": "function"
    },
    {
      "inputs": [
        {
          "internalType": "string",
          "name": "key",
          "type": "string"
        }
      ],
      "name": "setEthUsdKey",
      "outputs": [],
      "stateMutability": "nonpayable",
      "type": "function"
    },
    {
      "inputs": [
        {
          "internalType": "address",
          "name": "token",
          "type": "address"
        },
        {
          "internalType": "string",
          "name": "key",
          "type": "string"
        }
      ],
      "name": "setTokenUsdKey",
      "outputs": [],
      "stateMutability": "nonpayable",
      "type": "function"
    },
    {
      "inputs": [
        {
          "internalType": "address",
          "name": "",
          "type": "address"
        }
      ],
      "name": "tokenToUsdKey",
      "outputs": [
        {
          "internalType": "string",
          "name": "",
          "type": "string"
        }
      ],
      "stateMutability": "view",
      "type": "function"
    }
  ],
  "transactionHash": "0xb4e91063a0edb894b9b2e890bf34b7804f86ecd8d4b8d3ae44827a74f0f2d5f8",
  "args": [
    "0x2279B7A0a67DB372996a5FaB50D91eAA73d2eBe6",
    "ETH/USD"
  ],
  "numDeployments": 1,
  "solcInputHash": "a9676a96c68143630148e71508d4d26e",
  "bytecode": "0x60a060405234620002ac576200124e803803806200001d81620002b1565b928339810190604081830312620002ac578051906001600160a01b038216808303620002ac576020828101516001600160401b0393848211620002ac570193601f92868487011215620002ac5785518581116200022057601f19966200008982870189168601620002b1565b98828a52858383010111620002ac57849060005b8381106200029757505060009189010152156200026a5785511562000236576080528451928311620002205760019384548581811c9116801562000215575b83821014620001ff57838111620001b4575b50819284116001146200015057505081929360009262000144575b5050600019600383901b1c191690821b1790555b604051610f769081620002d882396080518181816105c601528181610ad60152610dc40152f35b01519050388062000109565b6000858152828120918516969193925b8782106200019c5750508385961062000182575b505050811b0190556200011d565b015160001960f88460031b161c1916905538808062000174565b80878596829496860151815501950193019062000160565b85600052826000208480870160051c820192858810620001f5575b0160051c019086905b828110620001e8575050620000ee565b60008155018690620001d8565b92508192620001cf565b634e487b7160e01b600052602260045260246000fd5b90607f1690620000dc565b634e487b7160e01b600052604160045260246000fd5b60405162461bcd60e51b815260048101839052600c60248201526b6574684b65793d656d70747960a01b6044820152606490fd5b60405162461bcd60e51b815260048101839052600560248201526406469613d360dc1b6044820152606490fd5b8181018301518b82018401528692016200009d565b600080fd5b6040519190601f01601f191682016001600160401b03811183821017620002205760405256fe608060409080825260048036101561001657600080fd5b600091823560e01c90816330c187c4146106b3575080637de4fd1014610663578063802431fb146105ea578063893e18361461057b57806398330afc14610509578063e27b404e146102e65763ea96c5581461007157600080fd5b346102e257827ffffffffffffffffffffffffffffffffffffffffffffffffffffffffffffffffc3601126102e2576100a76109b9565b67ffffffffffffffff916024358381116102de57906100df73ffffffffffffffffffffffffffffffffffffffff9392369083016109e1565b939092168015610281576100f4841515610edb565b85526020958587528520938311610255575061011083546107cc565b601f8111610212575b508394601f8311600114610173575093839482939492610168575b50507fffffffffffffffffffffffffffffffffffffffffffffffffffffffffffffffff8260011b9260031b1c191617905580f35b013590503880610134565b907fffffffffffffffffffffffffffffffffffffffffffffffffffffffffffffffe08316958486528286209286905b8882106101fa575050836001959697106101c2575b505050811b01905580f35b7fffffffffffffffffffffffffffffffffffffffffffffffffffffffffffffffff60f88560031b161c199101351690553880806101b7565b806001849682949587013581550195019201906101a2565b838552858520601f840160051c81019187851061024b575b601f0160051c01905b8181106102405750610119565b858155600101610233565b909150819061022a565b8460416024927f4e487b7100000000000000000000000000000000000000000000000000000000835252fd5b60648260208951917f08c379a0000000000000000000000000000000000000000000000000000000008352820152600560248201527f746f6b3d300000000000000000000000000000000000000000000000000000006044820152fd5b8480fd5b5080fd5b5090346105065760209160207ffffffffffffffffffffffffffffffffffffffffffffffffffffffffffffffffc3601126102e25767ffffffffffffffff9080358281116105025761033a90369083016109e1565b919092610348831515610edb565b82116104d6575060019161035c83546107cc565b601f8111610474575b508394601f83116001146103be5750938394829394926103b3575b50507fffffffffffffffffffffffffffffffffffffffffffffffffffffffffffffffff82841b9260031b1c191617905580f35b013590508480610380565b907fffffffffffffffffffffffffffffffffffffffffffffffffffffffffffffffe08316957fb10e2d527612073b26eecdfd717e6a320cf44b4afac2b0732d9fcbe2b7fa0cf69286905b88821061045d575050838596971061042557505050811b01905580f35b7fffffffffffffffffffffffffffffffffffffffffffffffffffffffffffffffff60f88560031b161c199101351690558480806101b7565b808784968294958701358155019501920190610408565b7fb10e2d527612073b26eecdfd717e6a320cf44b4afac2b0732d9fcbe2b7fa0cf6601f840160051c810191602085106104cc575b601f0160051c019084905b8281106104c1575050610365565b8681550184906104b3565b90915081906104a8565b8360416024927f4e487b7100000000000000000000000000000000000000000000000000000000835252fd5b8380fd5b80fd5b8284346102e25760207ffffffffffffffffffffffffffffffffffffffffffffffffffffffffffffffffc3601126102e25761056c816105779373ffffffffffffffffffffffffffffffffffffffff61055f6109b9565b168152806020522061088f565b905191829182610953565b0390f35b8284346102e257817ffffffffffffffffffffffffffffffffffffffffffffffffffffffffffffffffc3601126102e2576020905173ffffffffffffffffffffffffffffffffffffffff7f0000000000000000000000000000000000000000000000000000000000000000168152f35b8284346102e25760607ffffffffffffffffffffffffffffffffffffffffffffffffffffffffffffffffc3601126102e2576106236109b9565b6024359273ffffffffffffffffffffffffffffffffffffffff841684036105065760443580151503610506575060209261065c91610d6f565b9051908152f35b8284346102e257807ffffffffffffffffffffffffffffffffffffffffffffffffffffffffffffffffc3601126102e25761069b6109b9565b9160243580151503610506575061065c602092610a89565b8490843461050657807ffffffffffffffffffffffffffffffffffffffffffffffffffffffffffffffffc360112610506578060018054906106f3826107cc565b80865292602092600181169081156107815750600114610729575b610577868861071f8289038361081f565b5191829182610953565b9350600184527fb10e2d527612073b26eecdfd717e6a320cf44b4afac2b0732d9fcbe2b7fa0cf65b83851061076e5750505050810160200161071f826105778661070e565b8054868601840152938201938101610751565b6105779896508794506020935061071f9592507fffffffffffffffffffffffffffffffffffffffffffffffffffffffffffffff0091501682840152151560051b82010192948661070e565b90600182811c92168015610815575b60208310146107e657565b7f4e487b7100000000000000000000000000000000000000000000000000000000600052602260045260246000fd5b91607f16916107db565b90601f7fffffffffffffffffffffffffffffffffffffffffffffffffffffffffffffffe0910116810190811067ffffffffffffffff82111761086057604052565b7f4e487b7100000000000000000000000000000000000000000000000000000000600052604160045260246000fd5b906040519182600082546108a2816107cc565b9081845260209460019160018116908160001461091257506001146108d3575b5050506108d19250038361081f565b565b600090815285812095935091905b8183106108fa5750506108d193508201013880806108c2565b855488840185015294850194879450918301916108e1565b9150506108d19593507fffffffffffffffffffffffffffffffffffffffffffffffffffffffffffffff0091501682840152151560051b8201013880806108c2565b60208082528251818301819052939260005b8581106109a5575050507fffffffffffffffffffffffffffffffffffffffffffffffffffffffffffffffe0601f8460006040809697860101520116010190565b818101830151848201604001528201610965565b6004359073ffffffffffffffffffffffffffffffffffffffff821682036109dc57565b600080fd5b9181601f840112156109dc5782359167ffffffffffffffff83116109dc57602083818601950101116109dc57565b51906fffffffffffffffffffffffffffffffff821682036109dc57565b91908260409103126109dc57610a4d6020610a4684610a0f565b9301610a0f565b90565b8115610a5a570490565b7f4e487b7100000000000000000000000000000000000000000000000000000000600052601260045260246000fd5b9073ffffffffffffffffffffffffffffffffffffffff80600093168352602083602052604090610aba82862061088f565b805115610d46576001805494610acf866107cc565b15610d1d577f00000000000000000000000000000000000000000000000000000000000000001690845195858780610b2e7fa4b0e2a6000000000000000000000000000000000000000000000000000000009788835260048301610953565b0381865afa968715610d13578997610cea575b50908593929184519586948552602060048601528a92610b60836107cc565b9283602488015260449087600182169182600014610ca6575050600114610c48575b5050505082809103915afa918215610c3f578592610c10575b50506fffffffffffffffffffffffffffffffff809116918215610c0b5716670de0b6b3a764000090818102918183041490151715610bde57610a4d929350610a50565b6024847f4e487b710000000000000000000000000000000000000000000000000000000081526011600452fd5b505050565b610c2f9250803d10610c38575b610c27818361081f565b810190610a2c565b90503880610b9b565b503d610c1d565b513d86823e3d90fd5b60018d528c94507fb10e2d527612073b26eecdfd717e6a320cf44b4afac2b0732d9fcbe2b7fa0cf65b848610610c8d5750505050508260448192820101913880610b82565b80548a87018301528a9850899750948301948201610c71565b9150955060449350859492507fffffffffffffffffffffffffffffffffffffffffffffffffffffffffffffff0091501682840152151560051b820101913880610b82565b86949392919750610d0790853d8711610c3857610c27818361081f565b90509690919293610b41565b86513d8b823e3d90fd5b600485517f8fa77a04000000000000000000000000000000000000000000000000000000008152fd5b600483517f88e2316c000000000000000000000000000000000000000000000000000000008152fd5b919073ffffffffffffffffffffffffffffffffffffffff806000941684528360205260409080610da083872061088f565b9316855284602052610db382862061088f565b908351158015610ed2575b610d46577f000000000000000000000000000000000000000000000000000000000000000016825193838580610e1b7fa4b0e2a6000000000000000000000000000000000000000000000000000000009485835260048301610953565b0381855afa948515610ec8578795610e9d575b50918391610e49938351809581948293835260048301610953565b03915afa918215610c3f578592610c105750506fffffffffffffffffffffffffffffffff809116918215610c0b5716670de0b6b3a764000090818102918183041490151715610bde57610a4d929350610a50565b610e499391955091610ebc8593843d8611610c3857610c27818361081f565b90509591935091610e2e565b84513d89823e3d90fd5b50815115610dbe565b15610ee257565b60646040517f08c379a000000000000000000000000000000000000000000000000000000000815260206004820152600960248201527f6b65793d656d70747900000000000000000000000000000000000000000000006044820152fdfea2646970667358221220e394aa45660552cd1afc20d6112bb659eb1e0f4d8f946d8fee638910c191595564736f6c63430008170033",
  "devdoc": {
    "kind": "dev",
    "methods": {},
    "version": 1
  },
  "userdoc": {
    "kind": "user",
    "methods": {},
    "version": 1
  },
  "storageLayout": {
    "storage": [
      {
        "astId": 8513,
        "contract": "contracts/portfolio/oracle/OracleAdapter.sol:OracleAdapter",
        "label": "tokenToUsdKey",
        "offset": 0,
        "slot": "0",
        "type": "t_mapping(t_address,t_string_storage)"
      },
      {
        "astId": 8515,
        "contract": "contracts/portfolio/oracle/OracleAdapter.sol:OracleAdapter",
        "label": "ethUsdKey",
        "offset": 0,
        "slot": "1",
        "type": "t_string_storage"
      }
    ],
    "types": {
      "t_address": {
        "encoding": "inplace",
        "label": "address",
        "numberOfBytes": "20"
      },
      "t_mapping(t_address,t_string_storage)": {
        "encoding": "mapping",
        "key": "t_address",
        "label": "mapping(address => string)",
        "numberOfBytes": "32",
        "value": "t_string_storage"
      },
      "t_string_storage": {
        "encoding": "bytes",
        "label": "string",
        "numberOfBytes": "32"
      }
    }
  }
}