{
  "address": "0x135aCf86351F2113726318dE6b4ca66FA90d54Fd",
  "abi": [
    {
      "inputs": [
        {
          "internalType": "address",
          "name": "_limitOrderProtocol",
          "type": "address"
        },
        {
          "internalType": "address",
          "name": "_admin",
          "type": "address"
        }
      ],
      "stateMutability": "nonpayable",
      "type": "constructor"
    },
    {
      "inputs": [],
      "name": "AccessControlBadConfirmation",
      "type": "error"
    },
    {
      "inputs": [
        {
          "internalType": "address",
          "name": "account",
          "type": "address"
        },
        {
          "internalType": "bytes32",
          "name": "neededRole",
          "type": "bytes32"
        }
      ],
      "name": "AccessControlUnauthorizedAccount",
      "type": "error"
    },
    {
      "inputs": [],
      "name": "EnforcedPause",
      "type": "error"
    },
    {
      "inputs": [],
      "name": "EscrowAlreadyExists",
      "type": "error"
    },
    {
      "inputs": [],
      "name": "ExpectedPause",
      "type": "error"
    },
    {
      "inputs": [],
      "name": "FailedDeployment",
      "type": "error"
    },
    {
      "inputs": [
        {
          "internalType": "uint256",
          "name": "balance",
          "type": "uint256"
        },
        {
          "internalType": "uint256",
          "name": "needed",
          "type": "uint256"
        }
      ],
      "name": "InsufficientBalance",
      "type": "error"
    },
    {
      "inputs": [],
      "name": "InvalidImmutables",
      "type": "error"
    },
    {
      "inputs": [],
      "name": "InvalidSafetyDeposit",
      "type": "error"
    },
    {
      "inputs": [],
      "name": "UnauthorizedCaller",
      "type": "error"
    },
    {
      "anonymous": false,
      "inputs": [
        {
          "indexed": true,
          "internalType": "address",
          "name": "escrow",
          "type": "address"
        },
        {
          "indexed": true,
          "internalType": "address",
          "name": "maker",
          "type": "address"
        },
        {
          "indexed": true,
          "internalType": "address",
          "name": "taker",
          "type": "address"
        },
        {
          "indexed": false,
          "internalType": "bytes32",
          "name": "hashlockHash",
          "type": "bytes32"
        }
      ],
      "name": "DstEscrowCreated",
      "type": "event"
    },
    {
      "anonymous": false,
      "inputs": [
        {
          "indexed": false,
          "internalType": "address",
          "name": "account",
          "type": "address"
        }
      ],
      "name": "Paused",
      "type": "event"
    },
    {
      "anonymous": false,
      "inputs": [
        {
          "indexed": true,
          "internalType": "bytes32",
          "name": "role",
          "type": "bytes32"
        },
        {
          "indexed": true,
          "internalType": "bytes32",
          "name": "previousAdminRole",
          "type": "bytes32"
        },
        {
          "indexed": true,
          "internalType": "bytes32",
          "name": "newAdminRole",
          "type": "bytes32"
        }
      ],
      "name": "RoleAdminChanged",
      "type": "event"
    },
    {
      "anonymous": false,
      "inputs": [
        {
          "indexed": true,
          "internalType": "bytes32",
          "name": "role",
          "type": "bytes32"
        },
        {
          "indexed": true,
          "internalType": "address",
          "name": "account",
          "type": "address"
        },
        {
          "indexed": true,
          "internalType": "address",
          "name": "sender",
          "type": "address"
        }
      ],
      "name": "RoleGranted",
      "type": "event"
    },
    {
      "anonymous": false,
      "inputs": [
        {
          "indexed": true,
          "internalType": "bytes32",
          "name": "role",
          "type": "bytes32"
        },
        {
          "indexed": true,
          "internalType": "address",
          "name": "account",
          "type": "address"
        },
        {
          "indexed": true,
          "internalType": "address",
          "name": "sender",
          "type": "address"
        }
      ],
      "name": "RoleRevoked",
      "type": "event"
    },
    {
      "anonymous": false,
      "inputs": [
        {
          "indexed": true,
          "internalType": "address",
          "name": "escrow",
          "type": "address"
        },
        {
          "indexed": true,
          "internalType": "address",
          "name": "maker",
          "type": "address"
        },
        {
          "indexed": true,
          "internalType": "address",
          "name": "taker",
          "type": "address"
        },
        {
          "indexed": false,
          "internalType": "bytes32",
          "name": "hashlockHash",
          "type": "bytes32"
        }
      ],
      "name": "SrcEscrowCreated",
      "type": "event"
    },
    {
      "anonymous": false,
      "inputs": [
        {
          "indexed": false,
          "internalType": "address",
          "name": "account",
          "type": "address"
        }
      ],
      "name": "Unpaused",
      "type": "event"
    },
    {
      "inputs": [],
      "name": "DEFAULT_ADMIN_ROLE",
      "outputs": [
        {
          "internalType": "bytes32",
          "name": "",
          "type": "bytes32"
        }
      ],
      "stateMutability": "view",
      "type": "function"
    },
    {
      "inputs": [],
      "name": "ORCHESTRATOR_ROLE",
      "outputs": [
        {
          "internalType": "bytes32",
          "name": "",
          "type": "bytes32"
        }
      ],
      "stateMutability": "view",
      "type": "function"
    },
    {
      "inputs": [],
      "name": "RESOLVER_ROLE",
      "outputs": [
        {
          "internalType": "bytes32",
          "name": "",
          "type": "bytes32"
        }
      ],
      "stateMutability": "view",
      "type": "function"
    },
    {
      "inputs": [
        {
          "components": [
            {
              "internalType": "address",
              "name": "maker",
              "type": "address"
            },
            {
              "internalType": "address",
              "name": "taker",
              "type": "address"
            },
            {
              "internalType": "address",
              "name": "token",
              "type": "address"
            },
            {
              "internalType": "uint256",
              "name": "amount",
              "type": "uint256"
            },
            {
              "internalType": "uint256",
              "name": "safetyDeposit",
              "type": "uint256"
            },
            {
              "internalType": "bytes32",
              "name": "hashlockHash",
              "type": "bytes32"
            },
            {
              "components": [
                {
                  "internalType": "uint32",
                  "name": "srcWithdrawal",
                  "type": "uint32"
                },
                {
                  "internalType": "uint32",
                  "name": "srcPublicWithdrawal",
                  "type": "uint32"
                },
                {
                  "internalType": "uint32",
                  "name": "srcCancellation",
                  "type": "uint32"
                },
                {
                  "internalType": "uint32",
                  "name": "srcDeployedAt",
                  "type": "uint32"
                },
                {
                  "internalType": "uint32",
                  "name": "dstWithdrawal",
                  "type": "uint32"
                },
                {
                  "internalType": "uint32",
                  "name": "dstCancellation",
                  "type": "uint32"
                },
                {
                  "internalType": "uint32",
                  "name": "dstDeployedAt",
                  "type": "uint32"
                }
              ],
              "internalType": "struct TimelocksLib.Timelocks",
              "name": "timelocks",
              "type": "tuple"
            },
            {
              "internalType": "bytes32",
              "name": "orderHash",
              "type": "bytes32"
            },
            {
              "internalType": "uint256",
              "name": "chainId",
              "type": "uint256"
            }
          ],
          "internalType": "struct ImmutablesLib.Immutables",
          "name": "immutables",
          "type": "tuple"
        }
      ],
      "name": "addressOfEscrowDst",
      "outputs": [
        {
          "internalType": "address",
          "name": "escrowAddress",
          "type": "address"
        }
      ],
      "stateMutability": "view",
      "type": "function"
    },
    {
      "inputs": [
        {
          "components": [
            {
              "internalType": "address",
              "name": "maker",
              "type": "address"
            },
            {
              "internalType": "address",
              "name": "taker",
              "type": "address"
            },
            {
              "internalType": "address",
              "name": "token",
              "type": "address"
            },
            {
              "internalType": "uint256",
              "name": "amount",
              "type": "uint256"
            },
            {
              "internalType": "uint256",
              "name": "safetyDeposit",
              "type": "uint256"
            },
            {
              "internalType": "bytes32",
              "name": "hashlockHash",
              "type": "bytes32"
            },
            {
              "components": [
                {
                  "internalType": "uint32",
                  "name": "srcWithdrawal",
                  "type": "uint32"
                },
                {
                  "internalType": "uint32",
                  "name": "srcPublicWithdrawal",
                  "type": "uint32"
                },
                {
                  "internalType": "uint32",
                  "name": "srcCancellation",
                  "type": "uint32"
                },
                {
                  "internalType": "uint32",
                  "name": "srcDeployedAt",
                  "type": "uint32"
                },
                {
                  "internalType": "uint32",
                  "name": "dstWithdrawal",
                  "type": "uint32"
                },
                {
                  "internalType": "uint32",
                  "name": "dstCancellation",
                  "type": "uint32"
                },
                {
                  "internalType": "uint32",
                  "name": "dstDeployedAt",
                  "type": "uint32"
                }
              ],
              "internalType": "struct TimelocksLib.Timelocks",
              "name": "timelocks",
              "type": "tuple"
            },
            {
              "internalType": "bytes32",
              "name": "orderHash",
              "type": "bytes32"
            },
            {
              "internalType": "uint256",
              "name": "chainId",
              "type": "uint256"
            }
          ],
          "internalType": "struct ImmutablesLib.Immutables",
          "name": "immutables",
          "type": "tuple"
        }
      ],
      "name": "addressOfEscrowSrc",
      "outputs": [
        {
          "internalType": "address",
          "name": "escrowAddress",
          "type": "address"
        }
      ],
      "stateMutability": "view",
      "type": "function"
    },
    {
      "inputs": [
        {
          "components": [
            {
              "internalType": "address",
              "name": "maker",
              "type": "address"
            },
            {
              "internalType": "address",
              "name": "taker",
              "type": "address"
            },
            {
              "internalType": "address",
              "name": "token",
              "type": "address"
            },
            {
              "internalType": "uint256",
              "name": "amount",
              "type": "uint256"
            },
            {
              "internalType": "uint256",
              "name": "safetyDeposit",
              "type": "uint256"
            },
            {
              "internalType": "bytes32",
              "name": "hashlockHash",
              "type": "bytes32"
            },
            {
              "components": [
                {
                  "internalType": "uint32",
                  "name": "srcWithdrawal",
                  "type": "uint32"
                },
                {
                  "internalType": "uint32",
                  "name": "srcPublicWithdrawal",
                  "type": "uint32"
                },
                {
                  "internalType": "uint32",
                  "name": "srcCancellation",
                  "type": "uint32"
                },
                {
                  "internalType": "uint32",
                  "name": "srcDeployedAt",
                  "type": "uint32"
                },
                {
                  "internalType": "uint32",
                  "name": "dstWithdrawal",
                  "type": "uint32"
                },
                {
                  "internalType": "uint32",
                  "name": "dstCancellation",
                  "type": "uint32"
                },
                {
                  "internalType": "uint32",
                  "name": "dstDeployedAt",
                  "type": "uint32"
                }
              ],
              "internalType": "struct TimelocksLib.Timelocks",
              "name": "timelocks",
              "type": "tuple"
            },
            {
              "internalType": "bytes32",
              "name": "orderHash",
              "type": "bytes32"
            },
            {
              "internalType": "uint256",
              "name": "chainId",
              "type": "uint256"
            }
          ],
          "internalType": "struct ImmutablesLib.Immutables",
          "name": "immutables",
          "type": "tuple"
        },
        {
          "internalType": "uint256",
          "name": "srcCancellationTimestamp",
          "type": "uint256"
        }
      ],
      "name": "createDstEscrow",
      "outputs": [
        {
          "internalType": "address",
          "name": "escrow",
          "type": "address"
        }
      ],
      "stateMutability": "payable",
      "type": "function"
    },
    {
      "inputs": [
        {
          "components": [
            {
              "internalType": "address",
              "name": "maker",
              "type": "address"
            },
            {
              "internalType": "address",
              "name": "taker",
              "type": "address"
            },
            {
              "internalType": "address",
              "name": "token",
              "type": "address"
            },
            {
              "internalType": "uint256",
              "name": "amount",
              "type": "uint256"
            },
            {
              "internalType": "uint256",
              "name": "safetyDeposit",
              "type": "uint256"
            },
            {
              "internalType": "bytes32",
              "name": "hashlockHash",
              "type": "bytes32"
            },
            {
              "components": [
                {
                  "internalType": "uint32",
                  "name": "srcWithdrawal",
                  "type": "uint32"
                },
                {
                  "internalType": "uint32",
                  "name": "srcPublicWithdrawal",
                  "type": "uint32"
                },
                {
                  "internalType": "uint32",
                  "name": "srcCancellation",
                  "type": "uint32"
                },
                {
                  "internalType": "uint32",
                  "name": "srcDeployedAt",
                  "type": "uint32"
                },
                {
                  "internalType": "uint32",
                  "name": "dstWithdrawal",
                  "type": "uint32"
                },
                {
                  "internalType": "uint32",
                  "name": "dstCancellation",
                  "type": "uint32"
                },
                {
                  "internalType": "uint32",
                  "name": "dstDeployedAt",
                  "type": "uint32"
                }
              ],
              "internalType": "struct TimelocksLib.Timelocks",
              "name": "timelocks",
              "type": "tuple"
            },
            {
              "internalType": "bytes32",
              "name": "orderHash",
              "type": "bytes32"
            },
            {
              "internalType": "uint256",
              "name": "chainId",
              "type": "uint256"
            }
          ],
          "internalType": "struct ImmutablesLib.Immutables",
          "name": "srcImmutables",
          "type": "tuple"
        },
        {
          "components": [
            {
              "internalType": "address",
              "name": "maker",
              "type": "address"
            },
            {
              "internalType": "address",
              "name": "taker",
              "type": "address"
            },
            {
              "internalType": "address",
              "name": "token",
              "type": "address"
            },
            {
              "internalType": "uint256",
              "name": "amount",
              "type": "uint256"
            },
            {
              "internalType": "uint256",
              "name": "safetyDeposit",
              "type": "uint256"
            },
            {
              "internalType": "bytes32",
              "name": "hashlockHash",
              "type": "bytes32"
            },
            {
              "components": [
                {
                  "internalType": "uint32",
                  "name": "srcWithdrawal",
                  "type": "uint32"
                },
                {
                  "internalType": "uint32",
                  "name": "srcPublicWithdrawal",
                  "type": "uint32"
                },
                {
                  "internalType": "uint32",
                  "name": "srcCancellation",
                  "type": "uint32"
                },
                {
                  "internalType": "uint32",
                  "name": "srcDeployedAt",
                  "type": "uint32"
                },
                {
                  "internalType": "uint32",
                  "name": "dstWithdrawal",
                  "type": "uint32"
                },
                {
                  "internalType": "uint32",
                  "name": "dstCancellation",
                  "type": "uint32"
                },
                {
                  "internalType": "uint32",
                  "name": "dstDeployedAt",
                  "type": "uint32"
                }
              ],
              "internalType": "struct TimelocksLib.Timelocks",
              "name": "timelocks",
              "type": "tuple"
            },
            {
              "internalType": "bytes32",
              "name": "orderHash",
              "type": "bytes32"
            },
            {
              "internalType": "uint256",
              "name": "chainId",
              "type": "uint256"
            }
          ],
          "internalType": "struct ImmutablesLib.Immutables",
          "name": "dstImmutables",
          "type": "tuple"
        }
      ],
      "name": "createEscrowPair",
      "outputs": [
        {
          "internalType": "address",
          "name": "srcEscrow",
          "type": "address"
        },
        {
          "internalType": "address",
          "name": "dstEscrow",
          "type": "address"
        }
      ],
      "stateMutability": "payable",
      "type": "function"
    },
    {
      "inputs": [
        {
          "components": [
            {
              "internalType": "address",
              "name": "maker",
              "type": "address"
            },
            {
              "internalType": "address",
              "name": "taker",
              "type": "address"
            },
            {
              "internalType": "address",
              "name": "token",
              "type": "address"
            },
            {
              "internalType": "uint256",
              "name": "amount",
              "type": "uint256"
            },
            {
              "internalType": "uint256",
              "name": "safetyDeposit",
              "type": "uint256"
            },
            {
              "internalType": "bytes32",
              "name": "hashlockHash",
              "type": "bytes32"
            },
            {
              "components": [
                {
                  "internalType": "uint32",
                  "name": "srcWithdrawal",
                  "type": "uint32"
                },
                {
                  "internalType": "uint32",
                  "name": "srcPublicWithdrawal",
                  "type": "uint32"
                },
                {
                  "internalType": "uint32",
                  "name": "srcCancellation",
                  "type": "uint32"
                },
                {
                  "internalType": "uint32",
                  "name": "srcDeployedAt",
                  "type": "uint32"
                },
                {
                  "internalType": "uint32",
                  "name": "dstWithdrawal",
                  "type": "uint32"
                },
                {
                  "internalType": "uint32",
                  "name": "dstCancellation",
                  "type": "uint32"
                },
                {
                  "internalType": "uint32",
                  "name": "dstDeployedAt",
                  "type": "uint32"
                }
              ],
              "internalType": "struct TimelocksLib.Timelocks",
              "name": "timelocks",
              "type": "tuple"
            },
            {
              "internalType": "bytes32",
              "name": "orderHash",
              "type": "bytes32"
            },
            {
              "internalType": "uint256",
              "name": "chainId",
              "type": "uint256"
            }
          ],
          "internalType": "struct ImmutablesLib.Immutables",
          "name": "immutables",
          "type": "tuple"
        }
      ],
      "name": "createSrcEscrow",
      "outputs": [
        {
          "internalType": "address",
          "name": "escrow",
          "type": "address"
        }
      ],
      "stateMutability": "payable",
      "type": "function"
    },
    {
      "inputs": [],
      "name": "emergencyPause",
      "outputs": [],
      "stateMutability": "nonpayable",
      "type": "function"
    },
    {
      "inputs": [],
      "name": "emergencyUnpause",
      "outputs": [],
      "stateMutability": "nonpayable",
      "type": "function"
    },
    {
      "inputs": [],
      "name": "escrowDstImplementation",
      "outputs": [
        {
          "internalType": "address",
          "name": "",
          "type": "address"
        }
      ],
      "stateMutability": "view",
      "type": "function"
    },
    {
      "inputs": [],
      "name": "escrowSrcImplementation",
      "outputs": [
        {
          "internalType": "address",
          "name": "",
          "type": "address"
        }
      ],
      "stateMutability": "view",
      "type": "function"
    },
    {
      "inputs": [
        {
          "internalType": "bytes32",
          "name": "",
          "type": "bytes32"
        }
      ],
      "name": "escrows",
      "outputs": [
        {
          "internalType": "address",
          "name": "",
          "type": "address"
        }
      ],
      "stateMutability": "view",
      "type": "function"
    },
    {
      "inputs": [
        {
          "components": [
            {
              "internalType": "uint256",
              "name": "salt",
              "type": "uint256"
            },
            {
              "internalType": "address",
              "name": "makerAsset",
              "type": "address"
            },
            {
              "internalType": "address",
              "name": "takerAsset",
              "type": "address"
            },
            {
              "internalType": "address",
              "name": "maker",
              "type": "address"
            },
            {
              "internalType": "address",
              "name": "receiver",
              "type": "address"
            },
            {
              "internalType": "address",
              "name": "allowedSender",
              "type": "address"
            },
            {
              "internalType": "uint256",
              "name": "makingAmount",
              "type": "uint256"
            },
            {
              "internalType": "uint256",
              "name": "takingAmount",
              "type": "uint256"
            },
            {
              "internalType": "uint256",
              "name": "offsets",
              "type": "uint256"
            },
            {
              "internalType": "bytes",
              "name": "interactions",
              "type": "bytes"
            }
          ],
          "internalType": "struct ILimitOrderProtocol.Order",
          "name": "order",
          "type": "tuple"
        },
        {
          "internalType": "bytes",
          "name": "signature",
          "type": "bytes"
        },
        {
          "internalType": "uint256",
          "name": "makingAmount",
          "type": "uint256"
        },
        {
          "internalType": "uint256",
          "name": "takingAmount",
          "type": "uint256"
        },
        {
          "internalType": "address",
          "name": "escrowAddress",
          "type": "address"
        }
      ],
      "name": "fillOrderWithEscrow",
      "outputs": [],
      "stateMutability": "nonpayable",
      "type": "function"
    },
    {
      "inputs": [
        {
          "internalType": "bytes32",
          "name": "orderHash",
          "type": "bytes32"
        }
      ],
      "name": "getEscrowPair",
      "outputs": [
        {
          "internalType": "address",
          "name": "srcEscrow",
          "type": "address"
        },
        {
          "internalType": "address",
          "name": "dstEscrow",
          "type": "address"
        }
      ],
      "stateMutability": "view",
      "type": "function"
    },
    {
      "inputs": [
        {
          "internalType": "bytes32",
          "name": "role",
          "type": "bytes32"
        }
      ],
      "name": "getRoleAdmin",
      "outputs": [
        {
          "internalType": "bytes32",
          "name": "",
          "type": "bytes32"
        }
      ],
      "stateMutability": "view",
      "type": "function"
    },
    {
      "inputs": [
        {
          "internalType": "address",
          "name": "orchestrator",
          "type": "address"
        }
      ],
      "name": "grantOrchestratorRole",
      "outputs": [],
      "stateMutability": "nonpayable",
      "type": "function"
    },
    {
      "inputs": [
        {
          "internalType": "bytes32",
          "name": "role",
          "type": "bytes32"
        },
        {
          "internalType": "address",
          "name": "account",
          "type": "address"
        }
      ],
      "name": "grantRole",
      "outputs": [],
      "stateMutability": "nonpayable",
      "type": "function"
    },
    {
      "inputs": [
        {
          "internalType": "bytes32",
          "name": "role",
          "type": "bytes32"
        },
        {
          "internalType": "address",
          "name": "account",
          "type": "address"
        }
      ],
      "name": "hasRole",
      "outputs": [
        {
          "internalType": "bool",
          "name": "",
          "type": "bool"
        }
      ],
      "stateMutability": "view",
      "type": "function"
    },
    {
      "inputs": [
        {
          "internalType": "address",
          "name": "",
          "type": "address"
        }
      ],
      "name": "isValidEscrow",
      "outputs": [
        {
          "internalType": "bool",
          "name": "",
          "type": "bool"
        }
      ],
      "stateMutability": "view",
      "type": "function"
    },
    {
      "inputs": [],
      "name": "limitOrderProtocol",
      "outputs": [
        {
          "internalType": "address",
          "name": "",
          "type": "address"
        }
      ],
      "stateMutability": "view",
      "type": "function"
    },
    {
      "inputs": [],
      "name": "pause",
      "outputs": [],
      "stateMutability": "nonpayable",
      "type": "function"
    },
    {
      "inputs": [],
      "name": "paused",
      "outputs": [
        {
          "internalType": "bool",
          "name": "",
          "type": "bool"
        }
      ],
      "stateMutability": "view",
      "type": "function"
    },
    {
      "inputs": [
        {
          "internalType": "bytes32",
          "name": "role",
          "type": "bytes32"
        },
        {
          "internalType": "address",
          "name": "callerConfirmation",
          "type": "address"
        }
      ],
      "name": "renounceRole",
      "outputs": [],
      "stateMutability": "nonpayable",
      "type": "function"
    },
    {
      "inputs": [
        {
          "internalType": "bytes32",
          "name": "role",
          "type": "bytes32"
        },
        {
          "internalType": "address",
          "name": "account",
          "type": "address"
        }
      ],
      "name": "revokeRole",
      "outputs": [],
      "stateMutability": "nonpayable",
      "type": "function"
    },
    {
      "inputs": [
        {
          "internalType": "bytes4",
          "name": "interfaceId",
          "type": "bytes4"
        }
      ],
      "name": "supportsInterface",
      "outputs": [
        {
          "internalType": "bool",
          "name": "",
          "type": "bool"
        }
      ],
      "stateMutability": "view",
      "type": "function"
    },
    {
      "inputs": [],
      "name": "unpause",
      "outputs": [],
      "stateMutability": "nonpayable",
      "type": "function"
    },
    {
      "inputs": [
        {
          "internalType": "address",
          "name": "escrowAddress",
          "type": "address"
        }
      ],
      "name": "verifyEscrowStatus",
      "outputs": [
        {
          "internalType": "bool",
          "name": "isValid",
          "type": "bool"
        }
      ],
      "stateMutability": "view",
      "type": "function"
    }
  ],
  "transactionHash": "0xdff4ffa361a75178d07dfe1facf3314e184000c10615eb884c5aaec0e0219396",
  "args": [
    "0x0000000000000000000000000000000000000001",
    "0x5938297bfdeeF3ac56EB4198E0B484b2A0B3adD8"
  ],
  "numDeployments": 1,
  "solcInputHash": "ff6b231b8e9ed4cc6ee3e5ff2718dde3",
  "bytecode": "0x60e034620002805762005ed9906001600160401b03601f38849003908101601f1916830190828211848310176200026a578084916040968794855283398101031262000280576200005e6020620000568462000285565b930162000285565b918351916119419283810193818510838611176200026a5762004578823980600094039084f09283156200025f5785516001600160a01b03948516926119b4808301918211838310176200024b5790829162002bc48339039082f09081156200024057508316908015620001fc578115620001b85783831615620001745760805260a05260c052620000f0336200029a565b50620000fc336200031a565b50339082160362000155575b50516128079081620003bd823960805181818161073a01528181610eff015261102c015260a051818181610a8301528181610d250152611672015260c051818181610d94015261140d0152f35b80620001656200016c926200029a565b506200031a565b503862000108565b855162461bcd60e51b815260206004820152601360248201527f496e76616c6964204c4f502061646472657373000000000000000000000000006044820152606490fd5b855162461bcd60e51b815260206004820152601a60248201527f496e76616c69642064737420696d706c656d656e746174696f6e0000000000006044820152606490fd5b855162461bcd60e51b815260206004820152601a60248201527f496e76616c69642073726320696d706c656d656e746174696f6e0000000000006044820152606490fd5b8651903d90823e3d90fd5b634e487b7160e01b84526041600452602484fd5b8551903d90823e3d90fd5b634e487b7160e01b600052604160045260246000fd5b600080fd5b51906001600160a01b03821682036200028057565b6001600160a01b031660008181527fad3228b676f7d3cd4284a5443f17f1962b36e491b30a40b2405849e597ba5fb5602052604081205490919060ff166200031657818052816020526040822081835260205260408220600160ff19825416179055339160008051602062005eb98339815191528180a4600190565b5090565b6001600160a01b031660008181527ff3e368cf09cd5ee607ce895ff340b0cff6fd9d0b4c413f8cb90a3000054a4d2a60205260408120549091907fe098e2e7d2d4d3ca0e3877ceaaf3cdfbd47483f6699688ad12b1d6732deef10b9060ff16620003b757808352826020526040832082845260205260408320600160ff1982541617905560008051602062005eb9833981519152339380a4600190565b50509056fe608080604052600436101561001357600080fd5b60003560e01c90816301ffc9a7146117bd5750806309e0a34f1461176457806315fbccdb146116ff5780631b83e3261461162f578063248a9ca3146115e25780632d83549c146115825780632f2ff15d1461152557806335f604731461112557806336568abe1461109b57806337cba85f146110505780633c238abb14610fe15780633f4ba83a14610faa5780634a4e3bd514610faa57806351858e2714610ca35780635c32409714610ebc5780635c975abb14610e7b578063646ce6b914610e1157806378fab26014610db85780637f94dd3314610d495780637fedf09b14610cda5780638456cb5914610ca357806391d1485414610c2a578063927a46cd146109c6578063a217fddf1461098c578063d547741f1461092f578063d740ddd8146106a6578063e02958b1146106095763e8e076771461015357600080fd5b7ffffffffffffffffffffffffffffffffffffffffffffffffffffffffffffffffc36016103c08112610558576101e0809112610558577ffffffffffffffffffffffffffffffffffffffffffffffffffffffffffffffe1c360112610558576101b9612106565b6084356102643581018082116105da57340361057c576040517fd740ddd800000000000000000000000000000000000000000000000000000000815260043573ffffffffffffffffffffffffffffffffffffffff811680910361055857600482015260243573ffffffffffffffffffffffffffffffffffffffff811680910361055857602482015260443573ffffffffffffffffffffffffffffffffffffffff8116809103610558576044820152606435606482015281608482015260a43560a482015260c43563ffffffff81168091036105585760c482015260e43563ffffffff81168091036105585760e4820152610104359163ffffffff831683036105585763ffffffff83166101048301526101243563ffffffff8116809103610558576101248301526101443563ffffffff8116809103610558576101448301526101643563ffffffff8116809103610558576101648301526101843563ffffffff8116809103610558576101e48360209381936101848301526101a4356101a48301526101c4356101c4830152305af190811561054c5760009161055d575b50604051917f927a46cd0000000000000000000000000000000000000000000000000000000083526101e43573ffffffffffffffffffffffffffffffffffffffff811680910361055857600484015261020490813573ffffffffffffffffffffffffffffffffffffffff81168091036105585760248501526102243573ffffffffffffffffffffffffffffffffffffffff81168091036105585760448501526102443560648501526102643560848501526102843560a48501526102a43563ffffffff81168091036105585760c48501526102c43563ffffffff81168091036105585760e48501526102e43563ffffffff8116809103610558576101048501526103043563ffffffff8116809103610558576101248501526103243563ffffffff8116809103610558576101448501526103443563ffffffff811680910361055857610164850152610364359163ffffffff83168093036105585763ffffffff8592602094610184850152610384356101a48501526103a4356101c4850152166101e48301528161026435305af191821561054c5760409273ffffffffffffffffffffffffffffffffffffffff9160009161051d575b5081845193168352166020820152f35b61053f915060203d602011610545575b61053781836118e0565b810190611f3e565b3861050d565b503d61052d565b6040513d6000823e3d90fd5b600080fd5b610576915060203d6020116105455761053781836118e0565b38610357565b60646040517f08c379a000000000000000000000000000000000000000000000000000000000815260206004820152601c60248201527f496e76616c696420736166657479206465706f73697420746f74616c000000006044820152fd5b7f4e487b7100000000000000000000000000000000000000000000000000000000600052601160045260246000fd5b346105585760207ffffffffffffffffffffffffffffffffffffffffffffffffffffffffffffffffc360112610558576106a461064361189c565b61064b612199565b7fe098e2e7d2d4d3ca0e3877ceaaf3cdfbd47483f6699688ad12b1d6732deef10b60009081526020527ff3e368cf09cd5ee607ce895ff340b0cff6fd9d0b4c413f8cb90a3000054a4d2b5461069f906121d3565b6121f9565b005b6101e07ffffffffffffffffffffffffffffffffffffffffffffffffffffffffffffffffc360112610558576106d9612106565b6106e161237b565b6106e9612452565b156109055760843534036108db5761070861070336611a18565b611f6a565b806000526020906002825273ffffffffffffffffffffffffffffffffffffffff80604060002054166108b15761075e827f0000000000000000000000000000000000000000000000000000000000000000612744565b916107f760008061077661077136611a18565b6125ad565b6040516107e3816107b78b8201947f439fab910000000000000000000000000000000000000000000000000000000086528c60248401526044830190611b25565b037fffffffffffffffffffffffffffffffffffffffffffffffffffffffffffffffe081018352826118e0565b519034885af16107f1611e35565b50611e93565b60005260028352806040600020921691827fffffffffffffffffffffffff00000000000000000000000000000000000000008254161790558160005260038352604060002060017fffffffffffffffffffffffffffffffffffffffffffffffffffffffffffffff0082541617905561086d611ef8565b90827f66a7a92db66ec73dac5cf456195883319e33ef5dc9cc7a667d8c76325999fd5285610899611f1b565b93806040519560a435875216951693a4604051908152f35b60046040517fed778779000000000000000000000000000000000000000000000000000000008152fd5b60046040517f722e17ee000000000000000000000000000000000000000000000000000000008152fd5b60046040517fa269484a000000000000000000000000000000000000000000000000000000008152fd5b346105585760407ffffffffffffffffffffffffffffffffffffffffffffffffffffffffffffffffc360112610558576106a460043561096c611879565b908060005260006020526109876001604060002001546121d3565b6123b1565b346105585760007ffffffffffffffffffffffffffffffffffffffffffffffffffffffffffffffffc36011261055857602060405160008152f35b7ffffffffffffffffffffffffffffffffffffffffffffffffffffffffffffffffc36016102008112610558576101e013610558576101e435610a06612106565b610a0e61237b565b610a16612452565b156109055760843534036108db576101643563ffffffff811680910361055857811115610bcc57610a4961070336611a18565b90816000526020916002835273ffffffffffffffffffffffffffffffffffffffff9081604060002054166108b157610b2a600080610aa7847f0000000000000000000000000000000000000000000000000000000000000000612744565b95610ab461077136611a18565b906107e36040518092610af88c8301957f458c5191000000000000000000000000000000000000000000000000000000008752604060248501526064840190611b25565b906044830152037fffffffffffffffffffffffffffffffffffffffffffffffffffffffffffffffe081018352826118e0565b60005260028352806040600020921691827fffffffffffffffffffffffff00000000000000000000000000000000000000008254161790558160005260038352604060002060017fffffffffffffffffffffffffffffffffffffffffffffffffffffffffffffff00825416179055610ba0611ef8565b90827fe7204cdfe9483f61a7d80c88521042cf0826b7562ecabb3015757f55161257b485610899611f1b565b60646040517f08c379a000000000000000000000000000000000000000000000000000000000815260206004820152601c60248201527f496e76616c69642074696d656f757420636f6f7264696e6174696f6e000000006044820152fd5b346105585760407ffffffffffffffffffffffffffffffffffffffffffffffffffffffffffffffffc36011261055857610c61611879565b600435600052600060205273ffffffffffffffffffffffffffffffffffffffff60406000209116600052602052602060ff604060002054166040519015158152f35b346105585760007ffffffffffffffffffffffffffffffffffffffffffffffffffffffffffffffffc360112610558576106a4611dcf565b346105585760007ffffffffffffffffffffffffffffffffffffffffffffffffffffffffffffffffc36011261055857602060405173ffffffffffffffffffffffffffffffffffffffff7f0000000000000000000000000000000000000000000000000000000000000000168152f35b346105585760007ffffffffffffffffffffffffffffffffffffffffffffffffffffffffffffffffc36011261055857602060405173ffffffffffffffffffffffffffffffffffffffff7f0000000000000000000000000000000000000000000000000000000000000000168152f35b346105585760007ffffffffffffffffffffffffffffffffffffffffffffffffffffffffffffffffc3601126105585760206040517f92a19c77d2ea87c7f81d50c74403cb2f401780f3ad919571121efe2bdb427eb18152f35b346105585760207ffffffffffffffffffffffffffffffffffffffffffffffffffffffffffffffffc3601126105585773ffffffffffffffffffffffffffffffffffffffff610e5d61189c565b166000526003602052602060ff604060002054166040519015158152f35b346105585760007ffffffffffffffffffffffffffffffffffffffffffffffffffffffffffffffffc36011261055857602060ff600154166040519015158152f35b34610558576101e07ffffffffffffffffffffffffffffffffffffffffffffffffffffffffffffffffc360112610558576020610f8c610efd61070336611a18565b7f0000000000000000000000000000000000000000000000000000000000000000604360559173ffffffffffffffffffffffffffffffffffffffff93604051913060388401526f5af43d82803e903d91602b57fd5bf3ff60248401526014830152733d602d80600a3d3981f3363d3d373d3d3d363d73825260588201526037600c820120607882015201201690565b73ffffffffffffffffffffffffffffffffffffffff60405191168152f35b346105585760007ffffffffffffffffffffffffffffffffffffffffffffffffffffffffffffffffc360112610558576106a4611d40565b346105585760007ffffffffffffffffffffffffffffffffffffffffffffffffffffffffffffffffc36011261055857602060405173ffffffffffffffffffffffffffffffffffffffff7f0000000000000000000000000000000000000000000000000000000000000000168152f35b346105585760207ffffffffffffffffffffffffffffffffffffffffffffffffffffffffffffffffc36011261055857602061109161108c61189c565b611b90565b6040519015158152f35b346105585760407ffffffffffffffffffffffffffffffffffffffffffffffffffffffffffffffffc360112610558576110d2611879565b3373ffffffffffffffffffffffffffffffffffffffff8216036110fb576106a4906004356123b1565b60046040517f6697b232000000000000000000000000000000000000000000000000000000008152fd5b34610558577ffffffffffffffffffffffffffffffffffffffffffffffffffffffffffffffffc60a0813601126105585760043567ffffffffffffffff80821161055857813603926101408091850112610558576024928335918383116105585736602384011215610558578260040135948486116105585736818786010111610558576084359573ffffffffffffffffffffffffffffffffffffffff93848816809803610558573360009081527f40da0f42a661166d5434d4603ecbff423639c47e2526ad0538d7c3517a62389060209081526040909120547f92a19c77d2ea87c7f81d50c74403cb2f401780f3ad919571121efe2bdb427eb19060ff16156114ef575061123161237b565b886000526003815260ff60406000205416156114925760405198818a015288526040880198888a10888b111761146457896040527f62e238bb000000000000000000000000000000000000000000000000000000008a527fffffffffffffffffffffffffffffffffffffffffffffffffffffffffffffffdd61010460c060448c01528360040135818c01526112c78685016118bf565b90886101249216828d0152886112df604487016118bf565b166101448d0152886112f3606487016118bf565b166101648d015288611307608487016118bf565b166101848d01528861131b60a487016118bf565b166101a48d015260c48501356101c48d015260e48501356101e48d01528401356102048c015283013591018112156105585701928260048501359401968411610558578336038713610558576113f289966113e26000957fffffffffffffffffffffffffffffffffffffffffffffffffffffffffffffffc0956113af60609c8c9a8f986102248a0152610244890191611ae6565b917fffffffffffffffffffffffffffffffffffffffffffffffffffffffffffffffbc948588850301606489015201611ae6565b9083820301608484015282611b25565b60443560a483015260643560c48301528360e48301520301927f0000000000000000000000000000000000000000000000000000000000000000165af1801561054c5761143b57005b60609182903d841161145c575b81611452916118e0565b8101031261055857005b3d9150611448565b837f4e487b710000000000000000000000000000000000000000000000000000000060005260416004526000fd5b606490600e85604051927f08c379a000000000000000000000000000000000000000000000000000000000845260048401528201527f496e76616c696420657363726f770000000000000000000000000000000000006044820152fd5b84604491604051917fe2517d3f000000000000000000000000000000000000000000000000000000008352336004840152820152fd5b346105585760407ffffffffffffffffffffffffffffffffffffffffffffffffffffffffffffffffc360112610558576106a4600435611562611879565b9080600052600060205261157d6001604060002001546121d3565b6122d6565b346105585760207ffffffffffffffffffffffffffffffffffffffffffffffffffffffffffffffffc360112610558576004356000526002602052602073ffffffffffffffffffffffffffffffffffffffff60406000205416604051908152f35b346105585760207ffffffffffffffffffffffffffffffffffffffffffffffffffffffffffffffffc3601126105585760043560005260006020526020600160406000200154604051908152f35b34610558576101e07ffffffffffffffffffffffffffffffffffffffffffffffffffffffffffffffffc360112610558576020610f8c61167061070336611a18565b7f0000000000000000000000000000000000000000000000000000000000000000604360559173ffffffffffffffffffffffffffffffffffffffff93604051913060388401526f5af43d82803e903d91602b57fd5bf3ff60248401526014830152733d602d80600a3d3981f3363d3d373d3d3d363d73825260588201526037600c820120607882015201201690565b346105585760207ffffffffffffffffffffffffffffffffffffffffffffffffffffffffffffffffc360112610558576004356000526002602052604073ffffffffffffffffffffffffffffffffffffffff816000205416815190815260006020820152f35b346105585760007ffffffffffffffffffffffffffffffffffffffffffffffffffffffffffffffffc3601126105585760206040517fe098e2e7d2d4d3ca0e3877ceaaf3cdfbd47483f6699688ad12b1d6732deef10b8152f35b346105585760207ffffffffffffffffffffffffffffffffffffffffffffffffffffffffffffffffc36011261055857600435907fffffffff00000000000000000000000000000000000000000000000000000000821680920361055857817f7965db0b000000000000000000000000000000000000000000000000000000006020931490811561184f575b5015158152f35b7f01ffc9a70000000000000000000000000000000000000000000000000000000091501483611848565b6024359073ffffffffffffffffffffffffffffffffffffffff8216820361055857565b6004359073ffffffffffffffffffffffffffffffffffffffff8216820361055857565b359073ffffffffffffffffffffffffffffffffffffffff8216820361055857565b90601f7fffffffffffffffffffffffffffffffffffffffffffffffffffffffffffffffe0910116810190811067ffffffffffffffff82111761192157604052565b7f4e487b7100000000000000000000000000000000000000000000000000000000600052604160045260246000fd5b7fffffffffffffffffffffffffffffffffffffffffffffffffffffffffffffff3c60e0910112610558576040519060e0820182811067ffffffffffffffff8211176119215760405263ffffffff8260c435828116810361055857815260e43582811681036105585760208201526101043582811681036105585760408201526101243582811681036105585760608201526101443582811681036105585760808201526101643582811681036105585760a08201526101843591821682036105585760c00152565b906101e07ffffffffffffffffffffffffffffffffffffffffffffffffffffffffffffffffc83011261055857604051610120810181811067ffffffffffffffff8211176119215760405280926004359073ffffffffffffffffffffffffffffffffffffffff9182811681036105585783526024358281168103610558576020840152604435918216820361055857611acc9160408401526064356060840152608435608084015260a43560a0840152611950565b60c08201526101a43560e08201526101006101c435910152565b601f82602094937fffffffffffffffffffffffffffffffffffffffffffffffffffffffffffffffe0938186528686013760008582860101520116010190565b919082519283825260005b848110611b6f5750507fffffffffffffffffffffffffffffffffffffffffffffffffffffffffffffffe0601f8460006020809697860101520116010190565b602081830181015184830182015201611b30565b5190811515820361055857565b73ffffffffffffffffffffffffffffffffffffffff16600090808252600360205260ff60408320541615611c3b576040517f4e69d560000000000000000000000000000000000000000000000000000000009081815260a081600481865afa84918186918793611cdc575b50611cc65750505060c09060046040518094819382525afa82918184918593611c4e575b50611c2a5750505090565b9192509082611c45575b5081611c3f575b5090565b90501590565b15915038611c34565b935091505060c0823d60c011611cbe575b81611c6c60c093836118e0565b81010312611cba57611c7d82611b83565b91611c8a60208201611b83565b92611cb06080611c9c60408501611b83565b93611ca960608201611b83565b5001611b83565b5092909138611c1f565b8280fd5b3d9150611c5f565b9250925080935092611c45575081611c3f575090565b935091505060a0823d60a011611d38575b81611cfa60a093836118e0565b81010312611d3457611d0b82611b83565b91611d1860208201611b83565b92611d2a6080611c9c60408501611b83565b5092909138611bfb565b8480fd5b3d9150611ced565b611d48612199565b60015460ff811615611da5577fffffffffffffffffffffffffffffffffffffffffffffffffffffffffffffff00166001557f5db9ee0a495bf2e6ff9c91a7834c1ba4fdd244a5e8aa4e537bd38aeae4b073aa6020604051338152a1565b60046040517f8dfc202b000000000000000000000000000000000000000000000000000000008152fd5b611dd7612199565b611ddf61237b565b60017fffffffffffffffffffffffffffffffffffffffffffffffffffffffffffffff00815416176001557f62e78cea01bee320cd4e420270b5ea74000d11b0c9f74754ebdbfc544b05a2586020604051338152a1565b3d15611e8e573d9067ffffffffffffffff82116119215760405191611e8260207fffffffffffffffffffffffffffffffffffffffffffffffffffffffffffffffe0601f84011601846118e0565b82523d6000602084013e565b606090565b15611e9a57565b60646040517f08c379a000000000000000000000000000000000000000000000000000000000815260206004820152601c60248201527f457363726f7720696e697469616c697a6174696f6e206661696c6564000000006044820152fd5b60043573ffffffffffffffffffffffffffffffffffffffff811681036105585790565b60243573ffffffffffffffffffffffffffffffffffffffff811681036105585790565b90816020910312610558575173ffffffffffffffffffffffffffffffffffffffff811681036105585790565b73ffffffffffffffffffffffffffffffffffffffff9061210082825116926107b7816020850151169160408501511693606081015190608081015160a082015161208e60c084015167ffffffff0000000060c07fffffffff00000000000000000000000000000000000000000000000000000000835160e01b1660208401516040850151906060860151927bffffffff00000000000000000000000000000000000000000000000077ffffffff000000000000000000000000000000000000000073ffffffff000000000000000000000000000000006fffffffff00000000000000000000000060808b015160601b169660801b169460a01b1692861b16171717176bffffffff000000000000000060a085015160401b161792015160201b161790565b9161010060e085015194015194604051998a9860208a019c8d9592916101009794919a9998959261012088019b73ffffffffffffffffffffffffffffffffffffffff92838092168a521660208901521660408701526060860152608085015260a084015260c083015260e08201520152565b51902090565b3360009081527ff3e368cf09cd5ee607ce895ff340b0cff6fd9d0b4c413f8cb90a3000054a4d2a60205260409020547fe098e2e7d2d4d3ca0e3877ceaaf3cdfbd47483f6699688ad12b1d6732deef10b9060ff16156121625750565b604490604051907fe2517d3f0000000000000000000000000000000000000000000000000000000082523360048301526024820152fd5b3360009081527fad3228b676f7d3cd4284a5443f17f1962b36e491b30a40b2405849e597ba5fb5602052604081205460ff16156121625750565b80600052600060205260406000203360005260205260ff60406000205416156121625750565b73ffffffffffffffffffffffffffffffffffffffff1660008181527ff3e368cf09cd5ee607ce895ff340b0cff6fd9d0b4c413f8cb90a3000054a4d2a60205260408120549091907fe098e2e7d2d4d3ca0e3877ceaaf3cdfbd47483f6699688ad12b1d6732deef10b9060ff166122d15780835282602052604083208284526020526040832060017fffffffffffffffffffffffffffffffffffffffffffffffffffffffffffffff008254161790557f2f8788117e7eff1d82e926ec794901d17c78024a50270940304540a733656f0d339380a4600190565b505090565b906000918083528260205273ffffffffffffffffffffffffffffffffffffffff6040842092169182845260205260ff604084205416156000146122d15780835282602052604083208284526020526040832060017fffffffffffffffffffffffffffffffffffffffffffffffffffffffffffffff008254161790557f2f8788117e7eff1d82e926ec794901d17c78024a50270940304540a733656f0d339380a4600190565b60ff6001541661238757565b60046040517fd93c0665000000000000000000000000000000000000000000000000000000008152fd5b906000918083528260205273ffffffffffffffffffffffffffffffffffffffff6040842092169182845260205260ff6040842054166000146122d1578083528260205260408320828452602052604083207fffffffffffffffffffffffffffffffffffffffffffffffffffffffffffffff0081541690557ff6391f5c32d9c69d2a47ea670b442974b53935d1edc7fd64eb21e047a839171b339380a4600190565b60043573ffffffffffffffffffffffffffffffffffffffff908181168091036105585715159081612596575b8161257f575b5080612574575b80612569575b806124a9575b8061249f5790565b506101c435151590565b506124b336611950565b63ffffffff808251169080606084015116918281119384612558575b84612541575b8461252a575b84612513575b84612503575b5050826124f6575b5050612497565b42161015905038806124ef565b60a00151821610925038806124e7565b93508160a0850151168260808601511610936124e1565b9350816080850151168260c08601511610936124db565b9350816040850151168260208601511610936124d5565b9350808260208601511611936124cf565b5060a4351515612491565b50606435151561248b565b905060443590811680910361055857151538612484565b90506024358181168091036105585715159061247e565b61274173ffffffffffffffffffffffffffffffffffffffff916107b783825116918460208201511694604082015116906060810151608082015160a0830151906126d160c085015167ffffffff0000000060c07fffffffff00000000000000000000000000000000000000000000000000000000835160e01b1660208401516040850151906060860151927bffffffff00000000000000000000000000000000000000000000000077ffffffff000000000000000000000000000000000000000073ffffffff000000000000000000000000000000006fffffffff00000000000000000000000060808b015160601b169660801b169460a01b1692861b16171717176bffffffff000000000000000060a085015160401b161792015160201b161790565b9261010060e0860151950151956040519a8b9960208b019592916101009794919a9998959261012088019b73ffffffffffffffffffffffffffffffffffffffff92838092168a521660208901521660408701526060860152608085015260a084015260c083015260e08201520152565b90565b6e5af43d82803e903d91602b57fd5bf390763d602d80600a3d3981f3363d3d373d3d3d363d7300000062ffffff8260881c161760005260781b17602052603760096000f59073ffffffffffffffffffffffffffffffffffffffff8216156127a757565b60046040517fb06ebf3d000000000000000000000000000000000000000000000000000000008152fdfea26469706673582212201679ff2c0f2dd5596298c89e55bb229fd05595971c9b9094e14a0d96ce7a778264736f6c634300081700336080806040523461001b57600160005561199390816100218239f35b600080fdfe6080604052600436101561001b575b361561001957600080fd5b005b6000803560e01c9081630a56293d1461009e5750806332e27c0714610099578063458c5191146100945780634e69d5601461008f5780638e19899e1461008a5780639639011e14610085578063bcdb4dad146100805763ea8a1af00361000e57610c3d565b610aef565b610851565b6104d1565b610416565b610233565b6101f2565b346101ef57807ffffffffffffffffffffffffffffffffffffffffffffffffffffffffffffffffc3601126101ef57600b5460ff8116156101c55773ffffffffffffffffffffffffffffffffffffffff60015416330361016d578060ff6101109260081c1615908161015e575b50610ea2565b61015b61014e61013560035473ffffffffffffffffffffffffffffffffffffffff1690565b73ffffffffffffffffffffffffffffffffffffffff1690565b6004549030903390611606565b80f35b60ff915060101c16158361010a565b7f08c379a0000000000000000000000000000000000000000000000000000000006080526020608452601360a4527f4f6e6c79206d616b65722063616e206c6f636b0000000000000000000000000060c45260646080fd5b7f87138d5c0000000000000000000000000000000000000000000000000000000060805260046080fd5b80fd5b3461022e5760007ffffffffffffffffffffffffffffffffffffffffffffffffffffffffffffffffc36011261022e576020600c54604051908152f35b600080fd5b60407ffffffffffffffffffffffffffffffffffffffffffffffffffffffffffffffffc36011261022e5760043567ffffffffffffffff80821161022e573660238301121561022e57816004013590811161022e57366024828401011161022e57602435916102a3600b5460ff1690565b6103ec576102bc6102c1916102c6936024369201610ff3565b6116c4565b6111b5565b6102cf81600a55565b8063ffffffff6102e860075463ffffffff9060a01c1690565b1610156103c25761031f60017fffffffffffffffffffffffffffffffffffffffffffffffffffffffffffffff00600b541617600b55565b61032c60055434146112f8565b60015473ffffffffffffffffffffffffffffffffffffffff16907f4356ba80aeaabff75bcd7ace7a96bf983cbe1c21acbc38a48d06ab37b22f428761038660025473ffffffffffffffffffffffffffffffffffffffff1690565b60045460065460408051928352602083019190915281019390935273ffffffffffffffffffffffffffffffffffffffff908116931691606090a3005b60046040517f6621194f000000000000000000000000000000000000000000000000000000008152fd5b60046040517f0dc149f0000000000000000000000000000000000000000000000000000000008152fd5b3461022e576000807ffffffffffffffffffffffffffffffffffffffffffffffffffffffffffffffffc3601126101ef57600b54600a5460c09260ff831692819084610494575b60ff906040519515158652818160081c161515602087015260101c1615156040850152151560608401521515608083015260a0820152f35b9150506104a76104a261135d565b61179d565b60ff6104c96104b461135d565b60a0015163ffffffff90811642909116101590565b92905061045c565b3461022e5760207ffffffffffffffffffffffffffffffffffffffffffffffffffffffffffffffffc36011261022e576004803561050c6117cd565b600b5460ff81161561080a5760ff8160081c166107e15760101c60ff166107b8576040908151602081019061057581610549858560209181520190565b037fffffffffffffffffffffffffffffffffffffffffffffffffffffffffffffffe08101835282610f57565b519020600654036107915761059261058e6104a261135d565b1590565b61076a576105b861013560025473ffffffffffffffffffffffffffffffffffffffff1690565b3303610743576105ef6101007fffffffffffffffffffffffffffffffffffffffffffffffffffffffffffff00ff600b541617600b55565b6105f881600c55565b6006548251918252907fc8ee7ba45d0c5351df845eda156d523bd6865844a5f2c69df35b757e2f794fa190602090a261066d61064c61013560035473ffffffffffffffffffffffffffffffffffffffff1690565b60025473ffffffffffffffffffffffffffffffffffffffff16845491611808565b60025473ffffffffffffffffffffffffffffffffffffffff169160008080808096600554905af161069c6113ba565b501561071c5773ffffffffffffffffffffffffffffffffffffffff7feaff4b37086828766ad3268786972c0cd24259d4c87a80f9d3963a3c3d999b0d9161070f6106fb60025473ffffffffffffffffffffffffffffffffffffffff1690565b915494519283921694829190602083019252565b0390a261015b6001600055565b90517f90b8ec18000000000000000000000000000000000000000000000000000000008152fd5b50517f5c427cd9000000000000000000000000000000000000000000000000000000008152fd5b50517f851f40b4000000000000000000000000000000000000000000000000000000008152fd5b50517fabab6bd7000000000000000000000000000000000000000000000000000000008152fd5b506040517f54e37625000000000000000000000000000000000000000000000000000000008152fd5b826040517f6507689f000000000000000000000000000000000000000000000000000000008152fd5b826040517f87138d5c000000000000000000000000000000000000000000000000000000008152fd5b73ffffffffffffffffffffffffffffffffffffffff81160361022e57565b3461022e5760407ffffffffffffffffffffffffffffffffffffffffffffffffffffffffffffffffc36011261022e5760043561088c81610833565b602435600b5460ff8116156109cd5760015473ffffffffffffffffffffffffffffffffffffffff908116916108ed906108c63385146113ea565b6108d96108d46104b461135d565b61144f565b60ff8160081c161590816109be5750610ea2565b61090f61013560035473ffffffffffffffffffffffffffffffffffffffff1690565b9316928314610922575b61001992611808565b6040517f70a0823100000000000000000000000000000000000000000000000000000000815230600482015292602084602481845afa80156109b95761097b610983916100199660009161098a575b50600454906114cf565b84111561150b565b9250610919565b6109ac915060203d6020116109b2575b6109a48183610f57565b8101906114b4565b38610971565b503d61099a565b6114c3565b60ff915060101c16153861010a565b60046040517f87138d5c000000000000000000000000000000000000000000000000000000008152fd5b9190916101c06101006101e083019473ffffffffffffffffffffffffffffffffffffffff8151168452610a476020820151602086019073ffffffffffffffffffffffffffffffffffffffff169052565b60408181015173ffffffffffffffffffffffffffffffffffffffff1685820152606080830151818701526080808401518188015260a0808501518189015260c080860151805163ffffffff908116838c01526020820151811660e08c01529581015186166101008b01529384015185166101208a0152918301518416610140890152820151831661016088015201511661018085015260e08101516101a08501520151910152565b3461022e5760007ffffffffffffffffffffffffffffffffffffffffffffffffffffffffffffffffc36011261022e57610b266115a8565b5060ff600b5416156109cd57610c39610b3d610f98565b610b79610b5f60015473ffffffffffffffffffffffffffffffffffffffff1690565b73ffffffffffffffffffffffffffffffffffffffff168252565b610bb8610b9b60025473ffffffffffffffffffffffffffffffffffffffff1690565b73ffffffffffffffffffffffffffffffffffffffff166020830152565b610bf7610bda60035473ffffffffffffffffffffffffffffffffffffffff1690565b73ffffffffffffffffffffffffffffffffffffffff166040830152565b6004546060820152600554608082015260065460a0820152610c1761135d565b60c082015260085460e0820152600954610100820152604051918291826109f7565b0390f35b3461022e576000807ffffffffffffffffffffffffffffffffffffffffffffffffffffffffffffffffc3601126101ef57610c756117cd565b600b5460ff8116156109cd5760ff8160081c16610e785760101c60ff16610e4e57610ca461058e6104b461135d565b610e2457610cca61013560015473ffffffffffffffffffffffffffffffffffffffff1690565b3303610dfa57610d02620100007fffffffffffffffffffffffffffffffffffffffffffffffffffffffffff00ffff600b541617600b55565b610d49610d2761013560035473ffffffffffffffffffffffffffffffffffffffff1690565b60015473ffffffffffffffffffffffffffffffffffffffff1660045491611808565b80808080610d6c60015473ffffffffffffffffffffffffffffffffffffffff1690565b600554905af1610d7a6113ba565b5015610dd057610da261013560015473ffffffffffffffffffffffffffffffffffffffff1690565b7fac2a38716bf0fa9fa1a52e859663398120e11fa721ea31fe0682199b9fd367e78280a261015b6001600055565b60046040517f90b8ec18000000000000000000000000000000000000000000000000000000008152fd5b60046040517f5c427cd9000000000000000000000000000000000000000000000000000000008152fd5b60046040517fa1fb4f97000000000000000000000000000000000000000000000000000000008152fd5b60046040517f54e37625000000000000000000000000000000000000000000000000000000008152fd5b60046040517f6507689f000000000000000000000000000000000000000000000000000000008152fd5b15610ea957565b60646040517f08c379a000000000000000000000000000000000000000000000000000000000815260206004820152601160248201527f416c72656164792066696e616c697a65640000000000000000000000000000006044820152fd5b7f4e487b7100000000000000000000000000000000000000000000000000000000600052604160045260246000fd5b60e0810190811067ffffffffffffffff821117610f5257604052565b610f07565b90601f7fffffffffffffffffffffffffffffffffffffffffffffffffffffffffffffffe0910116810190811067ffffffffffffffff821117610f5257604052565b60405190610120820182811067ffffffffffffffff821117610f5257604052565b67ffffffffffffffff8111610f5257601f017fffffffffffffffffffffffffffffffffffffffffffffffffffffffffffffffe01660200190565b929192610fff82610fb9565b9161100d6040519384610f57565b82948184528183011161022e578281602093846000960137010152565b61116560c06111b3926110fc63ffffffff808351166007549067ffffffff00000000602086015160201b166bffffffff0000000000000000604087015160401b16917fffffffffffffffffffffffffffffffff000000000000000000000000000000006fffffffff000000000000000000000000606089015160601b169416171717176007556080830151167fffffffffffffffffffffffff00000000ffffffffffffffffffffffffffffffff73ffffffff000000000000000000000000000000006007549260801b16911617600755565b61115a61111060a083015163ffffffff1690565b7fffffffffffffffff00000000ffffffffffffffffffffffffffffffffffffffff77ffffffff00000000000000000000000000000000000000006007549260a01b16911617600755565b015163ffffffff1690565b7fffffffff00000000ffffffffffffffffffffffffffffffffffffffffffffffff7bffffffff0000000000000000000000000000000000000000000000006007549260c01b16911617600755565b565b6101009073ffffffffffffffffffffffffffffffffffffffff8151167fffffffffffffffffffffffff0000000000000000000000000000000000000000600154161760015561125f61121e602083015173ffffffffffffffffffffffffffffffffffffffff1690565b73ffffffffffffffffffffffffffffffffffffffff167fffffffffffffffffffffffff00000000000000000000000000000000000000006002541617600255565b6112c4611283604083015173ffffffffffffffffffffffffffffffffffffffff1690565b73ffffffffffffffffffffffffffffffffffffffff167fffffffffffffffffffffffff00000000000000000000000000000000000000006003541617600355565b6060810151600455608081015160055560a08101516006556112e960c082015161102a565b60e08101516008550151600955565b156112ff57565b60646040517f08c379a000000000000000000000000000000000000000000000000000000000815260206004820152601660248201527f496e76616c696420736166657479206465706f736974000000000000000000006044820152fd5b6040519061136a82610f36565b8160c060075463ffffffff908181168452818160201c166020850152818160401c166040850152818160601c166060850152818160801c166080850152818160a01c1660a0850152821c16910152565b3d156113e5573d906113cb82610fb9565b916113d96040519384610f57565b82523d6000602084013e565b606090565b156113f157565b60646040517f08c379a000000000000000000000000000000000000000000000000000000000815260206004820152600a60248201527f4f6e6c79206d616b6572000000000000000000000000000000000000000000006044820152fd5b1561145657565b60646040517f08c379a000000000000000000000000000000000000000000000000000000000815260206004820152601a60248201527f4e6f7420696e2063616e63656c6c6174696f6e2077696e646f770000000000006044820152fd5b9081602091031261022e575190565b6040513d6000823e3d90fd5b919082039182116114dc57565b7f4e487b7100000000000000000000000000000000000000000000000000000000600052601160045260246000fd5b1561151257565b60646040517f08c379a000000000000000000000000000000000000000000000000000000000815260206004820152601d60248201527f43616e6e6f74207265636f76657220657363726f7765642066756e64730000006044820152fd5b6040519061157d82610f36565b8160c06000918281528260208201528260408201528260608201528260808201528260a08201520152565b60405190610120820182811067ffffffffffffffff821117610f5257604052816101006000918281528260208201528260408201528260608201528260808201528260a08201526115f7611570565b60c08201528260e08201520152565b9290604051927f23b872dd00000000000000000000000000000000000000000000000000000000602085015273ffffffffffffffffffffffffffffffffffffffff809216602485015216604483015260648201526064815260a081019181831067ffffffffffffffff841117610f52576111b392604052611877565b908160a091031261022e57805161169881610833565b9160208201516116a781610833565b9160408101516116b681610833565b916080606083015192015190565b6116cc6115a8565b508051810160200160208201906116e291611682565b939491929073ffffffffffffffffffffffffffffffffffffffff9460c08401519160e0850151966101009681888801519761012001519961172290611905565b968161172c610f98565b9c1673ffffffffffffffffffffffffffffffffffffffff168c521673ffffffffffffffffffffffffffffffffffffffff1660208b01521673ffffffffffffffffffffffffffffffffffffffff1660408901526060880152608087015260a086015260c085015260e084015282015290565b63ffffffff804216908060808401511682101592836117bd575b50505090565b60a00151161190503880806117b7565b6002600054146117de576002600055565b60046040517f3ee5aeb5000000000000000000000000000000000000000000000000000000008152fd5b9173ffffffffffffffffffffffffffffffffffffffff604051927fa9059cbb000000000000000000000000000000000000000000000000000000006020850152166024830152604482015260448152608081019181831067ffffffffffffffff841117610f52576111b3926040525b906000602091828151910182855af1156114c3576000513d6118fc575073ffffffffffffffffffffffffffffffffffffffff81163b155b6118b55750565b60249073ffffffffffffffffffffffffffffffffffffffff604051917f5274afe7000000000000000000000000000000000000000000000000000000008352166004820152fd5b600114156118ae565b9061190e611570565b918060e01c835263ffffffff90818160c01c166020850152818160a01c166040850152818160801c166060850152818160601c166080850152818160401c1660a085015260201c1660c083015256fea264697066735822122019f2de0fbd616cbb321d609decf747cd24f8c618e5fd780e6d53e0c530babde564736f6c634300081700336080806040523461001b57600160005561192090816100218239f35b600080fdfe6080604052600436101561001b575b361561001957600080fd5b005b6000803560e01c90816332e27c071461009e57508063417c9f0914610099578063439fab91146100945780634e69d5601461008f5780638e19899e1461008a5780639639011e14610085578063bcdb4dad146100805763ea8a1af00361000e57610c4a565b610afc565b61085d565b6104ac565b6103dc565b6102a6565b61012c565b346100d857807ffffffffffffffffffffffffffffffffffffffffffffffffffffffffffffffffc3601126100d857600b5460805260206080f35b80fd5b73ffffffffffffffffffffffffffffffffffffffff8116036100f957565b600080fd5b9181601f840112156100f95782359167ffffffffffffffff83116100f957602083818601950101116100f957565b346100f95760607ffffffffffffffffffffffffffffffffffffffffffffffffffffffffffffffffc3601126100f95760048035610168816100db565b60443567ffffffffffffffff81116100f95761018790369084016100fe565b505060ff600a54161561027d5773ffffffffffffffffffffffffffffffffffffffff806003541691160361021f578054602435036101c157005b6064906020604051917f08c379a0000000000000000000000000000000000000000000000000000000008352820152600e60248201527f496e76616c696420616d6f756e740000000000000000000000000000000000006044820152fd5b6064906020604051917f08c379a0000000000000000000000000000000000000000000000000000000008352820152600d60248201527f496e76616c696420746f6b656e000000000000000000000000000000000000006044820152fd5b506040517f87138d5c000000000000000000000000000000000000000000000000000000008152fd5b60207ffffffffffffffffffffffffffffffffffffffffffffffffffffffffffffffffc3601126100f95760043567ffffffffffffffff81116100f9576102f09036906004016100fe565b9060ff600a54166103b25761030d61031291610317933691610fbb565b611675565b61117d565b61034760017fffffffffffffffffffffffffffffffffffffffffffffffffffffffffffffff00600a541617600a55565b61035460055434146112c0565b60015460025460045460065460408051928352602083019190915273ffffffffffffffffffffffffffffffffffffffff9283169392909216917f3f3644ff1a3896820b6f37eea71595a8a92be407fb6bbb18c974d7ced2655fef91a3005b60046040517f0dc149f0000000000000000000000000000000000000000000000000000000008152fd5b346100f9576000807ffffffffffffffffffffffffffffffffffffffffffffffffffffffffffffffffc3601126100d857600a5460a09160ff821691819083610452575b60ff906040519415158552818160081c161515602086015260101c16151560408401521515606083015215156080820152f35b915050610465610460611325565b61174e565b8015610496575b60ff61048e610479611325565b6040015163ffffffff90811642909116101590565b92905061041f565b506104a76104a2611325565b61177b565b61046c565b346100f95760207ffffffffffffffffffffffffffffffffffffffffffffffffffffffffffffffffc3601126100f957600480356104e761179a565b600a5460ff8116156108345760ff8160081c1661080b5760101c60ff166107e2576040908151602081019061055081610524858560209181520190565b037fffffffffffffffffffffffffffffffffffffffffffffffffffffffffffffffe08101835282610f1f565b519020600654036107bb57610566610460611325565b6105716104a2611325565b8115806107b3575b61078a5781610781575b5080610756575b61072f576105bf6101007fffffffffffffffffffffffffffffffffffffffffffffffffffffffffffff00ff600a541617600a55565b6105c881600b55565b6006548251918252907fc8ee7ba45d0c5351df845eda156d523bd6865844a5f2c69df35b757e2f794fa190602090a261065661063561061c60035473ffffffffffffffffffffffffffffffffffffffff1690565b73ffffffffffffffffffffffffffffffffffffffff1690565b60025473ffffffffffffffffffffffffffffffffffffffff168454916117d5565b60025473ffffffffffffffffffffffffffffffffffffffff169160008080808096600554905af1610685611382565b50156107085773ffffffffffffffffffffffffffffffffffffffff7feaff4b37086828766ad3268786972c0cd24259d4c87a80f9d3963a3c3d999b0d916106f86106e460025473ffffffffffffffffffffffffffffffffffffffff1690565b915494519283921694829190602083019252565b0390a26107056001600055565b80f35b90517f90b8ec18000000000000000000000000000000000000000000000000000000008152fd5b50517f5c427cd9000000000000000000000000000000000000000000000000000000008152fd5b5061077961061c60025473ffffffffffffffffffffffffffffffffffffffff1690565b33141561058a565b90501538610583565b505050517f851f40b4000000000000000000000000000000000000000000000000000000008152fd5b508015610579565b50517fabab6bd7000000000000000000000000000000000000000000000000000000008152fd5b506040517f54e37625000000000000000000000000000000000000000000000000000000008152fd5b826040517f6507689f000000000000000000000000000000000000000000000000000000008152fd5b826040517f87138d5c000000000000000000000000000000000000000000000000000000008152fd5b346100f95760407ffffffffffffffffffffffffffffffffffffffffffffffffffffffffffffffffc3601126100f957600435610898816100db565b602435600a5460ff8116156109da5760015473ffffffffffffffffffffffffffffffffffffffff908116916108fa906108d23385146113b2565b6108e56108e0610479611325565b611417565b60ff8160081c161590816109cb575b5061147c565b61091c61061c60035473ffffffffffffffffffffffffffffffffffffffff1690565b931692831461092f575b610019926117d5565b6040517f70a0823100000000000000000000000000000000000000000000000000000000815230600482015292602084602481845afa80156109c6576109886109909161001996600091610997575b50600454906114fc565b841115611538565b9250610926565b6109b9915060203d6020116109bf575b6109b18183610f1f565b8101906114e1565b3861097e565b503d6109a7565b6114f0565b60ff915060101c1615386108f4565b60046040517f87138d5c000000000000000000000000000000000000000000000000000000008152fd5b9190916101c06101006101e083019473ffffffffffffffffffffffffffffffffffffffff8151168452610a546020820151602086019073ffffffffffffffffffffffffffffffffffffffff169052565b60408181015173ffffffffffffffffffffffffffffffffffffffff1685820152606080830151818701526080808401518188015260a0808501518189015260c080860151805163ffffffff908116838c01526020820151811660e08c01529581015186166101008b01529384015185166101208a0152918301518416610140890152820151831661016088015201511661018085015260e08101516101a08501520151910152565b346100f95760007ffffffffffffffffffffffffffffffffffffffffffffffffffffffffffffffffc3601126100f957610b336115d5565b5060ff600a5416156109da57610c46610b4a610f60565b610b86610b6c60015473ffffffffffffffffffffffffffffffffffffffff1690565b73ffffffffffffffffffffffffffffffffffffffff168252565b610bc5610ba860025473ffffffffffffffffffffffffffffffffffffffff1690565b73ffffffffffffffffffffffffffffffffffffffff166020830152565b610c04610be760035473ffffffffffffffffffffffffffffffffffffffff1690565b73ffffffffffffffffffffffffffffffffffffffff166040830152565b6004546060820152600554608082015260065460a0820152610c24611325565b60c082015260085460e082015260095461010082015260405191829182610a04565b0390f35b346100f9576000807ffffffffffffffffffffffffffffffffffffffffffffffffffffffffffffffffc3601126100d857610c8261179a565b600a5460ff8116156109da5760ff8160081c16610e895760101c60ff16610e5f57610cb5610cb1610479611325565b1590565b610e3557610cdb61061c60015473ffffffffffffffffffffffffffffffffffffffff1690565b3303610e0b57610d13620100007fffffffffffffffffffffffffffffffffffffffffffffffffffffffffff00ffff600a541617600a55565b610d5a610d3861061c60035473ffffffffffffffffffffffffffffffffffffffff1690565b60015473ffffffffffffffffffffffffffffffffffffffff16600454916117d5565b80808080610d7d60015473ffffffffffffffffffffffffffffffffffffffff1690565b600554905af1610d8b611382565b5015610de157610db361061c60015473ffffffffffffffffffffffffffffffffffffffff1690565b7fac2a38716bf0fa9fa1a52e859663398120e11fa721ea31fe0682199b9fd367e78280a26107056001600055565b60046040517f90b8ec18000000000000000000000000000000000000000000000000000000008152fd5b60046040517f5c427cd9000000000000000000000000000000000000000000000000000000008152fd5b60046040517fa1fb4f97000000000000000000000000000000000000000000000000000000008152fd5b60046040517f54e37625000000000000000000000000000000000000000000000000000000008152fd5b60046040517f6507689f000000000000000000000000000000000000000000000000000000008152fd5b7f4e487b7100000000000000000000000000000000000000000000000000000000600052604160045260246000fd5b60e0810190811067ffffffffffffffff821117610efe57604052565b610eb3565b6080810190811067ffffffffffffffff821117610efe57604052565b90601f7fffffffffffffffffffffffffffffffffffffffffffffffffffffffffffffffe0910116810190811067ffffffffffffffff821117610efe57604052565b60405190610120820182811067ffffffffffffffff821117610efe57604052565b67ffffffffffffffff8111610efe57601f017fffffffffffffffffffffffffffffffffffffffffffffffffffffffffffffffe01660200190565b929192610fc782610f81565b91610fd56040519384610f1f565b8294818452818301116100f9578281602093846000960137010152565b61112d60c061117b926110c463ffffffff808351166007549067ffffffff00000000602086015160201b166bffffffff0000000000000000604087015160401b16917fffffffffffffffffffffffffffffffff000000000000000000000000000000006fffffffff000000000000000000000000606089015160601b169416171717176007556080830151167fffffffffffffffffffffffff00000000ffffffffffffffffffffffffffffffff73ffffffff000000000000000000000000000000006007549260801b16911617600755565b6111226110d860a083015163ffffffff1690565b7fffffffffffffffff00000000ffffffffffffffffffffffffffffffffffffffff77ffffffff00000000000000000000000000000000000000006007549260a01b16911617600755565b015163ffffffff1690565b7fffffffff00000000ffffffffffffffffffffffffffffffffffffffffffffffff7bffffffff0000000000000000000000000000000000000000000000006007549260c01b16911617600755565b565b6101009073ffffffffffffffffffffffffffffffffffffffff8151167fffffffffffffffffffffffff000000000000000000000000000000000000000060015416176001556112276111e6602083015173ffffffffffffffffffffffffffffffffffffffff1690565b73ffffffffffffffffffffffffffffffffffffffff167fffffffffffffffffffffffff00000000000000000000000000000000000000006002541617600255565b61128c61124b604083015173ffffffffffffffffffffffffffffffffffffffff1690565b73ffffffffffffffffffffffffffffffffffffffff167fffffffffffffffffffffffff00000000000000000000000000000000000000006003541617600355565b6060810151600455608081015160055560a08101516006556112b160c0820151610ff2565b60e08101516008550151600955565b156112c757565b60646040517f08c379a000000000000000000000000000000000000000000000000000000000815260206004820152601660248201527f496e76616c696420736166657479206465706f736974000000000000000000006044820152fd5b6040519061133282610ee2565b8160c060075463ffffffff908181168452818160201c166020850152818160401c166040850152818160601c166060850152818160801c166080850152818160a01c1660a0850152821c16910152565b3d156113ad573d9061139382610f81565b916113a16040519384610f1f565b82523d6000602084013e565b606090565b156113b957565b60646040517f08c379a000000000000000000000000000000000000000000000000000000000815260206004820152600a60248201527f4f6e6c79206d616b6572000000000000000000000000000000000000000000006044820152fd5b1561141e57565b60646040517f08c379a000000000000000000000000000000000000000000000000000000000815260206004820152601a60248201527f4e6f7420696e2063616e63656c6c6174696f6e2077696e646f770000000000006044820152fd5b1561148357565b60646040517f08c379a000000000000000000000000000000000000000000000000000000000815260206004820152601160248201527f416c72656164792066696e616c697a65640000000000000000000000000000006044820152fd5b908160209103126100f9575190565b6040513d6000823e3d90fd5b9190820391821161150957565b7f4e487b7100000000000000000000000000000000000000000000000000000000600052601160045260246000fd5b1561153f57565b60646040517f08c379a000000000000000000000000000000000000000000000000000000000815260206004820152601d60248201527f43616e6e6f74207265636f76657220657363726f7765642066756e64730000006044820152fd5b604051906115aa82610ee2565b8160c06000918281528260208201528260408201528260608201528260808201528260a08201520152565b60405190610120820182811067ffffffffffffffff821117610efe57604052816101006000918281528260208201528260408201528260608201528260808201528260a082015261162461159d565b60c08201528260e08201520152565b908160a09103126100f9578051611649816100db565b916020820151611658816100db565b916040810151611667816100db565b916080606083015192015190565b61167d6115d5565b5080518101602001602082019061169391611633565b939491929073ffffffffffffffffffffffffffffffffffffffff9460c08401519160e085015196610100968188880151976101200151996116d390611892565b96816116dd610f60565b9c1673ffffffffffffffffffffffffffffffffffffffff168c521673ffffffffffffffffffffffffffffffffffffffff1660208b01521673ffffffffffffffffffffffffffffffffffffffff1660408901526060880152608087015260a086015260c085015260e084015282015290565b63ffffffff8042169080835116821015928361176b575b50505090565b6040015116119050388080611765565b63ffffffff8042169080602084015116821015928361176b5750505090565b6002600054146117ab576002600055565b60046040517f3ee5aeb5000000000000000000000000000000000000000000000000000000008152fd5b916000602091604051838101917fa9059cbb00000000000000000000000000000000000000000000000000000000835273ffffffffffffffffffffffffffffffffffffffff809616602483015260448201526044815261183481610f03565b519082865af1156114f0576000513d61188957508082163b155b611856575050565b60249250604051917f5274afe7000000000000000000000000000000000000000000000000000000008352166004820152fd5b6001141561184e565b9061189b61159d565b918060e01c835263ffffffff90818160c01c166020850152818160a01c166040850152818160801c166060850152818160601c166080850152818160401c1660a085015260201c1660c083015256fea26469706673582212200ad6fcbdde5fb22040b70106011d8d82455df624a073dd6e1927435bd84e23ad64736f6c634300081700332f8788117e7eff1d82e926ec794901d17c78024a50270940304540a733656f0d",
  "devdoc": {
    "details": "Deploys and manages escrows for cross-chain atomic swaps",
    "errors": {
      "AccessControlBadConfirmation()": [
        {
          "details": "The caller of a function is not the expected one. NOTE: Don't confuse with {AccessControlUnauthorizedAccount}."
        }
      ],
      "AccessControlUnauthorizedAccount(address,bytes32)": [
        {
          "details": "The `account` is missing a role."
        }
      ],
      "EnforcedPause()": [
        {
          "details": "The operation failed because the contract is paused."
        }
      ],
      "ExpectedPause()": [
        {
          "details": "The operation failed because the contract is not paused."
        }
      ],
      "FailedDeployment()": [
        {
          "details": "The deployment failed."
        }
      ],
      "InsufficientBalance(uint256,uint256)": [
        {
          "details": "The ETH balance of the account is not enough to perform the operation."
        }
      ]
    },
    "events": {
      "Paused(address)": {
        "details": "Emitted when the pause is triggered by `account`."
      },
      "RoleAdminChanged(bytes32,bytes32,bytes32)": {
        "details": "Emitted when `newAdminRole` is set as ``role``'s admin role, replacing `previousAdminRole` `DEFAULT_ADMIN_ROLE` is the starting admin for all roles, despite {RoleAdminChanged} not being emitted to signal this."
      },
      "RoleGranted(bytes32,address,address)": {
        "details": "Emitted when `account` is granted `role`. `sender` is the account that originated the contract call. This account bears the admin role (for the granted role). Expected in cases where the role was granted using the internal {AccessControl-_grantRole}."
      },
      "RoleRevoked(bytes32,address,address)": {
        "details": "Emitted when `account` is revoked `role`. `sender` is the account that originated the contract call:   - if using `revokeRole`, it is the admin role bearer   - if using `renounceRole`, it is the role bearer (i.e. `account`)"
      },
      "Unpaused(address)": {
        "details": "Emitted when the pause is lifted by `account`."
      }
    },
    "kind": "dev",
    "methods": {
      "addressOfEscrowDst((address,address,address,uint256,uint256,bytes32,(uint32,uint32,uint32,uint32,uint32,uint32,uint32),bytes32,uint256))": {
        "details": "Used by orchestration service for coordination",
        "params": {
          "immutables": "Escrow parameters"
        },
        "returns": {
          "escrowAddress": "Computed escrow address"
        }
      },
      "addressOfEscrowSrc((address,address,address,uint256,uint256,bytes32,(uint32,uint32,uint32,uint32,uint32,uint32,uint32),bytes32,uint256))": {
        "details": "Used by orchestration service for coordination",
        "params": {
          "immutables": "Escrow parameters"
        },
        "returns": {
          "escrowAddress": "Computed escrow address"
        }
      },
      "createDstEscrow((address,address,address,uint256,uint256,bytes32,(uint32,uint32,uint32,uint32,uint32,uint32,uint32),bytes32,uint256),uint256)": {
        "details": "Called by orchestration service on destination chain",
        "params": {
          "immutables": "Escrow parameters (adapted for destination)",
          "srcCancellationTimestamp": "Source chain cancellation timestamp"
        },
        "returns": {
          "escrow": "Address of created escrow"
        }
      },
      "createEscrowPair((address,address,address,uint256,uint256,bytes32,(uint32,uint32,uint32,uint32,uint32,uint32,uint32),bytes32,uint256),(address,address,address,uint256,uint256,bytes32,(uint32,uint32,uint32,uint32,uint32,uint32,uint32),bytes32,uint256))": {
        "details": "Batch creation for efficiency",
        "params": {
          "dstImmutables": "Destination chain immutables",
          "srcImmutables": "Source chain immutables"
        },
        "returns": {
          "dstEscrow": "Destination escrow address",
          "srcEscrow": "Source escrow address"
        }
      },
      "createSrcEscrow((address,address,address,uint256,uint256,bytes32,(uint32,uint32,uint32,uint32,uint32,uint32,uint32),bytes32,uint256))": {
        "details": "Called by orchestration service when initiating cross-chain swap",
        "params": {
          "immutables": "Escrow parameters"
        },
        "returns": {
          "escrow": "Address of created escrow"
        }
      },
      "emergencyPause()": {
        "details": "Only admin can call during emergencies"
      },
      "emergencyUnpause()": {
        "details": "Only admin can call"
      },
      "fillOrderWithEscrow((uint256,address,address,address,address,address,uint256,uint256,uint256,bytes),bytes,uint256,uint256,address)": {
        "details": "Called by resolver to initiate the swap",
        "params": {
          "escrowAddress": "Target escrow for funds",
          "makingAmount": "Amount to make",
          "order": "The limit order to fill",
          "signature": "Order signature",
          "takingAmount": "Amount to take"
        }
      },
      "getEscrowPair(bytes32)": {
        "params": {
          "orderHash": "The order hash"
        },
        "returns": {
          "dstEscrow": "Destination escrow address",
          "srcEscrow": "Source escrow address"
        }
      },
      "getRoleAdmin(bytes32)": {
        "details": "Returns the admin role that controls `role`. See {grantRole} and {revokeRole}. To change a role's admin, use {_setRoleAdmin}."
      },
      "grantOrchestratorRole(address)": {
        "params": {
          "orchestrator": "Address of the orchestration service operator"
        }
      },
      "grantRole(bytes32,address)": {
        "details": "Grants `role` to `account`. If `account` had not been already granted `role`, emits a {RoleGranted} event. Requirements: - the caller must have ``role``'s admin role. May emit a {RoleGranted} event."
      },
      "hasRole(bytes32,address)": {
        "details": "Returns `true` if `account` has been granted `role`."
      },
      "paused()": {
        "details": "Returns true if the contract is paused, and false otherwise."
      },
      "renounceRole(bytes32,address)": {
        "details": "Revokes `role` from the calling account. Roles are often managed via {grantRole} and {revokeRole}: this function's purpose is to provide a mechanism for accounts to lose their privileges if they are compromised (such as when a trusted device is misplaced). If the calling account had been revoked `role`, emits a {RoleRevoked} event. Requirements: - the caller must be `callerConfirmation`. May emit a {RoleRevoked} event."
      },
      "revokeRole(bytes32,address)": {
        "details": "Revokes `role` from `account`. If `account` had been granted `role`, emits a {RoleRevoked} event. Requirements: - the caller must have ``role``'s admin role. May emit a {RoleRevoked} event."
      },
      "supportsInterface(bytes4)": {
        "details": "Returns true if this contract implements the interface defined by `interfaceId`. See the corresponding https://eips.ethereum.org/EIPS/eip-165#how-interfaces-are-identified[ERC section] to learn more about how these ids are created. This function call must use less than 30 000 gas."
      },
      "verifyEscrowStatus(address)": {
        "params": {
          "escrowAddress": "Escrow to check"
        },
        "returns": {
          "isValid": "True if escrow is valid and active"
        }
      }
    },
    "title": "EscrowFactory",
    "version": 1
  },
  "userdoc": {
    "events": {
      "DstEscrowCreated(address,address,address,bytes32)": {
        "notice": "Emitted when destination escrow is created"
      },
      "SrcEscrowCreated(address,address,address,bytes32)": {
        "notice": "Emitted when source escrow is created"
      }
    },
    "kind": "user",
    "methods": {
      "addressOfEscrowDst((address,address,address,uint256,uint256,bytes32,(uint32,uint32,uint32,uint32,uint32,uint32,uint32),bytes32,uint256))": {
        "notice": "Computes the address of a destination escrow"
      },
      "addressOfEscrowSrc((address,address,address,uint256,uint256,bytes32,(uint32,uint32,uint32,uint32,uint32,uint32,uint32),bytes32,uint256))": {
        "notice": "Computes the address of a source escrow"
      },
      "createDstEscrow((address,address,address,uint256,uint256,bytes32,(uint32,uint32,uint32,uint32,uint32,uint32,uint32),bytes32,uint256),uint256)": {
        "notice": "Creates a destination chain escrow"
      },
      "createEscrowPair((address,address,address,uint256,uint256,bytes32,(uint32,uint32,uint32,uint32,uint32,uint32,uint32),bytes32,uint256),(address,address,address,uint256,uint256,bytes32,(uint32,uint32,uint32,uint32,uint32,uint32,uint32),bytes32,uint256))": {
        "notice": "Creates escrows for orchestration service"
      },
      "createSrcEscrow((address,address,address,uint256,uint256,bytes32,(uint32,uint32,uint32,uint32,uint32,uint32,uint32),bytes32,uint256))": {
        "notice": "Creates a source chain escrow"
      },
      "emergencyPause()": {
        "notice": "Emergency pause for all escrow creation"
      },
      "emergencyUnpause()": {
        "notice": "Resume escrow creation after emergency"
      },
      "fillOrderWithEscrow((uint256,address,address,address,address,address,uint256,uint256,uint256,bytes),bytes,uint256,uint256,address)": {
        "notice": "Fills a 1inch limit order as part of cross-chain swap"
      },
      "getEscrowPair(bytes32)": {
        "notice": "Gets escrow addresses for a cross-chain order"
      },
      "grantOrchestratorRole(address)": {
        "notice": "Grants orchestrator role to the orchestration service"
      },
      "isValidEscrow(address)": {
        "notice": "Checks if an address is a valid escrow created by this factory"
      },
      "pause()": {
        "notice": "Pauses the factory"
      },
      "unpause()": {
        "notice": "Unpauses the factory"
      },
      "verifyEscrowStatus(address)": {
        "notice": "Verifies escrow status for orchestration"
      }
    },
    "notice": "Concrete implementation of escrow factory for 1inch integration",
    "version": 1
  },
  "storageLayout": {
    "storage": [
      {
        "astId": 1035,
        "contract": "contracts/ethereum-hub/escrow/EscrowFactory.sol:EscrowFactory",
        "label": "_roles",
        "offset": 0,
        "slot": "0",
        "type": "t_mapping(t_bytes32,t_struct(RoleData)1030_storage)"
      },
      {
        "astId": 2726,
        "contract": "contracts/ethereum-hub/escrow/EscrowFactory.sol:EscrowFactory",
        "label": "_paused",
        "offset": 0,
        "slot": "1",
        "type": "t_bool"
      },
      {
        "astId": 3990,
        "contract": "contracts/ethereum-hub/escrow/EscrowFactory.sol:EscrowFactory",
        "label": "escrows",
        "offset": 0,
        "slot": "2",
        "type": "t_mapping(t_bytes32,t_address)"
      },
      {
        "astId": 3994,
        "contract": "contracts/ethereum-hub/escrow/EscrowFactory.sol:EscrowFactory",
        "label": "isValidEscrow",
        "offset": 0,
        "slot": "3",
        "type": "t_mapping(t_address,t_bool)"
      }
    ],
    "types": {
      "t_address": {
        "encoding": "inplace",
        "label": "address",
        "numberOfBytes": "20"
      },
      "t_bool": {
        "encoding": "inplace",
        "label": "bool",
        "numberOfBytes": "1"
      },
      "t_bytes32": {
        "encoding": "inplace",
        "label": "bytes32",
        "numberOfBytes": "32"
      },
      "t_mapping(t_address,t_bool)": {
        "encoding": "mapping",
        "key": "t_address",
        "label": "mapping(address => bool)",
        "numberOfBytes": "32",
        "value": "t_bool"
      },
      "t_mapping(t_bytes32,t_address)": {
        "encoding": "mapping",
        "key": "t_bytes32",
        "label": "mapping(bytes32 => address)",
        "numberOfBytes": "32",
        "value": "t_address"
      },
      "t_mapping(t_bytes32,t_struct(RoleData)1030_storage)": {
        "encoding": "mapping",
        "key": "t_bytes32",
        "label": "mapping(bytes32 => struct AccessControl.RoleData)",
        "numberOfBytes": "32",
        "value": "t_struct(RoleData)1030_storage"
      },
      "t_struct(RoleData)1030_storage": {
        "encoding": "inplace",
        "label": "struct AccessControl.RoleData",
        "members": [
          {
            "astId": 1027,
            "contract": "contracts/ethereum-hub/escrow/EscrowFactory.sol:EscrowFactory",
            "label": "hasRole",
            "offset": 0,
            "slot": "0",
            "type": "t_mapping(t_address,t_bool)"
          },
          {
            "astId": 1029,
            "contract": "contracts/ethereum-hub/escrow/EscrowFactory.sol:EscrowFactory",
            "label": "adminRole",
            "offset": 0,
            "slot": "1",
            "type": "t_bytes32"
          }
        ],
        "numberOfBytes": "64"
      }
    }
  }
}