{
  "address": "0x69D9f549E19a3FCF77F02a39363698cc5fFDf1E7",
  "abi": [
    {
      "inputs": [],
      "name": "AccessControlBadConfirmation",
      "type": "error"
    },
    {
      "inputs": [
        {
          "internalType": "address",
          "name": "account",
          "type": "address"
        },
        {
          "internalType": "bytes32",
          "name": "neededRole",
          "type": "bytes32"
        }
      ],
      "name": "AccessControlUnauthorizedAccount",
      "type": "error"
    },
    {
      "inputs": [],
      "name": "EnforcedPause",
      "type": "error"
    },
    {
      "inputs": [],
      "name": "ExpectedPause",
      "type": "error"
    },
    {
      "inputs": [],
      "name": "FusionPlusHub__InvalidAddress",
      "type": "error"
    },
    {
      "inputs": [],
      "name": "FusionPlusHub__InvalidAmount",
      "type": "error"
    },
    {
      "inputs": [],
      "name": "FusionPlusHub__InvalidFee",
      "type": "error"
    },
    {
      "inputs": [],
      "name": "FusionPlusHub__InvalidOrderStatus",
      "type": "error"
    },
    {
      "inputs": [],
      "name": "FusionPlusHub__OrderAlreadyExists",
      "type": "error"
    },
    {
      "inputs": [],
      "name": "FusionPlusHub__UnauthorizedAccess",
      "type": "error"
    },
    {
      "inputs": [],
      "name": "InvalidInitialization",
      "type": "error"
    },
    {
      "inputs": [],
      "name": "NotInitializing",
      "type": "error"
    },
    {
      "inputs": [],
      "name": "ReentrancyGuardReentrantCall",
      "type": "error"
    },
    {
      "anonymous": false,
      "inputs": [
        {
          "indexed": false,
          "internalType": "address",
          "name": "limitOrderProtocol",
          "type": "address"
        },
        {
          "indexed": false,
          "internalType": "address",
          "name": "aggregationRouter",
          "type": "address"
        },
        {
          "indexed": false,
          "internalType": "address",
          "name": "escrowFactory",
          "type": "address"
        }
      ],
      "name": "ContractsUpdated",
      "type": "event"
    },
    {
      "anonymous": false,
      "inputs": [
        {
          "indexed": false,
          "internalType": "address",
          "name": "newRecipient",
          "type": "address"
        }
      ],
      "name": "FeeRecipientUpdated",
      "type": "event"
    },
    {
      "anonymous": false,
      "inputs": [
        {
          "indexed": true,
          "internalType": "bytes32",
          "name": "orderHash",
          "type": "bytes32"
        },
        {
          "indexed": true,
          "internalType": "address",
          "name": "maker",
          "type": "address"
        },
        {
          "indexed": false,
          "internalType": "bytes32",
          "name": "destinationChain",
          "type": "bytes32"
        },
        {
          "indexed": false,
          "internalType": "address",
          "name": "srcToken",
          "type": "address"
        },
        {
          "indexed": false,
          "internalType": "address",
          "name": "dstToken",
          "type": "address"
        },
        {
          "indexed": false,
          "internalType": "uint256",
          "name": "srcAmount",
          "type": "uint256"
        },
        {
          "indexed": false,
          "internalType": "uint256",
          "name": "dstAmount",
          "type": "uint256"
        }
      ],
      "name": "FusionPlusOrderCreated",
      "type": "event"
    },
    {
      "anonymous": false,
      "inputs": [
        {
          "indexed": false,
          "internalType": "uint64",
          "name": "version",
          "type": "uint64"
        }
      ],
      "name": "Initialized",
      "type": "event"
    },
    {
      "anonymous": false,
      "inputs": [
        {
          "indexed": true,
          "internalType": "bytes32",
          "name": "orderHash",
          "type": "bytes32"
        },
        {
          "indexed": false,
          "internalType": "enum FusionPlusHub_V2.OrderStatus",
          "name": "status",
          "type": "uint8"
        }
      ],
      "name": "OrderStatusUpdated",
      "type": "event"
    },
    {
      "anonymous": false,
      "inputs": [
        {
          "indexed": false,
          "internalType": "address",
          "name": "account",
          "type": "address"
        }
      ],
      "name": "Paused",
      "type": "event"
    },
    {
      "anonymous": false,
      "inputs": [
        {
          "indexed": false,
          "internalType": "uint256",
          "name": "newFee",
          "type": "uint256"
        }
      ],
      "name": "ProtocolFeeUpdated",
      "type": "event"
    },
    {
      "anonymous": false,
      "inputs": [
        {
          "indexed": true,
          "internalType": "bytes32",
          "name": "role",
          "type": "bytes32"
        },
        {
          "indexed": true,
          "internalType": "bytes32",
          "name": "previousAdminRole",
          "type": "bytes32"
        },
        {
          "indexed": true,
          "internalType": "bytes32",
          "name": "newAdminRole",
          "type": "bytes32"
        }
      ],
      "name": "RoleAdminChanged",
      "type": "event"
    },
    {
      "anonymous": false,
      "inputs": [
        {
          "indexed": true,
          "internalType": "bytes32",
          "name": "role",
          "type": "bytes32"
        },
        {
          "indexed": true,
          "internalType": "address",
          "name": "account",
          "type": "address"
        },
        {
          "indexed": true,
          "internalType": "address",
          "name": "sender",
          "type": "address"
        }
      ],
      "name": "RoleGranted",
      "type": "event"
    },
    {
      "anonymous": false,
      "inputs": [
        {
          "indexed": true,
          "internalType": "bytes32",
          "name": "role",
          "type": "bytes32"
        },
        {
          "indexed": true,
          "internalType": "address",
          "name": "account",
          "type": "address"
        },
        {
          "indexed": true,
          "internalType": "address",
          "name": "sender",
          "type": "address"
        }
      ],
      "name": "RoleRevoked",
      "type": "event"
    },
    {
      "anonymous": false,
      "inputs": [
        {
          "indexed": false,
          "internalType": "address",
          "name": "account",
          "type": "address"
        }
      ],
      "name": "Unpaused",
      "type": "event"
    },
    {
      "inputs": [],
      "name": "DEFAULT_ADMIN_ROLE",
      "outputs": [
        {
          "internalType": "bytes32",
          "name": "",
          "type": "bytes32"
        }
      ],
      "stateMutability": "view",
      "type": "function"
    },
    {
      "inputs": [],
      "name": "MAX_FEE",
      "outputs": [
        {
          "internalType": "uint256",
          "name": "",
          "type": "uint256"
        }
      ],
      "stateMutability": "view",
      "type": "function"
    },
    {
      "inputs": [],
      "name": "OPERATOR_ROLE",
      "outputs": [
        {
          "internalType": "bytes32",
          "name": "",
          "type": "bytes32"
        }
      ],
      "stateMutability": "view",
      "type": "function"
    },
    {
      "inputs": [],
      "name": "RESOLVER_ROLE",
      "outputs": [
        {
          "internalType": "bytes32",
          "name": "",
          "type": "bytes32"
        }
      ],
      "stateMutability": "view",
      "type": "function"
    },
    {
      "inputs": [],
      "name": "UPGRADER_ROLE",
      "outputs": [
        {
          "internalType": "bytes32",
          "name": "",
          "type": "bytes32"
        }
      ],
      "stateMutability": "view",
      "type": "function"
    },
    {
      "inputs": [],
      "name": "aggregationRouter",
      "outputs": [
        {
          "internalType": "address",
          "name": "",
          "type": "address"
        }
      ],
      "stateMutability": "view",
      "type": "function"
    },
    {
      "inputs": [
        {
          "internalType": "uint256",
          "name": "amount",
          "type": "uint256"
        }
      ],
      "name": "calculateFee",
      "outputs": [
        {
          "internalType": "uint256",
          "name": "",
          "type": "uint256"
        }
      ],
      "stateMutability": "view",
      "type": "function"
    },
    {
      "inputs": [
        {
          "internalType": "bytes32",
          "name": "orderHash",
          "type": "bytes32"
        },
        {
          "components": [
            {
              "internalType": "address",
              "name": "maker",
              "type": "address"
            },
            {
              "internalType": "address",
              "name": "taker",
              "type": "address"
            },
            {
              "internalType": "address",
              "name": "token",
              "type": "address"
            },
            {
              "internalType": "uint256",
              "name": "amount",
              "type": "uint256"
            },
            {
              "internalType": "uint256",
              "name": "safetyDeposit",
              "type": "uint256"
            },
            {
              "internalType": "bytes32",
              "name": "hashlockHash",
              "type": "bytes32"
            },
            {
              "components": [
                {
                  "internalType": "uint32",
                  "name": "srcWithdrawal",
                  "type": "uint32"
                },
                {
                  "internalType": "uint32",
                  "name": "srcPublicWithdrawal",
                  "type": "uint32"
                },
                {
                  "internalType": "uint32",
                  "name": "srcCancellation",
                  "type": "uint32"
                },
                {
                  "internalType": "uint32",
                  "name": "srcDeployedAt",
                  "type": "uint32"
                },
                {
                  "internalType": "uint32",
                  "name": "dstWithdrawal",
                  "type": "uint32"
                },
                {
                  "internalType": "uint32",
                  "name": "dstCancellation",
                  "type": "uint32"
                },
                {
                  "internalType": "uint32",
                  "name": "dstDeployedAt",
                  "type": "uint32"
                }
              ],
              "internalType": "struct TimelocksLib.Timelocks",
              "name": "timelocks",
              "type": "tuple"
            },
            {
              "internalType": "bytes32",
              "name": "orderHash",
              "type": "bytes32"
            },
            {
              "internalType": "uint256",
              "name": "chainId",
              "type": "uint256"
            }
          ],
          "internalType": "struct ImmutablesLib.Immutables",
          "name": "srcImmutables",
          "type": "tuple"
        },
        {
          "components": [
            {
              "internalType": "address",
              "name": "maker",
              "type": "address"
            },
            {
              "internalType": "address",
              "name": "taker",
              "type": "address"
            },
            {
              "internalType": "address",
              "name": "token",
              "type": "address"
            },
            {
              "internalType": "uint256",
              "name": "amount",
              "type": "uint256"
            },
            {
              "internalType": "uint256",
              "name": "safetyDeposit",
              "type": "uint256"
            },
            {
              "internalType": "bytes32",
              "name": "hashlockHash",
              "type": "bytes32"
            },
            {
              "components": [
                {
                  "internalType": "uint32",
                  "name": "srcWithdrawal",
                  "type": "uint32"
                },
                {
                  "internalType": "uint32",
                  "name": "srcPublicWithdrawal",
                  "type": "uint32"
                },
                {
                  "internalType": "uint32",
                  "name": "srcCancellation",
                  "type": "uint32"
                },
                {
                  "internalType": "uint32",
                  "name": "srcDeployedAt",
                  "type": "uint32"
                },
                {
                  "internalType": "uint32",
                  "name": "dstWithdrawal",
                  "type": "uint32"
                },
                {
                  "internalType": "uint32",
                  "name": "dstCancellation",
                  "type": "uint32"
                },
                {
                  "internalType": "uint32",
                  "name": "dstDeployedAt",
                  "type": "uint32"
                }
              ],
              "internalType": "struct TimelocksLib.Timelocks",
              "name": "timelocks",
              "type": "tuple"
            },
            {
              "internalType": "bytes32",
              "name": "orderHash",
              "type": "bytes32"
            },
            {
              "internalType": "uint256",
              "name": "chainId",
              "type": "uint256"
            }
          ],
          "internalType": "struct ImmutablesLib.Immutables",
          "name": "dstImmutables",
          "type": "tuple"
        }
      ],
      "name": "createEscrowsForOrder",
      "outputs": [
        {
          "internalType": "address",
          "name": "srcEscrow",
          "type": "address"
        },
        {
          "internalType": "address",
          "name": "dstEscrow",
          "type": "address"
        }
      ],
      "stateMutability": "payable",
      "type": "function"
    },
    {
      "inputs": [
        {
          "internalType": "bytes32",
          "name": "destinationChain",
          "type": "bytes32"
        },
        {
          "internalType": "address",
          "name": "srcToken",
          "type": "address"
        },
        {
          "internalType": "address",
          "name": "dstToken",
          "type": "address"
        },
        {
          "internalType": "uint256",
          "name": "srcAmount",
          "type": "uint256"
        },
        {
          "internalType": "uint256",
          "name": "dstAmount",
          "type": "uint256"
        },
        {
          "internalType": "bytes",
          "name": "orderData",
          "type": "bytes"
        }
      ],
      "name": "createFusionPlusOrder",
      "outputs": [
        {
          "internalType": "bytes32",
          "name": "orderHash",
          "type": "bytes32"
        }
      ],
      "stateMutability": "nonpayable",
      "type": "function"
    },
    {
      "inputs": [],
      "name": "escrowFactory",
      "outputs": [
        {
          "internalType": "contract IEscrowFactory",
          "name": "",
          "type": "address"
        }
      ],
      "stateMutability": "view",
      "type": "function"
    },
    {
      "inputs": [],
      "name": "feeRecipient",
      "outputs": [
        {
          "internalType": "address",
          "name": "",
          "type": "address"
        }
      ],
      "stateMutability": "view",
      "type": "function"
    },
    {
      "inputs": [],
      "name": "getContractAddresses",
      "outputs": [
        {
          "internalType": "address",
          "name": "_limitOrderProtocol",
          "type": "address"
        },
        {
          "internalType": "address",
          "name": "_aggregationRouter",
          "type": "address"
        },
        {
          "internalType": "address",
          "name": "_escrowFactory",
          "type": "address"
        }
      ],
      "stateMutability": "view",
      "type": "function"
    },
    {
      "inputs": [
        {
          "internalType": "bytes32",
          "name": "orderHash",
          "type": "bytes32"
        }
      ],
      "name": "getOrderStatus",
      "outputs": [
        {
          "internalType": "enum FusionPlusHub_V2.OrderStatus",
          "name": "",
          "type": "uint8"
        }
      ],
      "stateMutability": "view",
      "type": "function"
    },
    {
      "inputs": [
        {
          "internalType": "bytes32",
          "name": "role",
          "type": "bytes32"
        }
      ],
      "name": "getRoleAdmin",
      "outputs": [
        {
          "internalType": "bytes32",
          "name": "",
          "type": "bytes32"
        }
      ],
      "stateMutability": "view",
      "type": "function"
    },
    {
      "inputs": [
        {
          "internalType": "bytes32",
          "name": "role",
          "type": "bytes32"
        },
        {
          "internalType": "address",
          "name": "account",
          "type": "address"
        }
      ],
      "name": "grantRole",
      "outputs": [],
      "stateMutability": "nonpayable",
      "type": "function"
    },
    {
      "inputs": [
        {
          "internalType": "bytes32",
          "name": "role",
          "type": "bytes32"
        },
        {
          "internalType": "address",
          "name": "account",
          "type": "address"
        }
      ],
      "name": "hasRole",
      "outputs": [
        {
          "internalType": "bool",
          "name": "",
          "type": "bool"
        }
      ],
      "stateMutability": "view",
      "type": "function"
    },
    {
      "inputs": [
        {
          "internalType": "address",
          "name": "_limitOrderProtocol",
          "type": "address"
        },
        {
          "internalType": "address",
          "name": "_aggregationRouter",
          "type": "address"
        },
        {
          "internalType": "address",
          "name": "_escrowFactory",
          "type": "address"
        }
      ],
      "name": "initialize",
      "outputs": [],
      "stateMutability": "nonpayable",
      "type": "function"
    },
    {
      "inputs": [],
      "name": "limitOrderProtocol",
      "outputs": [
        {
          "internalType": "address",
          "name": "",
          "type": "address"
        }
      ],
      "stateMutability": "view",
      "type": "function"
    },
    {
      "inputs": [
        {
          "internalType": "bytes32",
          "name": "",
          "type": "bytes32"
        }
      ],
      "name": "orderStatuses",
      "outputs": [
        {
          "internalType": "enum FusionPlusHub_V2.OrderStatus",
          "name": "",
          "type": "uint8"
        }
      ],
      "stateMutability": "view",
      "type": "function"
    },
    {
      "inputs": [],
      "name": "pause",
      "outputs": [],
      "stateMutability": "nonpayable",
      "type": "function"
    },
    {
      "inputs": [],
      "name": "paused",
      "outputs": [
        {
          "internalType": "bool",
          "name": "",
          "type": "bool"
        }
      ],
      "stateMutability": "view",
      "type": "function"
    },
    {
      "inputs": [],
      "name": "protocolFee",
      "outputs": [
        {
          "internalType": "uint256",
          "name": "",
          "type": "uint256"
        }
      ],
      "stateMutability": "view",
      "type": "function"
    },
    {
      "inputs": [
        {
          "internalType": "bytes32",
          "name": "role",
          "type": "bytes32"
        },
        {
          "internalType": "address",
          "name": "callerConfirmation",
          "type": "address"
        }
      ],
      "name": "renounceRole",
      "outputs": [],
      "stateMutability": "nonpayable",
      "type": "function"
    },
    {
      "inputs": [
        {
          "internalType": "bytes32",
          "name": "role",
          "type": "bytes32"
        },
        {
          "internalType": "address",
          "name": "account",
          "type": "address"
        }
      ],
      "name": "revokeRole",
      "outputs": [],
      "stateMutability": "nonpayable",
      "type": "function"
    },
    {
      "inputs": [
        {
          "internalType": "address",
          "name": "_recipient",
          "type": "address"
        }
      ],
      "name": "setFeeRecipient",
      "outputs": [],
      "stateMutability": "nonpayable",
      "type": "function"
    },
    {
      "inputs": [
        {
          "internalType": "uint256",
          "name": "_fee",
          "type": "uint256"
        }
      ],
      "name": "setProtocolFee",
      "outputs": [],
      "stateMutability": "nonpayable",
      "type": "function"
    },
    {
      "inputs": [
        {
          "internalType": "bytes4",
          "name": "interfaceId",
          "type": "bytes4"
        }
      ],
      "name": "supportsInterface",
      "outputs": [
        {
          "internalType": "bool",
          "name": "",
          "type": "bool"
        }
      ],
      "stateMutability": "view",
      "type": "function"
    },
    {
      "inputs": [],
      "name": "unpause",
      "outputs": [],
      "stateMutability": "nonpayable",
      "type": "function"
    },
    {
      "inputs": [
        {
          "internalType": "address",
          "name": "_limitOrderProtocol",
          "type": "address"
        },
        {
          "internalType": "address",
          "name": "_aggregationRouter",
          "type": "address"
        },
        {
          "internalType": "address",
          "name": "_escrowFactory",
          "type": "address"
        }
      ],
      "name": "updateContracts",
      "outputs": [],
      "stateMutability": "nonpayable",
      "type": "function"
    },
    {
      "inputs": [
        {
          "internalType": "bytes32",
          "name": "orderHash",
          "type": "bytes32"
        },
        {
          "internalType": "enum FusionPlusHub_V2.OrderStatus",
          "name": "newStatus",
          "type": "uint8"
        }
      ],
      "name": "updateOrderStatus",
      "outputs": [],
      "stateMutability": "nonpayable",
      "type": "function"
    }
  ],
  "transactionHash": "0xbfaecdf6a13c0e0c9cd159ac9c2c48356cf2df7b15b40b1f804881854c0f3a72",
  "args": [],
  "numDeployments": 2,
  "solcInputHash": "ff6b231b8e9ed4cc6ee3e5ff2718dde3",
  "bytecode": "0x60808060405234610016576122ed908161001c8239f35b600080fdfe608060408181526004918236101561001657600080fd5b600092833560e01c91826301ffc9a7146119f45750816312d35eed1461188b578163248a9ca3146118235781632f2ff15d146117db578163314afedd1461135f57816336568abe146112d55781633f4ba83a146111f657816346423aa714610dc557816346904840146111a45781635c975abb146111435781636dca4d4414610f67578163787dce3d14610e6d57816378fab26014610e145781637f665ee514610dc55781637f94dd3314610d745781638456cb5914610cbe57816391d1485414610c2e578163953874d214610bc257816399a5d74714610b3d578163a217fddf14610b04578163b0e21e8a14610ac7578163bc063e1a14610a8c578163bdd1daaa14610a39578163c0831150146106f1578163c0c53b8b1461042b578163d547741f146103ae578163e74b981b1461027457508063f5b541a61461021c578063f72c0d8b146101c45763fcdfd9461461016f57600080fd5b346101c057817ffffffffffffffffffffffffffffffffffffffffffffffffffffffffffffffffc3601126101c05760209073ffffffffffffffffffffffffffffffffffffffff600154169051908152f35b5080fd5b50346101c057817ffffffffffffffffffffffffffffffffffffffffffffffffffffffffffffffffc3601126101c057602090517f189ab7a9244df0848122154315af71fe140f3db0fe014031783b0946b8c9d2e38152f35b50346101c057817ffffffffffffffffffffffffffffffffffffffffffffffffffffffffffffffffc3601126101c057602090517f97667070c54ef182b0f5858b034beac1b6f3089aa2d3188bb1e8929f4fa9b9298152f35b919050346103aa5760207ffffffffffffffffffffffffffffffffffffffffffffffffffffffffffffffffc3601126103aa576102ae611ad8565b8380527f02dd7bc7dec4dceedda775e58dd541e08a116c6c53815c0bd028192f7b62680060205281842033855260205260ff8285205416156103835773ffffffffffffffffffffffffffffffffffffffff1691821561035c5780547fffffffffffffffffffffffff00000000000000000000000000000000000000001683179055519081527f7a7b5a0a132f9e0581eb8527f66eae9ee89c2a3e79d4ac7e41a1f1f4d48a7fc290602090a180f35b90517fa51965bf000000000000000000000000000000000000000000000000000000008152fd5b50517f7c37ed5c000000000000000000000000000000000000000000000000000000008152fd5b8280fd5b919050346103aa57807ffffffffffffffffffffffffffffffffffffffffffffffffffffffffffffffffc3601126103aa57610427913561042260016103f1611ab0565b938387527f02dd7bc7dec4dceedda775e58dd541e08a116c6c53815c0bd028192f7b62680060205286200154611c70565b612148565b5080f35b9050346103aa5760607ffffffffffffffffffffffffffffffffffffffffffffffffffffffffffffffffc3601126103aa57610464611ad8565b61046c611ab0565b91610475611afb565b907ff0c57e16840df040f15088dc2f81fe391c3923bec73e23a9662efc9c229c6a009384549360ff85881c16159367ffffffffffffffff8616958615806106ea575b600180981490816106e0575b1590816106d7575b506106af5785877fffffffffffffffffffffffffffffffffffffffffffffffff0000000000000000831617895561067a575b5061050661225e565b61050e61225e565b61051661225e565b61051e61225e565b857f9b779b17422d0df92223018b32b4d1fa46e071723d6817e2486d003becc55f005573ffffffffffffffffffffffffffffffffffffffff8092169283158015610670575b8015610666575b61063e5782907fffffffffffffffffffffffff000000000000000000000000000000000000000094858c5416178b551683875416178655168160025416176002556105b433611cb5565b506105be33611d92565b506105c833611e91565b506105d233611f8a565b50601e600355815416331790556105e7578380f35b7fc7f505b2f371ae2175ee4913f4499e1f2633a7b5936321eed1cdaeb6115181d292827fffffffffffffffffffffffffffffffffffffffffffffff00ffffffffffffffff6020945416905551908152a13880808380f35b8489517fa51965bf000000000000000000000000000000000000000000000000000000008152fd5b508282161561056a565b5082811615610563565b7fffffffffffffffffffffffffffffffffffffffffffffff0000000000000000001668010000000000000001178755386104fd565b8489517ff92ee8a9000000000000000000000000000000000000000000000000000000008152fd5b905015386104cb565b303b1591506104c3565b50856104b7565b8383346101c05760c07ffffffffffffffffffffffffffffffffffffffffffffffffffffffffffffffffc3601126101c05782359061072d611ab0565b91610736611afb565b9060843560643567ffffffffffffffff60a435818111610a355736602382011215610a3557808a0135828111610a315736910160240111610a2d577f9b779b17422d0df92223018b32b4d1fa46e071723d6817e2486d003becc55f00946002865414610a0557600286556107a8612209565b821580156109fd575b6109d55773ffffffffffffffffffffffffffffffffffffffff9182891690811580156109cb575b6109a35788519960209a8b8101913360601b83528960348301527fffffffffffffffffffffffffffffffffffffffff000000000000000000000000809160601b1660548301528560601b16606882015286607c82015287609c8201524260bc8201524360dc82015260dc815261010081019281841090841117610976578a8d9e93929d60058e9f60ff948685525190209e8f835252205416600581101561094a57610925575050878b8a60019a9b9c9d5260058d5220887fffffffffffffffffffffffffffffffffffffffffffffffffffffffffffffff0082541617905588519586528a860152168684015260608301526080820152847f87f0ef1d75cf49899ca001f6cc273ece3f0b0635759f3916dd9447ffa2f81a7860a03393a3837f7911d3e33ea22efc46a7d349370a83ab304c214048076037a23443e95da88ee1868551858152a25551908152f35b7f4c9cb0be000000000000000000000000000000000000000000000000000000008152fd5b60248e6021857f4e487b7100000000000000000000000000000000000000000000000000000000835252fd5b5060248c60418f7f4e487b7100000000000000000000000000000000000000000000000000000000835252fd5b8b89517fa51965bf000000000000000000000000000000000000000000000000000000008152fd5b50838316156107d8565b8987517f2fe85368000000000000000000000000000000000000000000000000000000008152fd5b5083156107b1565b8987517f3ee5aeb5000000000000000000000000000000000000000000000000000000008152fd5b8780fd5b8980fd5b8880fd5b5050346101c057817ffffffffffffffffffffffffffffffffffffffffffffffffffffffffffffffffc3601126101c05760209073ffffffffffffffffffffffffffffffffffffffff600254169051908152f35b5050346101c057817ffffffffffffffffffffffffffffffffffffffffffffffffffffffffffffffffc3601126101c057602090516103e88152f35b5050346101c057817ffffffffffffffffffffffffffffffffffffffffffffffffffffffffffffffffc3601126101c0576020906003549051908152f35b5050346101c057817ffffffffffffffffffffffffffffffffffffffffffffffffffffffffffffffffc3601126101c05751908152602090f35b90508234610bbf5760207ffffffffffffffffffffffffffffffffffffffffffffffffffffffffffffffffc360112610bbf57600354823581810293918115918504141715610b9357602083612710865191048152f35b9060116024927f4e487b7100000000000000000000000000000000000000000000000000000000835252fd5b80fd5b5050346101c057817ffffffffffffffffffffffffffffffffffffffffffffffffffffffffffffffffc3601126101c0579054600154600254925173ffffffffffffffffffffffffffffffffffffffff9283168152908216602082015291166040820152606090f35b0390f35b9050346103aa57817ffffffffffffffffffffffffffffffffffffffffffffffffffffffffffffffffc3601126103aa578160209360ff92610c6d611ab0565b903582527f02dd7bc7dec4dceedda775e58dd541e08a116c6c53815c0bd028192f7b626800865273ffffffffffffffffffffffffffffffffffffffff83832091168252855220541690519015158152f35b5050346101c057817ffffffffffffffffffffffffffffffffffffffffffffffffffffffffffffffffc3601126101c05760207f62e78cea01bee320cd4e420270b5ea74000d11b0c9f74754ebdbfc544b05a25891610d1a611c14565b610d22612209565b7fcd5ed15c6e187e77e9aee88184c21f4f2182ab5827cb3b7e07fbedcd63f0330060017fffffffffffffffffffffffffffffffffffffffffffffffffffffffffffffff0082541617905551338152a180f35b5050346101c057817ffffffffffffffffffffffffffffffffffffffffffffffffffffffffffffffffc3601126101c05773ffffffffffffffffffffffffffffffffffffffff60209254169051908152f35b9050346103aa5760207ffffffffffffffffffffffffffffffffffffffffffffffffffffffffffffffffc3601126103aa5781610c2a9360ff923581526005602052205416905191829182611b1e565b5050346101c057817ffffffffffffffffffffffffffffffffffffffffffffffffffffffffffffffffc3601126101c057602090517f92a19c77d2ea87c7f81d50c74403cb2f401780f3ad919571121efe2bdb427eb18152f35b919050346103aa5760207ffffffffffffffffffffffffffffffffffffffffffffffffffffffffffffffffc3601126103aa578135918380527f02dd7bc7dec4dceedda775e58dd541e08a116c6c53815c0bd028192f7b62680060205281842033855260205260ff828520541615610f40576103e88311610f195750816020917fd10d75876659a287a59a6ccfa2e3fff42f84d94b542837acd30bc184d562de409360035551908152a180f35b90517fa22a7a0e000000000000000000000000000000000000000000000000000000008152fd5b90517f7c37ed5c000000000000000000000000000000000000000000000000000000008152fd5b9050346103aa5760607ffffffffffffffffffffffffffffffffffffffffffffffffffffffffffffffffc3601126103aa57610fa0611ad8565b90610fa9611ab0565b91610fb2611afb565b918580527f02dd7bc7dec4dceedda775e58dd541e08a116c6c53815c0bd028192f7b62680060205284862033875260205260ff85872054161561111c57507fe008bc55cceb8bb7dc36a3bbaa95481f36a3537e2b4cdc39770a19cf94e754a593929161108b9173ffffffffffffffffffffffffffffffffffffffff9384809216806110ef575b5016806110c0575b5082811680611091575b508554600154945173ffffffffffffffffffffffffffffffffffffffff91851682168152949093168316602085015291909116604083015281906060820190565b0390a180f35b7fffffffffffffffffffffffff000000000000000000000000000000000000000060025416176002553861104a565b7fffffffffffffffffffffffff0000000000000000000000000000000000000000600154161760015538611040565b7fffffffffffffffffffffffff000000000000000000000000000000000000000089541617885538611038565b84517f7c37ed5c000000000000000000000000000000000000000000000000000000008152fd5b5050346101c057817ffffffffffffffffffffffffffffffffffffffffffffffffffffffffffffffffc3601126101c05760209060ff7fcd5ed15c6e187e77e9aee88184c21f4f2182ab5827cb3b7e07fbedcd63f03300541690519015158152f35b828434610bbf57807ffffffffffffffffffffffffffffffffffffffffffffffffffffffffffffffffc360112610bbf575073ffffffffffffffffffffffffffffffffffffffff60209254169051908152f35b9050346103aa57827ffffffffffffffffffffffffffffffffffffffffffffffffffffffffffffffffc3601126103aa5761122e611c14565b7fcd5ed15c6e187e77e9aee88184c21f4f2182ab5827cb3b7e07fbedcd63f033009081549060ff8216156112ae57507fffffffffffffffffffffffffffffffffffffffffffffffffffffffffffffff00169055513381527f5db9ee0a495bf2e6ff9c91a7834c1ba4fdd244a5e8aa4e537bd38aeae4b073aa90602090a180f35b83517f8dfc202b000000000000000000000000000000000000000000000000000000008152fd5b8383346101c057807ffffffffffffffffffffffffffffffffffffffffffffffffffffffffffffffffc3601126101c05761130d611ab0565b903373ffffffffffffffffffffffffffffffffffffffff8316036113375750610427919235612148565b8390517f6697b232000000000000000000000000000000000000000000000000000000008152fd5b9050826103e07ffffffffffffffffffffffffffffffffffffffffffffffffffffffffffffffffc360112610bbf578135906101e0807fffffffffffffffffffffffffffffffffffffffffffffffffffffffffffffffdc3601126101c0577ffffffffffffffffffffffffffffffffffffffffffffffffffffffffffffffdfc360112610bbf576113ec611b81565b818152600560205260ff848220541660058110156117af576001036117875773ffffffffffffffffffffffffffffffffffffffff918260025416918551927fe8e076770000000000000000000000000000000000000000000000000000000084526024358581168091036103aa57868501526044358581168091036103aa5760248501526064358581168091036103aa576044850152608435606485015260a435608485015260c43560a485015260e4359063ffffffff918281168091036117835760c486015261010491823581811680910361177b5760e48701526101249283359082821680920361177f578701526101449283359082821680920361177f578701526101649283359082821680920361177f578701526101849283359082821680920361177f578701526101a49283359082821680920361177f578701526101c4928335908701526101e4928335908701526102049283359088821680920361177f578701526102249283359088821680920361177f578701526102449283359088821680920361177f5787015261026492833590870152610284928335908701526102a4928335908701526102c49283359082821680920361177f578701526102e49283359082821680920361177f578701526103049283359082821680920361177f578701526103249283359082821680920361177f578701526103449283359082821680920361177f578701526103649283359082821680920361177f5787015261038492833591821680920361177b5786928a949284928301526103a4928335908301526103c49283359083015234905af192831561176f57908691819682956116c4575b505082815260056020522060027fffffffffffffffffffffffffffffffffffffffffffffffffffffffffffffff008254161790557f7911d3e33ea22efc46a7d349370a83ab304c214048076037a23443e95da88ee16020865160028152a281845193168352166020820152f35b9096509093503d8711611767575b7fffffffffffffffffffffffffffffffffffffffffffffffffffffffffffffffe0601f83011686019086821067ffffffffffffffff83111761173b5750869186918352810103126101c05784611733602061172c87611b60565b9601611b60565b928780611657565b8460416024927f4e487b7100000000000000000000000000000000000000000000000000000000835252fd5b3d91506116d2565b508551903d90823e3d90fd5b8480fd5b8580fd5b8380fd5b8284517f91d33ce6000000000000000000000000000000000000000000000000000000008152fd5b6024826021867f4e487b7100000000000000000000000000000000000000000000000000000000835252fd5b919050346103aa57807ffffffffffffffffffffffffffffffffffffffffffffffffffffffffffffffffc3601126103aa57610427913561181e60016103f1611ab0565b612083565b9050346103aa5760207ffffffffffffffffffffffffffffffffffffffffffffffffffffffffffffffffc3601126103aa57816020936001923581527f02dd7bc7dec4dceedda775e58dd541e08a116c6c53815c0bd028192f7b62680085522001549051908152f35b9050346103aa57817ffffffffffffffffffffffffffffffffffffffffffffffffffffffffffffffffc3601126103aa5780359160243591600583101561177b576118d3611b81565b838552600560205260ff828620541660058110156119c85780156119a057818114908115611995575b5061196e57507f7911d3e33ea22efc46a7d349370a83ab304c214048076037a23443e95da88ee1916119689184865260056020528086207fffffffffffffffffffffffffffffffffffffffffffffffffffffffffffffff0081541660ff84161790555191829182611b1e565b0390a280f35b90517f91d33ce6000000000000000000000000000000000000000000000000000000008152fd5b6003915014386118fc565b5090517f91d33ce6000000000000000000000000000000000000000000000000000000008152fd5b6024866021847f4e487b7100000000000000000000000000000000000000000000000000000000835252fd5b8491346103aa5760207ffffffffffffffffffffffffffffffffffffffffffffffffffffffffffffffffc3601126103aa57357fffffffff0000000000000000000000000000000000000000000000000000000081168091036103aa57602092507f7965db0b000000000000000000000000000000000000000000000000000000008114908115611a86575b5015158152f35b7f01ffc9a70000000000000000000000000000000000000000000000000000000091501483611a7f565b6024359073ffffffffffffffffffffffffffffffffffffffff82168203611ad357565b600080fd5b6004359073ffffffffffffffffffffffffffffffffffffffff82168203611ad357565b6044359073ffffffffffffffffffffffffffffffffffffffff82168203611ad357565b919060208301926005821015611b315752565b7f4e487b7100000000000000000000000000000000000000000000000000000000600052602160045260246000fd5b519073ffffffffffffffffffffffffffffffffffffffff82168203611ad357565b3360009081527f756534422b3cb82a54d88d2dca71cfb1a3297222856e6ddc952d9ca5a7fc4b8860205260409020547f92a19c77d2ea87c7f81d50c74403cb2f401780f3ad919571121efe2bdb427eb19060ff1615611bdd5750565b604490604051907fe2517d3f0000000000000000000000000000000000000000000000000000000082523360048301526024820152fd5b3360009081527f448256db8f8fb95ee3eaaf89c1051414494e85cebb6057fcf996cc3d0ccfb45660205260409020547f97667070c54ef182b0f5858b034beac1b6f3089aa2d3188bb1e8929f4fa9b9299060ff1615611bdd5750565b806000527f02dd7bc7dec4dceedda775e58dd541e08a116c6c53815c0bd028192f7b62680060205260406000203360005260205260ff6040600020541615611bdd5750565b73ffffffffffffffffffffffffffffffffffffffff1660008181527fb7db2dd08fcb62d0c9e08c51941cae53c267786a0b75803fb7960902fc8ef97d60205260408120549091907f02dd7bc7dec4dceedda775e58dd541e08a116c6c53815c0bd028192f7b6268009060ff16611d8d57828052602052604082208183526020526040822060017fffffffffffffffffffffffffffffffffffffffffffffffffffffffffffffff0082541617905533917f2f8788117e7eff1d82e926ec794901d17c78024a50270940304540a733656f0d8180a4600190565b505090565b73ffffffffffffffffffffffffffffffffffffffff1660008181527f448256db8f8fb95ee3eaaf89c1051414494e85cebb6057fcf996cc3d0ccfb45660205260408120549091907f97667070c54ef182b0f5858b034beac1b6f3089aa2d3188bb1e8929f4fa9b929907f02dd7bc7dec4dceedda775e58dd541e08a116c6c53815c0bd028192f7b6268009060ff16611e8b57818452602052604083208284526020526040832060017fffffffffffffffffffffffffffffffffffffffffffffffffffffffffffffff008254161790557f2f8788117e7eff1d82e926ec794901d17c78024a50270940304540a733656f0d339380a4600190565b50505090565b73ffffffffffffffffffffffffffffffffffffffff1660008181527f756534422b3cb82a54d88d2dca71cfb1a3297222856e6ddc952d9ca5a7fc4b8860205260408120549091907f92a19c77d2ea87c7f81d50c74403cb2f401780f3ad919571121efe2bdb427eb1907f02dd7bc7dec4dceedda775e58dd541e08a116c6c53815c0bd028192f7b6268009060ff16611e8b57818452602052604083208284526020526040832060017fffffffffffffffffffffffffffffffffffffffffffffffffffffffffffffff008254161790557f2f8788117e7eff1d82e926ec794901d17c78024a50270940304540a733656f0d339380a4600190565b73ffffffffffffffffffffffffffffffffffffffff1660008181527fab71e3f32666744d246edff3f96e4bdafee2e9867098cdd118a979a7464786a860205260408120549091907f189ab7a9244df0848122154315af71fe140f3db0fe014031783b0946b8c9d2e3907f02dd7bc7dec4dceedda775e58dd541e08a116c6c53815c0bd028192f7b6268009060ff16611e8b57818452602052604083208284526020526040832060017fffffffffffffffffffffffffffffffffffffffffffffffffffffffffffffff008254161790557f2f8788117e7eff1d82e926ec794901d17c78024a50270940304540a733656f0d339380a4600190565b906000918083527f02dd7bc7dec4dceedda775e58dd541e08a116c6c53815c0bd028192f7b6268008060205273ffffffffffffffffffffffffffffffffffffffff6040852093169283855260205260ff60408520541615600014611e8b57818452602052604083208284526020526040832060017fffffffffffffffffffffffffffffffffffffffffffffffffffffffffffffff008254161790557f2f8788117e7eff1d82e926ec794901d17c78024a50270940304540a733656f0d339380a4600190565b906000918083527f02dd7bc7dec4dceedda775e58dd541e08a116c6c53815c0bd028192f7b6268008060205273ffffffffffffffffffffffffffffffffffffffff6040852093169283855260205260ff604085205416600014611e8b5781845260205260408320828452602052604083207fffffffffffffffffffffffffffffffffffffffffffffffffffffffffffffff0081541690557ff6391f5c32d9c69d2a47ea670b442974b53935d1edc7fd64eb21e047a839171b339380a4600190565b60ff7fcd5ed15c6e187e77e9aee88184c21f4f2182ab5827cb3b7e07fbedcd63f03300541661223457565b60046040517fd93c0665000000000000000000000000000000000000000000000000000000008152fd5b60ff7ff0c57e16840df040f15088dc2f81fe391c3923bec73e23a9662efc9c229c6a005460401c161561228d57565b60046040517fd7e6bcf8000000000000000000000000000000000000000000000000000000008152fdfea264697066735822122075fea297741df4ffc259d9aa8068f2e8f161e12fdc41ceb2b11f025f6a16fe4d64736f6c63430008170033",
  "devdoc": {
    "author": "1Balancer Team",
    "details": "Integrates with 1inch foundation contracts and manages cross-chain coordination",
    "errors": {
      "AccessControlBadConfirmation()": [
        {
          "details": "The caller of a function is not the expected one. NOTE: Don't confuse with {AccessControlUnauthorizedAccount}."
        }
      ],
      "AccessControlUnauthorizedAccount(address,bytes32)": [
        {
          "details": "The `account` is missing a role."
        }
      ],
      "EnforcedPause()": [
        {
          "details": "The operation failed because the contract is paused."
        }
      ],
      "ExpectedPause()": [
        {
          "details": "The operation failed because the contract is not paused."
        }
      ],
      "InvalidInitialization()": [
        {
          "details": "The contract is already initialized."
        }
      ],
      "NotInitializing()": [
        {
          "details": "The contract is not initializing."
        }
      ],
      "ReentrancyGuardReentrantCall()": [
        {
          "details": "Unauthorized reentrant call."
        }
      ]
    },
    "events": {
      "Initialized(uint64)": {
        "details": "Triggered when the contract has been initialized or reinitialized."
      },
      "Paused(address)": {
        "details": "Emitted when the pause is triggered by `account`."
      },
      "RoleAdminChanged(bytes32,bytes32,bytes32)": {
        "details": "Emitted when `newAdminRole` is set as ``role``'s admin role, replacing `previousAdminRole` `DEFAULT_ADMIN_ROLE` is the starting admin for all roles, despite {RoleAdminChanged} not being emitted to signal this."
      },
      "RoleGranted(bytes32,address,address)": {
        "details": "Emitted when `account` is granted `role`. `sender` is the account that originated the contract call. This account bears the admin role (for the granted role). Expected in cases where the role was granted using the internal {AccessControl-_grantRole}."
      },
      "RoleRevoked(bytes32,address,address)": {
        "details": "Emitted when `account` is revoked `role`. `sender` is the account that originated the contract call:   - if using `revokeRole`, it is the admin role bearer   - if using `renounceRole`, it is the role bearer (i.e. `account`)"
      },
      "Unpaused(address)": {
        "details": "Emitted when the pause is lifted by `account`."
      }
    },
    "kind": "dev",
    "methods": {
      "calculateFee(uint256)": {
        "params": {
          "amount": "The amount to calculate fee for"
        },
        "returns": {
          "_0": "The fee amount"
        }
      },
      "createEscrowsForOrder(bytes32,(address,address,address,uint256,uint256,bytes32,(uint32,uint32,uint32,uint32,uint32,uint32,uint32),bytes32,uint256),(address,address,address,uint256,uint256,bytes32,(uint32,uint32,uint32,uint32,uint32,uint32,uint32),bytes32,uint256))": {
        "details": "Called by resolver after order validation"
      },
      "createFusionPlusOrder(bytes32,address,address,uint256,uint256,bytes)": {
        "details": "Validates amounts and creates order hash for tracking",
        "params": {
          "destinationChain": "The destination chain identifier",
          "dstAmount": "Expected amount on destination chain",
          "dstToken": "Destination chain token address",
          "orderData": "Additional order parameters",
          "srcAmount": "Amount on source chain",
          "srcToken": "Source chain token address"
        }
      },
      "getContractAddresses()": {
        "returns": {
          "_aggregationRouter": "The aggregation router address",
          "_escrowFactory": "The escrow factory address",
          "_limitOrderProtocol": "The limit order protocol address"
        }
      },
      "getOrderStatus(bytes32)": {
        "params": {
          "orderHash": "The order hash to check"
        },
        "returns": {
          "_0": "The order status"
        }
      },
      "getRoleAdmin(bytes32)": {
        "details": "Returns the admin role that controls `role`. See {grantRole} and {revokeRole}. To change a role's admin, use {_setRoleAdmin}."
      },
      "grantRole(bytes32,address)": {
        "details": "Grants `role` to `account`. If `account` had not been already granted `role`, emits a {RoleGranted} event. Requirements: - the caller must have ``role``'s admin role. May emit a {RoleGranted} event."
      },
      "hasRole(bytes32,address)": {
        "details": "Returns `true` if `account` has been granted `role`."
      },
      "paused()": {
        "details": "Returns true if the contract is paused, and false otherwise."
      },
      "renounceRole(bytes32,address)": {
        "details": "Revokes `role` from the calling account. Roles are often managed via {grantRole} and {revokeRole}: this function's purpose is to provide a mechanism for accounts to lose their privileges if they are compromised (such as when a trusted device is misplaced). If the calling account had been revoked `role`, emits a {RoleRevoked} event. Requirements: - the caller must be `callerConfirmation`. May emit a {RoleRevoked} event."
      },
      "revokeRole(bytes32,address)": {
        "details": "Revokes `role` from `account`. If `account` had been granted `role`, emits a {RoleRevoked} event. Requirements: - the caller must have ``role``'s admin role. May emit a {RoleRevoked} event."
      },
      "setFeeRecipient(address)": {
        "params": {
          "_recipient": "New fee recipient address"
        }
      },
      "setProtocolFee(uint256)": {
        "params": {
          "_fee": "New fee in basis points"
        }
      },
      "supportsInterface(bytes4)": {
        "details": "Returns true if this contract implements the interface defined by `interfaceId`. See the corresponding https://eips.ethereum.org/EIPS/eip-165#how-interfaces-are-identified[ERC section] to learn more about how these ids are created. This function call must use less than 30 000 gas."
      },
      "updateContracts(address,address,address)": {
        "params": {
          "_aggregationRouter": "New aggregation router address",
          "_escrowFactory": "New escrow factory address",
          "_limitOrderProtocol": "New limit order protocol address"
        }
      },
      "updateOrderStatus(bytes32,uint8)": {
        "params": {
          "newStatus": "The new status",
          "orderHash": "The order hash to update"
        }
      }
    },
    "title": "FusionPlusHub V2",
    "version": 1
  },
  "userdoc": {
    "kind": "user",
    "methods": {
      "calculateFee(uint256)": {
        "notice": "Calculates fee for an amount"
      },
      "createEscrowsForOrder(bytes32,(address,address,address,uint256,uint256,bytes32,(uint32,uint32,uint32,uint32,uint32,uint32,uint32),bytes32,uint256),(address,address,address,uint256,uint256,bytes32,(uint32,uint32,uint32,uint32,uint32,uint32,uint32),bytes32,uint256))": {
        "notice": "Creates escrow pair for cross-chain atomic swap"
      },
      "createFusionPlusOrder(bytes32,address,address,uint256,uint256,bytes)": {
        "notice": "Creates a cross-chain Fusion+ order with proper validation"
      },
      "getContractAddresses()": {
        "notice": "Gets all contract addresses"
      },
      "getOrderStatus(bytes32)": {
        "notice": "Gets order status"
      },
      "pause()": {
        "notice": "Pauses the contract"
      },
      "setFeeRecipient(address)": {
        "notice": "Updates fee recipient"
      },
      "setProtocolFee(uint256)": {
        "notice": "Updates protocol fee"
      },
      "unpause()": {
        "notice": "Unpauses the contract"
      },
      "updateContracts(address,address,address)": {
        "notice": "Updates contract addresses"
      },
      "updateOrderStatus(bytes32,uint8)": {
        "notice": "Updates order status (called by resolver/orchestrator)"
      }
    },
    "notice": "Enhanced hub contract for Fusion+ cross-chain swaps on BASE with better 1inch integration",
    "version": 1
  },
  "storageLayout": {
    "storage": [
      {
        "astId": 3355,
        "contract": "contracts/ethereum-hub/FusionPlusHub_V2.sol:FusionPlusHub_V2",
        "label": "limitOrderProtocol",
        "offset": 0,
        "slot": "0",
        "type": "t_address"
      },
      {
        "astId": 3357,
        "contract": "contracts/ethereum-hub/FusionPlusHub_V2.sol:FusionPlusHub_V2",
        "label": "aggregationRouter",
        "offset": 0,
        "slot": "1",
        "type": "t_address"
      },
      {
        "astId": 3360,
        "contract": "contracts/ethereum-hub/FusionPlusHub_V2.sol:FusionPlusHub_V2",
        "label": "escrowFactory",
        "offset": 0,
        "slot": "2",
        "type": "t_contract(IEscrowFactory)5804"
      },
      {
        "astId": 3362,
        "contract": "contracts/ethereum-hub/FusionPlusHub_V2.sol:FusionPlusHub_V2",
        "label": "protocolFee",
        "offset": 0,
        "slot": "3",
        "type": "t_uint256"
      },
      {
        "astId": 3367,
        "contract": "contracts/ethereum-hub/FusionPlusHub_V2.sol:FusionPlusHub_V2",
        "label": "feeRecipient",
        "offset": 0,
        "slot": "4",
        "type": "t_address"
      },
      {
        "astId": 3372,
        "contract": "contracts/ethereum-hub/FusionPlusHub_V2.sol:FusionPlusHub_V2",
        "label": "orderStatuses",
        "offset": 0,
        "slot": "5",
        "type": "t_mapping(t_bytes32,t_enum(OrderStatus)3378)"
      }
    ],
    "types": {
      "t_address": {
        "encoding": "inplace",
        "label": "address",
        "numberOfBytes": "20"
      },
      "t_bytes32": {
        "encoding": "inplace",
        "label": "bytes32",
        "numberOfBytes": "32"
      },
      "t_contract(IEscrowFactory)5804": {
        "encoding": "inplace",
        "label": "contract IEscrowFactory",
        "numberOfBytes": "20"
      },
      "t_enum(OrderStatus)3378": {
        "encoding": "inplace",
        "label": "enum FusionPlusHub_V2.OrderStatus",
        "numberOfBytes": "1"
      },
      "t_mapping(t_bytes32,t_enum(OrderStatus)3378)": {
        "encoding": "mapping",
        "key": "t_bytes32",
        "label": "mapping(bytes32 => enum FusionPlusHub_V2.OrderStatus)",
        "numberOfBytes": "32",
        "value": "t_enum(OrderStatus)3378"
      },
      "t_uint256": {
        "encoding": "inplace",
        "label": "uint256",
        "numberOfBytes": "32"
      }
    }
  }
}